{
  "abi": [
    {
      "type": "constructor",
      "inputs": [],
      "stateMutability": "nonpayable"
    },
    {
      "type": "function",
      "name": "DEFAULT_ADMIN_ROLE",
      "inputs": [],
      "outputs": [
        {
          "name": "",
          "type": "bytes32",
          "internalType": "bytes32"
        }
      ],
      "stateMutability": "view"
    },
    {
      "type": "function",
      "name": "UPGRADE_INTERFACE_VERSION",
      "inputs": [],
      "outputs": [
        {
          "name": "",
          "type": "string",
          "internalType": "string"
        }
      ],
      "stateMutability": "view"
    },
    {
      "type": "function",
      "name": "buyCreditLimit",
      "inputs": [
        {
          "name": "params",
          "type": "tuple",
          "internalType": "struct BuyCreditLimitParams",
          "components": [
            {
              "name": "maxDueDate",
              "type": "uint256",
              "internalType": "uint256"
            },
            {
              "name": "curveRelativeTime",
              "type": "tuple",
              "internalType": "struct YieldCurve",
              "components": [
                {
                  "name": "tenors",
                  "type": "uint256[]",
                  "internalType": "uint256[]"
                },
                {
                  "name": "aprs",
                  "type": "int256[]",
                  "internalType": "int256[]"
                },
                {
                  "name": "marketRateMultipliers",
                  "type": "uint256[]",
                  "internalType": "uint256[]"
                }
              ]
            }
          ]
        }
      ],
      "outputs": [],
      "stateMutability": "payable"
    },
    {
      "type": "function",
      "name": "buyCreditLimitOnBehalfOf",
      "inputs": [
        {
          "name": "externalParams",
          "type": "tuple",
          "internalType": "struct BuyCreditLimitOnBehalfOfParams",
          "components": [
            {
              "name": "params",
              "type": "tuple",
              "internalType": "struct BuyCreditLimitParams",
              "components": [
                {
                  "name": "maxDueDate",
                  "type": "uint256",
                  "internalType": "uint256"
                },
                {
                  "name": "curveRelativeTime",
                  "type": "tuple",
                  "internalType": "struct YieldCurve",
                  "components": [
                    {
                      "name": "tenors",
                      "type": "uint256[]",
                      "internalType": "uint256[]"
                    },
                    {
                      "name": "aprs",
                      "type": "int256[]",
                      "internalType": "int256[]"
                    },
                    {
                      "name": "marketRateMultipliers",
                      "type": "uint256[]",
                      "internalType": "uint256[]"
                    }
                  ]
                }
              ]
            },
            {
              "name": "onBehalfOf",
              "type": "address",
              "internalType": "address"
            }
          ]
        }
      ],
      "outputs": [],
      "stateMutability": "payable"
    },
    {
      "type": "function",
      "name": "buyCreditMarket",
      "inputs": [
        {
          "name": "params",
          "type": "tuple",
          "internalType": "struct BuyCreditMarketParams",
          "components": [
            {
              "name": "borrower",
              "type": "address",
              "internalType": "address"
            },
            {
              "name": "creditPositionId",
              "type": "uint256",
              "internalType": "uint256"
            },
            {
              "name": "amount",
              "type": "uint256",
              "internalType": "uint256"
            },
            {
              "name": "tenor",
              "type": "uint256",
              "internalType": "uint256"
            },
            {
              "name": "deadline",
              "type": "uint256",
              "internalType": "uint256"
            },
            {
              "name": "minAPR",
              "type": "uint256",
              "internalType": "uint256"
            },
            {
              "name": "exactAmountIn",
              "type": "bool",
              "internalType": "bool"
            },
            {
              "name": "collectionId",
              "type": "uint256",
              "internalType": "uint256"
            },
            {
              "name": "rateProvider",
              "type": "address",
              "internalType": "address"
            }
          ]
        }
      ],
      "outputs": [],
      "stateMutability": "payable"
    },
    {
      "type": "function",
      "name": "buyCreditMarketOnBehalfOf",
      "inputs": [
        {
          "name": "externalParams",
          "type": "tuple",
          "internalType": "struct BuyCreditMarketOnBehalfOfParams",
          "components": [
            {
              "name": "params",
              "type": "tuple",
              "internalType": "struct BuyCreditMarketParams",
              "components": [
                {
                  "name": "borrower",
                  "type": "address",
                  "internalType": "address"
                },
                {
                  "name": "creditPositionId",
                  "type": "uint256",
                  "internalType": "uint256"
                },
                {
                  "name": "amount",
                  "type": "uint256",
                  "internalType": "uint256"
                },
                {
                  "name": "tenor",
                  "type": "uint256",
                  "internalType": "uint256"
                },
                {
                  "name": "deadline",
                  "type": "uint256",
                  "internalType": "uint256"
                },
                {
                  "name": "minAPR",
                  "type": "uint256",
                  "internalType": "uint256"
                },
                {
                  "name": "exactAmountIn",
                  "type": "bool",
                  "internalType": "bool"
                },
                {
                  "name": "collectionId",
                  "type": "uint256",
                  "internalType": "uint256"
                },
                {
                  "name": "rateProvider",
                  "type": "address",
                  "internalType": "address"
                }
              ]
            },
            {
              "name": "onBehalfOf",
              "type": "address",
              "internalType": "address"
            },
            {
              "name": "recipient",
              "type": "address",
              "internalType": "address"
            }
          ]
        }
      ],
      "outputs": [],
      "stateMutability": "payable"
    },
    {
      "type": "function",
      "name": "claim",
      "inputs": [
        {
          "name": "params",
          "type": "tuple",
          "internalType": "struct ClaimParams",
          "components": [
            {
              "name": "creditPositionId",
              "type": "uint256",
              "internalType": "uint256"
            }
          ]
        }
      ],
      "outputs": [],
      "stateMutability": "payable"
    },
    {
      "type": "function",
      "name": "collateralRatio",
      "inputs": [
        {
          "name": "user",
          "type": "address",
          "internalType": "address"
        }
      ],
      "outputs": [
        {
          "name": "",
          "type": "uint256",
          "internalType": "uint256"
        }
      ],
      "stateMutability": "view"
    },
    {
      "type": "function",
      "name": "compensate",
      "inputs": [
        {
          "name": "params",
          "type": "tuple",
          "internalType": "struct CompensateParams",
          "components": [
            {
              "name": "creditPositionWithDebtToRepayId",
              "type": "uint256",
              "internalType": "uint256"
            },
            {
              "name": "creditPositionToCompensateId",
              "type": "uint256",
              "internalType": "uint256"
            },
            {
              "name": "amount",
              "type": "uint256",
              "internalType": "uint256"
            }
          ]
        }
      ],
      "outputs": [],
      "stateMutability": "payable"
    },
    {
      "type": "function",
      "name": "compensateOnBehalfOf",
      "inputs": [
        {
          "name": "externalParams",
          "type": "tuple",
          "internalType": "struct CompensateOnBehalfOfParams",
          "components": [
            {
              "name": "params",
              "type": "tuple",
              "internalType": "struct CompensateParams",
              "components": [
                {
                  "name": "creditPositionWithDebtToRepayId",
                  "type": "uint256",
                  "internalType": "uint256"
                },
                {
                  "name": "creditPositionToCompensateId",
                  "type": "uint256",
                  "internalType": "uint256"
                },
                {
                  "name": "amount",
                  "type": "uint256",
                  "internalType": "uint256"
                }
              ]
            },
            {
              "name": "onBehalfOf",
              "type": "address",
              "internalType": "address"
            }
          ]
        }
      ],
      "outputs": [],
      "stateMutability": "payable"
    },
    {
      "type": "function",
      "name": "data",
      "inputs": [],
      "outputs": [
        {
          "name": "",
          "type": "tuple",
          "internalType": "struct DataView",
          "components": [
            {
              "name": "nextDebtPositionId",
              "type": "uint256",
              "internalType": "uint256"
            },
            {
              "name": "nextCreditPositionId",
              "type": "uint256",
              "internalType": "uint256"
            },
            {
              "name": "underlyingCollateralToken",
              "type": "address",
              "internalType": "contract IERC20Metadata"
            },
            {
              "name": "underlyingBorrowToken",
              "type": "address",
              "internalType": "contract IERC20Metadata"
            },
            {
              "name": "collateralToken",
              "type": "address",
              "internalType": "contract NonTransferrableToken"
            },
            {
              "name": "borrowTokenVault",
              "type": "address",
              "internalType": "contract NonTransferrableRebasingTokenVault"
            },
            {
              "name": "debtToken",
              "type": "address",
              "internalType": "contract NonTransferrableToken"
            },
            {
              "name": "variablePool",
              "type": "address",
              "internalType": "contract IPool"
            }
          ]
        }
      ],
      "stateMutability": "view"
    },
    {
      "type": "function",
      "name": "debtTokenAmountToCollateralTokenAmount",
      "inputs": [
        {
          "name": "amount",
          "type": "uint256",
          "internalType": "uint256"
        }
      ],
      "outputs": [
        {
          "name": "",
          "type": "uint256",
          "internalType": "uint256"
        }
      ],
      "stateMutability": "view"
    },
    {
      "type": "function",
      "name": "deposit",
      "inputs": [
        {
          "name": "params",
          "type": "tuple",
          "internalType": "struct DepositParams",
          "components": [
            {
              "name": "token",
              "type": "address",
              "internalType": "address"
            },
            {
              "name": "amount",
              "type": "uint256",
              "internalType": "uint256"
            },
            {
              "name": "to",
              "type": "address",
              "internalType": "address"
            }
          ]
        }
      ],
      "outputs": [],
      "stateMutability": "payable"
    },
    {
      "type": "function",
      "name": "depositOnBehalfOf",
      "inputs": [
        {
          "name": "params",
          "type": "tuple",
          "internalType": "struct DepositOnBehalfOfParams",
          "components": [
            {
              "name": "params",
              "type": "tuple",
              "internalType": "struct DepositParams",
              "components": [
                {
                  "name": "token",
                  "type": "address",
                  "internalType": "address"
                },
                {
                  "name": "amount",
                  "type": "uint256",
                  "internalType": "uint256"
                },
                {
                  "name": "to",
                  "type": "address",
                  "internalType": "address"
                }
              ]
            },
            {
              "name": "onBehalfOf",
              "type": "address",
              "internalType": "address"
            }
          ]
        }
      ],
      "outputs": [],
      "stateMutability": "payable"
    },
    {
      "type": "function",
      "name": "feeConfig",
      "inputs": [],
      "outputs": [
        {
          "name": "",
          "type": "tuple",
          "internalType": "struct InitializeFeeConfigParams",
          "components": [
            {
              "name": "swapFeeAPR",
              "type": "uint256",
              "internalType": "uint256"
            },
            {
              "name": "fragmentationFee",
              "type": "uint256",
              "internalType": "uint256"
            },
            {
              "name": "liquidationRewardPercent",
              "type": "uint256",
              "internalType": "uint256"
            },
            {
              "name": "overdueCollateralProtocolPercent",
              "type": "uint256",
              "internalType": "uint256"
            },
            {
              "name": "collateralProtocolPercent",
              "type": "uint256",
              "internalType": "uint256"
            },
            {
              "name": "feeRecipient",
              "type": "address",
              "internalType": "address"
            }
          ]
        }
      ],
      "stateMutability": "view"
    },
    {
      "type": "function",
      "name": "getBorrowOfferAPR",
      "inputs": [
        {
          "name": "user",
          "type": "address",
          "internalType": "address"
        },
        {
          "name": "collectionId",
          "type": "uint256",
          "internalType": "uint256"
        },
        {
          "name": "rateProvider",
          "type": "address",
          "internalType": "address"
        },
        {
          "name": "tenor",
          "type": "uint256",
          "internalType": "uint256"
        }
      ],
      "outputs": [
        {
          "name": "",
          "type": "uint256",
          "internalType": "uint256"
        }
      ],
      "stateMutability": "view"
    },
    {
      "type": "function",
      "name": "getBuyCreditMarketSwapData",
      "inputs": [
        {
          "name": "params",
          "type": "tuple",
          "internalType": "struct BuyCreditMarketParams",
          "components": [
            {
              "name": "borrower",
              "type": "address",
              "internalType": "address"
            },
            {
              "name": "creditPositionId",
              "type": "uint256",
              "internalType": "uint256"
            },
            {
              "name": "amount",
              "type": "uint256",
              "internalType": "uint256"
            },
            {
              "name": "tenor",
              "type": "uint256",
              "internalType": "uint256"
            },
            {
              "name": "deadline",
              "type": "uint256",
              "internalType": "uint256"
            },
            {
              "name": "minAPR",
              "type": "uint256",
              "internalType": "uint256"
            },
            {
              "name": "exactAmountIn",
              "type": "bool",
              "internalType": "bool"
            },
            {
              "name": "collectionId",
              "type": "uint256",
              "internalType": "uint256"
            },
            {
              "name": "rateProvider",
              "type": "address",
              "internalType": "address"
            }
          ]
        }
      ],
      "outputs": [
        {
          "name": "",
          "type": "tuple",
          "internalType": "struct BuyCreditMarket.SwapDataBuyCreditMarket",
          "components": [
            {
              "name": "creditPosition",
              "type": "tuple",
              "internalType": "struct CreditPosition",
              "components": [
                {
                  "name": "lender",
                  "type": "address",
                  "internalType": "address"
                },
                {
                  "name": "forSale",
                  "type": "bool",
                  "internalType": "bool"
                },
                {
                  "name": "credit",
                  "type": "uint256",
                  "internalType": "uint256"
                },
                {
                  "name": "debtPositionId",
                  "type": "uint256",
                  "internalType": "uint256"
                }
              ]
            },
            {
              "name": "borrower",
              "type": "address",
              "internalType": "address"
            },
            {
              "name": "creditAmountOut",
              "type": "uint256",
              "internalType": "uint256"
            },
            {
              "name": "cashAmountIn",
              "type": "uint256",
              "internalType": "uint256"
            },
            {
              "name": "swapFee",
              "type": "uint256",
              "internalType": "uint256"
            },
            {
              "name": "fragmentationFee",
              "type": "uint256",
              "internalType": "uint256"
            },
            {
              "name": "tenor",
              "type": "uint256",
              "internalType": "uint256"
            }
          ]
        }
      ],
      "stateMutability": "view"
    },
    {
      "type": "function",
      "name": "getCreditPosition",
      "inputs": [
        {
          "name": "creditPositionId",
          "type": "uint256",
          "internalType": "uint256"
        }
      ],
      "outputs": [
        {
          "name": "",
          "type": "tuple",
          "internalType": "struct CreditPosition",
          "components": [
            {
              "name": "lender",
              "type": "address",
              "internalType": "address"
            },
            {
              "name": "forSale",
              "type": "bool",
              "internalType": "bool"
            },
            {
              "name": "credit",
              "type": "uint256",
              "internalType": "uint256"
            },
            {
              "name": "debtPositionId",
              "type": "uint256",
              "internalType": "uint256"
            }
          ]
        }
      ],
      "stateMutability": "view"
    },
    {
      "type": "function",
      "name": "getDebtPosition",
      "inputs": [
        {
          "name": "debtPositionId",
          "type": "uint256",
          "internalType": "uint256"
        }
      ],
      "outputs": [
        {
          "name": "",
          "type": "tuple",
          "internalType": "struct DebtPosition",
          "components": [
            {
              "name": "borrower",
              "type": "address",
              "internalType": "address"
            },
            {
              "name": "futureValue",
              "type": "uint256",
              "internalType": "uint256"
            },
            {
              "name": "dueDate",
              "type": "uint256",
              "internalType": "uint256"
            },
            {
              "name": "liquidityIndexAtRepayment",
              "type": "uint256",
              "internalType": "uint256"
            }
          ]
        }
      ],
      "stateMutability": "view"
    },
    {
      "type": "function",
      "name": "getLoanOfferAPR",
      "inputs": [
        {
          "name": "user",
          "type": "address",
          "internalType": "address"
        },
        {
          "name": "collectionId",
          "type": "uint256",
          "internalType": "uint256"
        },
        {
          "name": "rateProvider",
          "type": "address",
          "internalType": "address"
        },
        {
          "name": "tenor",
          "type": "uint256",
          "internalType": "uint256"
        }
      ],
      "outputs": [
        {
          "name": "",
          "type": "uint256",
          "internalType": "uint256"
        }
      ],
      "stateMutability": "view"
    },
    {
      "type": "function",
      "name": "getRoleAdmin",
      "inputs": [
        {
          "name": "role",
          "type": "bytes32",
          "internalType": "bytes32"
        }
      ],
      "outputs": [
        {
          "name": "",
          "type": "bytes32",
          "internalType": "bytes32"
        }
      ],
      "stateMutability": "view"
    },
    {
      "type": "function",
      "name": "getSellCreditMarketSwapData",
      "inputs": [
        {
          "name": "params",
          "type": "tuple",
          "internalType": "struct SellCreditMarketParams",
          "components": [
            {
              "name": "lender",
              "type": "address",
              "internalType": "address"
            },
            {
              "name": "creditPositionId",
              "type": "uint256",
              "internalType": "uint256"
            },
            {
              "name": "amount",
              "type": "uint256",
              "internalType": "uint256"
            },
            {
              "name": "tenor",
              "type": "uint256",
              "internalType": "uint256"
            },
            {
              "name": "deadline",
              "type": "uint256",
              "internalType": "uint256"
            },
            {
              "name": "maxAPR",
              "type": "uint256",
              "internalType": "uint256"
            },
            {
              "name": "exactAmountIn",
              "type": "bool",
              "internalType": "bool"
            },
            {
              "name": "collectionId",
              "type": "uint256",
              "internalType": "uint256"
            },
            {
              "name": "rateProvider",
              "type": "address",
              "internalType": "address"
            }
          ]
        }
      ],
      "outputs": [
        {
          "name": "",
          "type": "tuple",
          "internalType": "struct SellCreditMarket.SwapDataSellCreditMarket",
          "components": [
            {
              "name": "creditPosition",
              "type": "tuple",
              "internalType": "struct CreditPosition",
              "components": [
                {
                  "name": "lender",
                  "type": "address",
                  "internalType": "address"
                },
                {
                  "name": "forSale",
                  "type": "bool",
                  "internalType": "bool"
                },
                {
                  "name": "credit",
                  "type": "uint256",
                  "internalType": "uint256"
                },
                {
                  "name": "debtPositionId",
                  "type": "uint256",
                  "internalType": "uint256"
                }
              ]
            },
            {
              "name": "creditAmountIn",
              "type": "uint256",
              "internalType": "uint256"
            },
            {
              "name": "cashAmountOut",
              "type": "uint256",
              "internalType": "uint256"
            },
            {
              "name": "swapFee",
              "type": "uint256",
              "internalType": "uint256"
            },
            {
              "name": "fragmentationFee",
              "type": "uint256",
              "internalType": "uint256"
            },
            {
              "name": "tenor",
              "type": "uint256",
              "internalType": "uint256"
            }
          ]
        }
      ],
      "stateMutability": "view"
    },
    {
      "type": "function",
      "name": "getUserDefinedBorrowOfferAPR",
      "inputs": [
        {
          "name": "borrower",
          "type": "address",
          "internalType": "address"
        },
        {
          "name": "tenor",
          "type": "uint256",
          "internalType": "uint256"
        }
      ],
      "outputs": [
        {
          "name": "",
          "type": "uint256",
          "internalType": "uint256"
        }
      ],
      "stateMutability": "view"
    },
    {
      "type": "function",
      "name": "getUserDefinedCopyBorrowOfferConfig",
      "inputs": [
        {
          "name": "user",
          "type": "address",
          "internalType": "address"
        }
      ],
      "outputs": [
        {
          "name": "",
          "type": "tuple",
          "internalType": "struct CopyLimitOrderConfig",
          "components": [
            {
              "name": "minTenor",
              "type": "uint256",
              "internalType": "uint256"
            },
            {
              "name": "maxTenor",
              "type": "uint256",
              "internalType": "uint256"
            },
            {
              "name": "minAPR",
              "type": "uint256",
              "internalType": "uint256"
            },
            {
              "name": "maxAPR",
              "type": "uint256",
              "internalType": "uint256"
            },
            {
              "name": "offsetAPR",
              "type": "int256",
              "internalType": "int256"
            }
          ]
        }
      ],
      "stateMutability": "view"
    },
    {
      "type": "function",
      "name": "getUserDefinedCopyLoanOfferConfig",
      "inputs": [
        {
          "name": "user",
          "type": "address",
          "internalType": "address"
        }
      ],
      "outputs": [
        {
          "name": "",
          "type": "tuple",
          "internalType": "struct CopyLimitOrderConfig",
          "components": [
            {
              "name": "minTenor",
              "type": "uint256",
              "internalType": "uint256"
            },
            {
              "name": "maxTenor",
              "type": "uint256",
              "internalType": "uint256"
            },
            {
              "name": "minAPR",
              "type": "uint256",
              "internalType": "uint256"
            },
            {
              "name": "maxAPR",
              "type": "uint256",
              "internalType": "uint256"
            },
            {
              "name": "offsetAPR",
              "type": "int256",
              "internalType": "int256"
            }
          ]
        }
      ],
      "stateMutability": "view"
    },
    {
      "type": "function",
      "name": "getUserDefinedLoanOfferAPR",
      "inputs": [
        {
          "name": "lender",
          "type": "address",
          "internalType": "address"
        },
        {
          "name": "tenor",
          "type": "uint256",
          "internalType": "uint256"
        }
      ],
      "outputs": [
        {
          "name": "",
          "type": "uint256",
          "internalType": "uint256"
        }
      ],
      "stateMutability": "view"
    },
    {
      "type": "function",
      "name": "getUserView",
      "inputs": [
        {
          "name": "user",
          "type": "address",
          "internalType": "address"
        }
      ],
      "outputs": [
        {
          "name": "",
          "type": "tuple",
          "internalType": "struct UserView",
          "components": [
            {
              "name": "user",
              "type": "tuple",
              "internalType": "struct User",
              "components": [
                {
                  "name": "loanOffer",
                  "type": "tuple",
                  "internalType": "struct LimitOrder",
                  "components": [
                    {
                      "name": "maxDueDate",
                      "type": "uint256",
                      "internalType": "uint256"
                    },
                    {
                      "name": "curveRelativeTime",
                      "type": "tuple",
                      "internalType": "struct YieldCurve",
                      "components": [
                        {
                          "name": "tenors",
                          "type": "uint256[]",
                          "internalType": "uint256[]"
                        },
                        {
                          "name": "aprs",
                          "type": "int256[]",
                          "internalType": "int256[]"
                        },
                        {
                          "name": "marketRateMultipliers",
                          "type": "uint256[]",
                          "internalType": "uint256[]"
                        }
                      ]
                    }
                  ]
                },
                {
                  "name": "borrowOffer",
                  "type": "tuple",
                  "internalType": "struct LimitOrder",
                  "components": [
                    {
                      "name": "maxDueDate",
                      "type": "uint256",
                      "internalType": "uint256"
                    },
                    {
                      "name": "curveRelativeTime",
                      "type": "tuple",
                      "internalType": "struct YieldCurve",
                      "components": [
                        {
                          "name": "tenors",
                          "type": "uint256[]",
                          "internalType": "uint256[]"
                        },
                        {
                          "name": "aprs",
                          "type": "int256[]",
                          "internalType": "int256[]"
                        },
                        {
                          "name": "marketRateMultipliers",
                          "type": "uint256[]",
                          "internalType": "uint256[]"
                        }
                      ]
                    }
                  ]
                },
                {
                  "name": "openingLimitBorrowCR",
                  "type": "uint256",
                  "internalType": "uint256"
                },
                {
                  "name": "allCreditPositionsForSaleDisabled",
                  "type": "bool",
                  "internalType": "bool"
                }
              ]
            },
            {
              "name": "account",
              "type": "address",
              "internalType": "address"
            },
            {
              "name": "collateralTokenBalance",
              "type": "uint256",
              "internalType": "uint256"
            },
            {
              "name": "borrowTokenBalance",
              "type": "uint256",
              "internalType": "uint256"
            },
            {
              "name": "debtBalance",
              "type": "uint256",
              "internalType": "uint256"
            }
          ]
        }
      ],
      "stateMutability": "view"
    },
    {
      "type": "function",
      "name": "grantRole",
      "inputs": [
        {
          "name": "role",
          "type": "bytes32",
          "internalType": "bytes32"
        },
        {
          "name": "account",
          "type": "address",
          "internalType": "address"
        }
      ],
      "outputs": [],
      "stateMutability": "nonpayable"
    },
    {
      "type": "function",
      "name": "hasRole",
      "inputs": [
        {
          "name": "role",
          "type": "bytes32",
          "internalType": "bytes32"
        },
        {
          "name": "account",
          "type": "address",
          "internalType": "address"
        }
      ],
      "outputs": [
        {
          "name": "",
          "type": "bool",
          "internalType": "bool"
        }
      ],
      "stateMutability": "view"
    },
    {
      "type": "function",
      "name": "initialize",
      "inputs": [
        {
          "name": "owner",
          "type": "address",
          "internalType": "address"
        },
        {
          "name": "f",
          "type": "tuple",
          "internalType": "struct InitializeFeeConfigParams",
          "components": [
            {
              "name": "swapFeeAPR",
              "type": "uint256",
              "internalType": "uint256"
            },
            {
              "name": "fragmentationFee",
              "type": "uint256",
              "internalType": "uint256"
            },
            {
              "name": "liquidationRewardPercent",
              "type": "uint256",
              "internalType": "uint256"
            },
            {
              "name": "overdueCollateralProtocolPercent",
              "type": "uint256",
              "internalType": "uint256"
            },
            {
              "name": "collateralProtocolPercent",
              "type": "uint256",
              "internalType": "uint256"
            },
            {
              "name": "feeRecipient",
              "type": "address",
              "internalType": "address"
            }
          ]
        },
        {
          "name": "r",
          "type": "tuple",
          "internalType": "struct InitializeRiskConfigParams",
          "components": [
            {
              "name": "crOpening",
              "type": "uint256",
              "internalType": "uint256"
            },
            {
              "name": "crLiquidation",
              "type": "uint256",
              "internalType": "uint256"
            },
            {
              "name": "minimumCreditBorrowToken",
              "type": "uint256",
              "internalType": "uint256"
            },
            {
              "name": "minTenor",
              "type": "uint256",
              "internalType": "uint256"
            },
            {
              "name": "maxTenor",
              "type": "uint256",
              "internalType": "uint256"
            }
          ]
        },
        {
          "name": "o",
          "type": "tuple",
          "internalType": "struct InitializeOracleParams",
          "components": [
            {
              "name": "priceFeed",
              "type": "address",
              "internalType": "address"
            },
            {
              "name": "variablePoolBorrowRateStaleRateInterval",
              "type": "uint64",
              "internalType": "uint64"
            }
          ]
        },
        {
          "name": "d",
          "type": "tuple",
          "internalType": "struct InitializeDataParams",
          "components": [
            {
              "name": "weth",
              "type": "address",
              "internalType": "address"
            },
            {
              "name": "underlyingCollateralToken",
              "type": "address",
              "internalType": "address"
            },
            {
              "name": "underlyingBorrowToken",
              "type": "address",
              "internalType": "address"
            },
            {
              "name": "variablePool",
              "type": "address",
              "internalType": "address"
            },
            {
              "name": "borrowTokenVault",
              "type": "address",
              "internalType": "address"
            },
            {
              "name": "sizeFactory",
              "type": "address",
              "internalType": "address"
            }
          ]
        }
      ],
      "outputs": [],
      "stateMutability": "nonpayable"
    },
    {
      "type": "function",
      "name": "isUserDefinedBorrowOfferNull",
      "inputs": [
        {
          "name": "user",
          "type": "address",
          "internalType": "address"
        }
      ],
      "outputs": [
        {
          "name": "",
          "type": "bool",
          "internalType": "bool"
        }
      ],
      "stateMutability": "view"
    },
    {
      "type": "function",
      "name": "isUserDefinedLoanOfferNull",
      "inputs": [
        {
          "name": "user",
          "type": "address",
          "internalType": "address"
        }
      ],
      "outputs": [
        {
          "name": "",
          "type": "bool",
          "internalType": "bool"
        }
      ],
      "stateMutability": "view"
    },
    {
      "type": "function",
      "name": "liquidate",
      "inputs": [
        {
          "name": "params",
          "type": "tuple",
          "internalType": "struct LiquidateParams",
          "components": [
            {
              "name": "debtPositionId",
              "type": "uint256",
              "internalType": "uint256"
            },
            {
              "name": "minimumCollateralProfit",
              "type": "uint256",
              "internalType": "uint256"
            },
            {
              "name": "deadline",
              "type": "uint256",
              "internalType": "uint256"
            }
          ]
        }
      ],
      "outputs": [
        {
          "name": "liquidatorProfitCollateralToken",
          "type": "uint256",
          "internalType": "uint256"
        }
      ],
      "stateMutability": "payable"
    },
    {
      "type": "function",
      "name": "liquidateWithReplacement",
      "inputs": [
        {
          "name": "params",
          "type": "tuple",
          "internalType": "struct LiquidateWithReplacementParams",
          "components": [
            {
              "name": "debtPositionId",
              "type": "uint256",
              "internalType": "uint256"
            },
            {
              "name": "borrower",
              "type": "address",
              "internalType": "address"
            },
            {
              "name": "minimumCollateralProfit",
              "type": "uint256",
              "internalType": "uint256"
            },
            {
              "name": "deadline",
              "type": "uint256",
              "internalType": "uint256"
            },
            {
              "name": "minAPR",
              "type": "uint256",
              "internalType": "uint256"
            },
            {
              "name": "collectionId",
              "type": "uint256",
              "internalType": "uint256"
            },
            {
              "name": "rateProvider",
              "type": "address",
              "internalType": "address"
            }
          ]
        }
      ],
      "outputs": [
        {
          "name": "liquidatorProfitCollateralToken",
          "type": "uint256",
          "internalType": "uint256"
        },
        {
          "name": "liquidatorProfitBorrowToken",
          "type": "uint256",
          "internalType": "uint256"
        }
      ],
      "stateMutability": "payable"
    },
    {
      "type": "function",
      "name": "multicall",
      "inputs": [
        {
          "name": "_data",
          "type": "bytes[]",
          "internalType": "bytes[]"
        }
      ],
      "outputs": [
        {
          "name": "results",
          "type": "bytes[]",
          "internalType": "bytes[]"
        }
      ],
      "stateMutability": "payable"
    },
    {
      "type": "function",
      "name": "oracle",
      "inputs": [],
      "outputs": [
        {
          "name": "",
          "type": "tuple",
          "internalType": "struct InitializeOracleParams",
          "components": [
            {
              "name": "priceFeed",
              "type": "address",
              "internalType": "address"
            },
            {
              "name": "variablePoolBorrowRateStaleRateInterval",
              "type": "uint64",
              "internalType": "uint64"
            }
          ]
        }
      ],
      "stateMutability": "view"
    },
    {
      "type": "function",
      "name": "partialRepay",
      "inputs": [
        {
          "name": "params",
          "type": "tuple",
          "internalType": "struct PartialRepayParams",
          "components": [
            {
              "name": "creditPositionWithDebtToRepayId",
              "type": "uint256",
              "internalType": "uint256"
            },
            {
              "name": "amount",
              "type": "uint256",
              "internalType": "uint256"
            },
            {
              "name": "borrower",
              "type": "address",
              "internalType": "address"
            }
          ]
        }
      ],
      "outputs": [],
      "stateMutability": "payable"
    },
    {
      "type": "function",
      "name": "pause",
      "inputs": [],
      "outputs": [],
      "stateMutability": "nonpayable"
    },
    {
      "type": "function",
      "name": "paused",
      "inputs": [],
      "outputs": [
        {
          "name": "",
          "type": "bool",
          "internalType": "bool"
        }
      ],
      "stateMutability": "view"
    },
    {
      "type": "function",
      "name": "proxiableUUID",
      "inputs": [],
      "outputs": [
        {
          "name": "",
          "type": "bytes32",
          "internalType": "bytes32"
        }
      ],
      "stateMutability": "view"
    },
    {
      "type": "function",
      "name": "reinitialize",
      "inputs": [],
      "outputs": [],
      "stateMutability": "nonpayable"
    },
    {
      "type": "function",
      "name": "renounceRole",
      "inputs": [
        {
          "name": "role",
          "type": "bytes32",
          "internalType": "bytes32"
        },
        {
          "name": "callerConfirmation",
          "type": "address",
          "internalType": "address"
        }
      ],
      "outputs": [],
      "stateMutability": "nonpayable"
    },
    {
      "type": "function",
      "name": "repay",
      "inputs": [
        {
          "name": "params",
          "type": "tuple",
          "internalType": "struct RepayParams",
          "components": [
            {
              "name": "debtPositionId",
              "type": "uint256",
              "internalType": "uint256"
            },
            {
              "name": "borrower",
              "type": "address",
              "internalType": "address"
            }
          ]
        }
      ],
      "outputs": [],
      "stateMutability": "payable"
    },
    {
      "type": "function",
      "name": "revokeRole",
      "inputs": [
        {
          "name": "role",
          "type": "bytes32",
          "internalType": "bytes32"
        },
        {
          "name": "account",
          "type": "address",
          "internalType": "address"
        }
      ],
      "outputs": [],
      "stateMutability": "nonpayable"
    },
    {
      "type": "function",
      "name": "riskConfig",
      "inputs": [],
      "outputs": [
        {
          "name": "",
          "type": "tuple",
          "internalType": "struct InitializeRiskConfigParams",
          "components": [
            {
              "name": "crOpening",
              "type": "uint256",
              "internalType": "uint256"
            },
            {
              "name": "crLiquidation",
              "type": "uint256",
              "internalType": "uint256"
            },
            {
              "name": "minimumCreditBorrowToken",
              "type": "uint256",
              "internalType": "uint256"
            },
            {
              "name": "minTenor",
              "type": "uint256",
              "internalType": "uint256"
            },
            {
              "name": "maxTenor",
              "type": "uint256",
              "internalType": "uint256"
            }
          ]
        }
      ],
      "stateMutability": "view"
    },
    {
      "type": "function",
      "name": "selfLiquidate",
      "inputs": [
        {
          "name": "params",
          "type": "tuple",
          "internalType": "struct SelfLiquidateParams",
          "components": [
            {
              "name": "creditPositionId",
              "type": "uint256",
              "internalType": "uint256"
            }
          ]
        }
      ],
      "outputs": [],
      "stateMutability": "payable"
    },
    {
      "type": "function",
      "name": "selfLiquidateOnBehalfOf",
      "inputs": [
        {
          "name": "externalParams",
          "type": "tuple",
          "internalType": "struct SelfLiquidateOnBehalfOfParams",
          "components": [
            {
              "name": "params",
              "type": "tuple",
              "internalType": "struct SelfLiquidateParams",
              "components": [
                {
                  "name": "creditPositionId",
                  "type": "uint256",
                  "internalType": "uint256"
                }
              ]
            },
            {
              "name": "onBehalfOf",
              "type": "address",
              "internalType": "address"
            },
            {
              "name": "recipient",
              "type": "address",
              "internalType": "address"
            }
          ]
        }
      ],
      "outputs": [],
      "stateMutability": "payable"
    },
    {
      "type": "function",
      "name": "sellCreditLimit",
      "inputs": [
        {
          "name": "params",
          "type": "tuple",
          "internalType": "struct SellCreditLimitParams",
          "components": [
            {
              "name": "maxDueDate",
              "type": "uint256",
              "internalType": "uint256"
            },
            {
              "name": "curveRelativeTime",
              "type": "tuple",
              "internalType": "struct YieldCurve",
              "components": [
                {
                  "name": "tenors",
                  "type": "uint256[]",
                  "internalType": "uint256[]"
                },
                {
                  "name": "aprs",
                  "type": "int256[]",
                  "internalType": "int256[]"
                },
                {
                  "name": "marketRateMultipliers",
                  "type": "uint256[]",
                  "internalType": "uint256[]"
                }
              ]
            }
          ]
        }
      ],
      "outputs": [],
      "stateMutability": "payable"
    },
    {
      "type": "function",
      "name": "sellCreditLimitOnBehalfOf",
      "inputs": [
        {
          "name": "externalParams",
          "type": "tuple",
          "internalType": "struct SellCreditLimitOnBehalfOfParams",
          "components": [
            {
              "name": "params",
              "type": "tuple",
              "internalType": "struct SellCreditLimitParams",
              "components": [
                {
                  "name": "maxDueDate",
                  "type": "uint256",
                  "internalType": "uint256"
                },
                {
                  "name": "curveRelativeTime",
                  "type": "tuple",
                  "internalType": "struct YieldCurve",
                  "components": [
                    {
                      "name": "tenors",
                      "type": "uint256[]",
                      "internalType": "uint256[]"
                    },
                    {
                      "name": "aprs",
                      "type": "int256[]",
                      "internalType": "int256[]"
                    },
                    {
                      "name": "marketRateMultipliers",
                      "type": "uint256[]",
                      "internalType": "uint256[]"
                    }
                  ]
                }
              ]
            },
            {
              "name": "onBehalfOf",
              "type": "address",
              "internalType": "address"
            }
          ]
        }
      ],
      "outputs": [],
      "stateMutability": "payable"
    },
    {
      "type": "function",
      "name": "sellCreditMarket",
      "inputs": [
        {
          "name": "params",
          "type": "tuple",
          "internalType": "struct SellCreditMarketParams",
          "components": [
            {
              "name": "lender",
              "type": "address",
              "internalType": "address"
            },
            {
              "name": "creditPositionId",
              "type": "uint256",
              "internalType": "uint256"
            },
            {
              "name": "amount",
              "type": "uint256",
              "internalType": "uint256"
            },
            {
              "name": "tenor",
              "type": "uint256",
              "internalType": "uint256"
            },
            {
              "name": "deadline",
              "type": "uint256",
              "internalType": "uint256"
            },
            {
              "name": "maxAPR",
              "type": "uint256",
              "internalType": "uint256"
            },
            {
              "name": "exactAmountIn",
              "type": "bool",
              "internalType": "bool"
            },
            {
              "name": "collectionId",
              "type": "uint256",
              "internalType": "uint256"
            },
            {
              "name": "rateProvider",
              "type": "address",
              "internalType": "address"
            }
          ]
        }
      ],
      "outputs": [],
      "stateMutability": "payable"
    },
    {
      "type": "function",
      "name": "sellCreditMarketOnBehalfOf",
      "inputs": [
        {
          "name": "externalParams",
          "type": "tuple",
          "internalType": "struct SellCreditMarketOnBehalfOfParams",
          "components": [
            {
              "name": "params",
              "type": "tuple",
              "internalType": "struct SellCreditMarketParams",
              "components": [
                {
                  "name": "lender",
                  "type": "address",
                  "internalType": "address"
                },
                {
                  "name": "creditPositionId",
                  "type": "uint256",
                  "internalType": "uint256"
                },
                {
                  "name": "amount",
                  "type": "uint256",
                  "internalType": "uint256"
                },
                {
                  "name": "tenor",
                  "type": "uint256",
                  "internalType": "uint256"
                },
                {
                  "name": "deadline",
                  "type": "uint256",
                  "internalType": "uint256"
                },
                {
                  "name": "maxAPR",
                  "type": "uint256",
                  "internalType": "uint256"
                },
                {
                  "name": "exactAmountIn",
                  "type": "bool",
                  "internalType": "bool"
                },
                {
                  "name": "collectionId",
                  "type": "uint256",
                  "internalType": "uint256"
                },
                {
                  "name": "rateProvider",
                  "type": "address",
                  "internalType": "address"
                }
              ]
            },
            {
              "name": "onBehalfOf",
              "type": "address",
              "internalType": "address"
            },
            {
              "name": "recipient",
              "type": "address",
              "internalType": "address"
            }
          ]
        }
      ],
      "outputs": [],
      "stateMutability": "payable"
    },
    {
      "type": "function",
      "name": "setCopyLimitOrderConfigs",
      "inputs": [
        {
          "name": "params",
          "type": "tuple",
          "internalType": "struct SetCopyLimitOrderConfigsParams",
          "components": [
            {
              "name": "copyLoanOfferConfig",
              "type": "tuple",
              "internalType": "struct CopyLimitOrderConfig",
              "components": [
                {
                  "name": "minTenor",
                  "type": "uint256",
                  "internalType": "uint256"
                },
                {
                  "name": "maxTenor",
                  "type": "uint256",
                  "internalType": "uint256"
                },
                {
                  "name": "minAPR",
                  "type": "uint256",
                  "internalType": "uint256"
                },
                {
                  "name": "maxAPR",
                  "type": "uint256",
                  "internalType": "uint256"
                },
                {
                  "name": "offsetAPR",
                  "type": "int256",
                  "internalType": "int256"
                }
              ]
            },
            {
              "name": "copyBorrowOfferConfig",
              "type": "tuple",
              "internalType": "struct CopyLimitOrderConfig",
              "components": [
                {
                  "name": "minTenor",
                  "type": "uint256",
                  "internalType": "uint256"
                },
                {
                  "name": "maxTenor",
                  "type": "uint256",
                  "internalType": "uint256"
                },
                {
                  "name": "minAPR",
                  "type": "uint256",
                  "internalType": "uint256"
                },
                {
                  "name": "maxAPR",
                  "type": "uint256",
                  "internalType": "uint256"
                },
                {
                  "name": "offsetAPR",
                  "type": "int256",
                  "internalType": "int256"
                }
              ]
            }
          ]
        }
      ],
      "outputs": [],
      "stateMutability": "payable"
    },
    {
      "type": "function",
      "name": "setCopyLimitOrderConfigsOnBehalfOf",
      "inputs": [
        {
          "name": "externalParams",
          "type": "tuple",
          "internalType": "struct SetCopyLimitOrderConfigsOnBehalfOfParams",
          "components": [
            {
              "name": "params",
              "type": "tuple",
              "internalType": "struct SetCopyLimitOrderConfigsParams",
              "components": [
                {
                  "name": "copyLoanOfferConfig",
                  "type": "tuple",
                  "internalType": "struct CopyLimitOrderConfig",
                  "components": [
                    {
                      "name": "minTenor",
                      "type": "uint256",
                      "internalType": "uint256"
                    },
                    {
                      "name": "maxTenor",
                      "type": "uint256",
                      "internalType": "uint256"
                    },
                    {
                      "name": "minAPR",
                      "type": "uint256",
                      "internalType": "uint256"
                    },
                    {
                      "name": "maxAPR",
                      "type": "uint256",
                      "internalType": "uint256"
                    },
                    {
                      "name": "offsetAPR",
                      "type": "int256",
                      "internalType": "int256"
                    }
                  ]
                },
                {
                  "name": "copyBorrowOfferConfig",
                  "type": "tuple",
                  "internalType": "struct CopyLimitOrderConfig",
                  "components": [
                    {
                      "name": "minTenor",
                      "type": "uint256",
                      "internalType": "uint256"
                    },
                    {
                      "name": "maxTenor",
                      "type": "uint256",
                      "internalType": "uint256"
                    },
                    {
                      "name": "minAPR",
                      "type": "uint256",
                      "internalType": "uint256"
                    },
                    {
                      "name": "maxAPR",
                      "type": "uint256",
                      "internalType": "uint256"
                    },
                    {
                      "name": "offsetAPR",
                      "type": "int256",
                      "internalType": "int256"
                    }
                  ]
                }
              ]
            },
            {
              "name": "onBehalfOf",
              "type": "address",
              "internalType": "address"
            }
          ]
        }
      ],
      "outputs": [],
      "stateMutability": "payable"
    },
    {
      "type": "function",
      "name": "setUserConfiguration",
      "inputs": [
        {
          "name": "params",
          "type": "tuple",
          "internalType": "struct SetUserConfigurationParams",
          "components": [
            {
              "name": "openingLimitBorrowCR",
              "type": "uint256",
              "internalType": "uint256"
            },
            {
              "name": "allCreditPositionsForSaleDisabled",
              "type": "bool",
              "internalType": "bool"
            },
            {
              "name": "creditPositionIdsForSale",
              "type": "bool",
              "internalType": "bool"
            },
            {
              "name": "creditPositionIds",
              "type": "uint256[]",
              "internalType": "uint256[]"
            }
          ]
        }
      ],
      "outputs": [],
      "stateMutability": "payable"
    },
    {
      "type": "function",
      "name": "setUserConfigurationOnBehalfOf",
      "inputs": [
        {
          "name": "externalParams",
          "type": "tuple",
          "internalType": "struct SetUserConfigurationOnBehalfOfParams",
          "components": [
            {
              "name": "params",
              "type": "tuple",
              "internalType": "struct SetUserConfigurationParams",
              "components": [
                {
                  "name": "openingLimitBorrowCR",
                  "type": "uint256",
                  "internalType": "uint256"
                },
                {
                  "name": "allCreditPositionsForSaleDisabled",
                  "type": "bool",
                  "internalType": "bool"
                },
                {
                  "name": "creditPositionIdsForSale",
                  "type": "bool",
                  "internalType": "bool"
                },
                {
                  "name": "creditPositionIds",
                  "type": "uint256[]",
                  "internalType": "uint256[]"
                }
              ]
            },
            {
              "name": "onBehalfOf",
              "type": "address",
              "internalType": "address"
            }
          ]
        }
      ],
      "outputs": [],
      "stateMutability": "payable"
    },
    {
      "type": "function",
      "name": "setVault",
      "inputs": [
        {
          "name": "params",
          "type": "tuple",
          "internalType": "struct SetVaultParams",
          "components": [
            {
              "name": "vault",
              "type": "address",
              "internalType": "address"
            },
            {
              "name": "forfeitOldShares",
              "type": "bool",
              "internalType": "bool"
            }
          ]
        }
      ],
      "outputs": [],
      "stateMutability": "payable"
    },
    {
      "type": "function",
      "name": "setVaultOnBehalfOf",
      "inputs": [
        {
          "name": "externalParams",
          "type": "tuple",
          "internalType": "struct SetVaultOnBehalfOfParams",
          "components": [
            {
              "name": "params",
              "type": "tuple",
              "internalType": "struct SetVaultParams",
              "components": [
                {
                  "name": "vault",
                  "type": "address",
                  "internalType": "address"
                },
                {
                  "name": "forfeitOldShares",
                  "type": "bool",
                  "internalType": "bool"
                }
              ]
            },
            {
              "name": "onBehalfOf",
              "type": "address",
              "internalType": "address"
            }
          ]
        }
      ],
      "outputs": [],
      "stateMutability": "payable"
    },
    {
      "type": "function",
      "name": "supportsInterface",
      "inputs": [
        {
          "name": "interfaceId",
          "type": "bytes4",
          "internalType": "bytes4"
        }
      ],
      "outputs": [
        {
          "name": "",
          "type": "bool",
          "internalType": "bool"
        }
      ],
      "stateMutability": "view"
    },
    {
      "type": "function",
      "name": "unpause",
      "inputs": [],
      "outputs": [],
      "stateMutability": "nonpayable"
    },
    {
      "type": "function",
      "name": "updateConfig",
      "inputs": [
        {
          "name": "params",
          "type": "tuple",
          "internalType": "struct UpdateConfigParams",
          "components": [
            {
              "name": "key",
              "type": "string",
              "internalType": "string"
            },
            {
              "name": "value",
              "type": "uint256",
              "internalType": "uint256"
            }
          ]
        }
      ],
      "outputs": [],
      "stateMutability": "nonpayable"
    },
    {
      "type": "function",
      "name": "upgradeToAndCall",
      "inputs": [
        {
          "name": "newImplementation",
          "type": "address",
          "internalType": "address"
        },
        {
          "name": "data",
          "type": "bytes",
          "internalType": "bytes"
        }
      ],
      "outputs": [],
      "stateMutability": "payable"
    },
    {
      "type": "function",
      "name": "version",
      "inputs": [],
      "outputs": [
        {
          "name": "",
          "type": "string",
          "internalType": "string"
        }
      ],
      "stateMutability": "pure"
    },
    {
      "type": "function",
      "name": "withdraw",
      "inputs": [
        {
          "name": "params",
          "type": "tuple",
          "internalType": "struct WithdrawParams",
          "components": [
            {
              "name": "token",
              "type": "address",
              "internalType": "address"
            },
            {
              "name": "amount",
              "type": "uint256",
              "internalType": "uint256"
            },
            {
              "name": "to",
              "type": "address",
              "internalType": "address"
            }
          ]
        }
      ],
      "outputs": [],
      "stateMutability": "payable"
    },
    {
      "type": "function",
      "name": "withdrawOnBehalfOf",
      "inputs": [
        {
          "name": "externalParams",
          "type": "tuple",
          "internalType": "struct WithdrawOnBehalfOfParams",
          "components": [
            {
              "name": "params",
              "type": "tuple",
              "internalType": "struct WithdrawParams",
              "components": [
                {
                  "name": "token",
                  "type": "address",
                  "internalType": "address"
                },
                {
                  "name": "amount",
                  "type": "uint256",
                  "internalType": "uint256"
                },
                {
                  "name": "to",
                  "type": "address",
                  "internalType": "address"
                }
              ]
            },
            {
              "name": "onBehalfOf",
              "type": "address",
              "internalType": "address"
            }
          ]
        }
      ],
      "outputs": [],
      "stateMutability": "payable"
    },
    {
      "type": "event",
      "name": "Initialized",
      "inputs": [
        {
          "name": "version",
          "type": "uint64",
          "indexed": false,
          "internalType": "uint64"
        }
      ],
      "anonymous": false
    },
    {
      "type": "event",
      "name": "Paused",
      "inputs": [
        {
          "name": "account",
          "type": "address",
          "indexed": false,
          "internalType": "address"
        }
      ],
      "anonymous": false
    },
    {
      "type": "event",
      "name": "RoleAdminChanged",
      "inputs": [
        {
          "name": "role",
          "type": "bytes32",
          "indexed": true,
          "internalType": "bytes32"
        },
        {
          "name": "previousAdminRole",
          "type": "bytes32",
          "indexed": true,
          "internalType": "bytes32"
        },
        {
          "name": "newAdminRole",
          "type": "bytes32",
          "indexed": true,
          "internalType": "bytes32"
        }
      ],
      "anonymous": false
    },
    {
      "type": "event",
      "name": "RoleGranted",
      "inputs": [
        {
          "name": "role",
          "type": "bytes32",
          "indexed": true,
          "internalType": "bytes32"
        },
        {
          "name": "account",
          "type": "address",
          "indexed": true,
          "internalType": "address"
        },
        {
          "name": "sender",
          "type": "address",
          "indexed": true,
          "internalType": "address"
        }
      ],
      "anonymous": false
    },
    {
      "type": "event",
      "name": "RoleRevoked",
      "inputs": [
        {
          "name": "role",
          "type": "bytes32",
          "indexed": true,
          "internalType": "bytes32"
        },
        {
          "name": "account",
          "type": "address",
          "indexed": true,
          "internalType": "address"
        },
        {
          "name": "sender",
          "type": "address",
          "indexed": true,
          "internalType": "address"
        }
      ],
      "anonymous": false
    },
    {
      "type": "event",
      "name": "Unpaused",
      "inputs": [
        {
          "name": "account",
          "type": "address",
          "indexed": false,
          "internalType": "address"
        }
      ],
      "anonymous": false
    },
    {
      "type": "event",
      "name": "Upgraded",
      "inputs": [
        {
          "name": "implementation",
          "type": "address",
          "indexed": true,
          "internalType": "address"
        }
      ],
      "anonymous": false
    },
    {
      "type": "error",
      "name": "AccessControlBadConfirmation",
      "inputs": []
    },
    {
      "type": "error",
      "name": "AccessControlUnauthorizedAccount",
      "inputs": [
        {
          "name": "account",
          "type": "address",
          "internalType": "address"
        },
        {
          "name": "neededRole",
          "type": "bytes32",
          "internalType": "bytes32"
        }
      ]
    },
    {
      "type": "error",
      "name": "AddressEmptyCode",
      "inputs": [
        {
          "name": "target",
          "type": "address",
          "internalType": "address"
        }
      ]
    },
    {
      "type": "error",
      "name": "DUE_DATE_GREATER_THAN_MAX_DUE_DATE",
      "inputs": [
        {
          "name": "dueDate",
          "type": "uint256",
          "internalType": "uint256"
        },
        {
          "name": "maxDueDate",
          "type": "uint256",
          "internalType": "uint256"
        }
      ]
    },
    {
      "type": "error",
      "name": "ERC1967InvalidImplementation",
      "inputs": [
        {
          "name": "implementation",
          "type": "address",
          "internalType": "address"
        }
      ]
    },
    {
      "type": "error",
      "name": "ERC1967NonPayable",
      "inputs": []
    },
    {
      "type": "error",
      "name": "EnforcedPause",
      "inputs": []
    },
    {
      "type": "error",
      "name": "ExpectedPause",
      "inputs": []
    },
    {
      "type": "error",
      "name": "FailedCall",
      "inputs": []
    },
    {
      "type": "error",
      "name": "INVALID_OFFER",
      "inputs": [
        {
          "name": "account",
          "type": "address",
          "internalType": "address"
        }
      ]
    },
    {
      "type": "error",
      "name": "InvalidInitialization",
      "inputs": []
    },
    {
      "type": "error",
      "name": "MUST_IMPROVE_COLLATERAL_RATIO",
      "inputs": [
        {
          "name": "account",
          "type": "address",
          "internalType": "address"
        },
        {
          "name": "crBefore",
          "type": "uint256",
          "internalType": "uint256"
        },
        {
          "name": "crAfter",
          "type": "uint256",
          "internalType": "uint256"
        }
      ]
    },
    {
      "type": "error",
      "name": "NULL_TENOR",
      "inputs": []
    },
    {
      "type": "error",
      "name": "NotInitializing",
      "inputs": []
    },
    {
      "type": "error",
      "name": "ReentrancyGuardReentrantCall",
      "inputs": []
    },
    {
      "type": "error",
      "name": "UUPSUnauthorizedCallContext",
      "inputs": []
    },
    {
      "type": "error",
      "name": "UUPSUnsupportedProxiableUUID",
      "inputs": [
        {
          "name": "slot",
          "type": "bytes32",
          "internalType": "bytes32"
        }
      ]
    }
  ],
  "bytecode": {
    "object": "0x60a06040523060805234801562000014575f80fd5b506200001f62000025565b620000d9565b7ff0c57e16840df040f15088dc2f81fe391c3923bec73e23a9662efc9c229c6a00805468010000000000000000900460ff1615620000765760405163f92ee8a960e01b815260040160405180910390fd5b80546001600160401b0390811614620000d65780546001600160401b0319166001600160401b0390811782556040519081527fc7f505b2f371ae2175ee4913f4499e1f2633a7b5936321eed1cdaeb6115181d29060200160405180910390a15b50565b608051615fd0620001005f395f8181613ad301528181613afc0152613c640152615fd05ff3fe6080604052600436106103b3575f3560e01c80636c2eb350116101e9578063ac9650d811610108578063d927acef1161009d578063f45bf01c1161006d578063f45bf01c14610c2a578063f54ae18b14610c3d578063fa823af514610c50578063fd17174a14610c63575f80fd5b8063d927acef14610bbd578063e05001f514610be5578063e236052b14610bf8578063f1bf35c314610c0b575f80fd5b8063ca40742c116100d8578063ca40742c14610b59578063cb2e9bdc14610b78578063ccd8d4d114610b8b578063d547741f14610b9e575f80fd5b8063ac9650d814610a8f578063ad3cb1cc14610aaf578063b5ec748714610adf578063c421a75914610b3a575f80fd5b80637f417c061161017e5780638ea68d7e1161014e5780638ea68d7e14610a1e57806391d1485414610a315780639ab8011514610a50578063a217fddf14610a7c575f80fd5b80637f417c06146109d1578063834dafb5146109e45780638456cb59146109f75780638e57277614610a0b575f80fd5b806376c1b82f116101b957806376c1b82f146108fc5780637a32376a146109285780637c90a6ca1461093b5780637dc0d1d014610990575f80fd5b80636c2eb3501461079257806373b683be146107a657806373d4a13a146107c557806375829a36146108e9575f80fd5b80632f2ff15d116102d55780634fd9a8a51161026a57806353e043d41161023a57806353e043d4146106f957806354fd4d501461070c5780635c975abb146107435780635cbc51eb14610766575f80fd5b80634fd9a8a5146106ac578063510aeb39146106bf57806352d1902d146106d2578063536b9c79146106e6575f80fd5b80633ae6d7c3116102a55780633ae6d7c3146106535780633f4ba83a1461066657806344ce7c301461067a5780634f1ef28614610699575f80fd5b80632f2ff15d146105ef57806336568abe1461060e5780633746f8581461062d5780633962a68614610640575f80fd5b8063134f3f961161034b578063248a9ca31161031b578063248a9ca31461058b5780632b4c9a20146105aa5780632b59bd99146105bd5780632e106f21146105dc575f80fd5b8063134f3f96146104d65780631970e5ea146104e95780631e5eb1d0146105085780631ff75b0b1461056c575f80fd5b806304c842221161038657806304c842221461044b5780630cf8542f146104775780630cfa9a491461048a5780630d37ab00146104a9575f80fd5b806301ffc9a7146103b757806302088c51146103eb57806302f2855a146104175780630317b9df1461042c575b5f80fd5b3480156103c2575f80fd5b506103d66103d1366004614390565b610c76565b60405190151581526020015b60405180910390f35b3480156103f6575f80fd5b5061040a610405366004614590565b610cac565b6040516103e291906145d9565b61042a61042536600461464e565b610d2d565b005b348015610437575f80fd5b5061042a610446366004614678565b610e20565b348015610456575f80fd5b5061046a6104653660046146a9565b610f24565b6040516103e291906146c4565b61042a61048536600461464e565b610fab565b348015610495575f80fd5b506103d66104a43660046146a9565b610fd8565b3480156104b4575f80fd5b506104c86104c33660046146fd565b611119565b6040519081526020016103e2565b61042a6104e4366004614829565b61112c565b3480156104f4575f80fd5b506104c86105033660046148a7565b6111da565b348015610513575f80fd5b5061051c6111e5565b6040516103e29190815181526020808301519082015260408083015190820152606080830151908201526080808301519082015260a0918201516001600160a01b03169181019190915260c00190565b348015610577575f80fd5b506104c86105863660046148be565b611297565b348015610596575f80fd5b506104c86105a53660046148a7565b61133a565b61042a6105b836600461464e565b61135a565b3480156105c8575f80fd5b506104c86105d73660046146fd565b611387565b61042a6105ea366004614903565b611393565b3480156105fa575f80fd5b5061042a610609366004614939565b6113b9565b348015610619575f80fd5b5061042a610628366004614939565b6113db565b61042a61063b366004614678565b611413565b61042a61064e3660046149bc565b611439565b61042a610661366004614a0f565b611584565b348015610671575f80fd5b5061042a6117c0565b348015610685575f80fd5b506103d66106943660046146a9565b611819565b61042a6106a7366004614a4d565b61194c565b61042a6106ba366004614c58565b61196b565b61042a6106cd366004614c89565b611a19565b3480156106dd575f80fd5b506104c8611a46565b61042a6106f4366004614ce2565b611a61565b61042a610707366004614c58565b611b5a565b348015610717575f80fd5b5060408051808201909152600681526576312e382e3160d01b60208201525b6040516103e29190614d80565b34801561074e575f80fd5b505f80516020615f5b8339815191525460ff166103d6565b348015610771575f80fd5b506107856107803660046146a9565b611c08565b6040516103e29190614e60565b34801561079d575f80fd5b5061042a61204b565b3480156107b1575f80fd5b506104c86107c03660046148be565b61211b565b3480156107d0575f80fd5b5061087860408051610100810182525f80825260208201819052918101829052606081018290526080810182905260a0810182905260c0810182905260e0810191909152506040805161010081018252601154815260125460208201526014546001600160a01b03908116928201929092526015548216606082015260165482166080820152601a54821660a0820152601854821660c082015260195490911660e082015290565b604080518251815260208084015190820152828201516001600160a01b039081169282019290925260608084015183169082015260808084015183169082015260a08084015183169082015260c08084015183169082015260e09283015190911691810191909152610100016103e2565b61042a6108f7366004614f37565b61217a565b348015610907575f80fd5b5061091b6109163660046148a7565b612273565b6040516103e29190614f69565b61042a610936366004614ff7565b612339565b348015610946575f80fd5b5061094f6123e7565b6040516103e291905f60a082019050825182526020830151602083015260408301516040830152606083015160608301526080830151608083015292915050565b34801561099b575f80fd5b506109a4612485565b6040805182516001600160a01b031681526020928301516001600160401b031692810192909252016103e2565b61042a6109df366004614c89565b612508565b61042a6109f23660046149bc565b6125b4565b348015610a02575f80fd5b5061042a6126e7565b61042a610a1936600461464e565b612740565b61042a610a2c366004614590565b61276d565b348015610a3c575f80fd5b506103d6610a4b366004614939565b6127a2565b348015610a5b575f80fd5b50610a6f610a6a366004614590565b6127d8565b6040516103e2919061502b565b348015610a87575f80fd5b506104c85f81565b610aa2610a9d366004615077565b612859565b6040516103e291906150e5565b348015610aba575f80fd5b50610736604051806040016040528060058152602001640352e302e360dc1b81525081565b348015610aea575f80fd5b50610afe610af93660046148a7565b61286e565b6040516103e2919081516001600160a01b0316815260208083015190820152604080830151908201526060918201519181019190915260800190565b348015610b45575f80fd5b5061046a610b543660046146a9565b612954565b348015610b64575f80fd5b506104c8610b733660046146a9565b6129db565b61042a610b86366004615147565b612a5e565b61042a610b99366004614678565b612a8b565b348015610ba9575f80fd5b5061042a610bb8366004614939565b612ab1565b610bd0610bcb366004615158565b612acd565b604080519283526020830191909152016103e2565b6104c8610bf336600461464e565b612d18565b61042a610c06366004615168565b612e86565b348015610c16575f80fd5b5061042a610c25366004615189565b612eba565b61042a610c3836600461520d565b613132565b61042a610c4b36600461529a565b6131e5565b61042a610c5e36600461529a565b613293565b61042a610c7136600461520d565b613341565b5f6001600160e01b03198216637965db0b60e01b1480610ca657506301ffc9a760e01b6001600160e01b03198316145b92915050565b610cb461423d565b604051631c81982560e11b815273__$909b104b05b98ab9b02bd00c4a2f54926d$__90633903304a90610ced905f908690600401615323565b61014060405180830381865af4158015610d09573d5f803e3d5ffd5b505050506040513d601f19601f82011682018060405250810190610ca6919061538e565b610d35613375565b610d3d6133ac565b604051635fed4de960e01b815273__$1ffb1d284a100711dc8ce94ffbdfd13eea$__90635fed4de990610d76905f908590600401615423565b5f6040518083038186803b158015610d8c575f80fd5b505af4158015610d9e573d5f803e3d5ffd5b505060405163d96aec4360e01b815273__$1ffb1d284a100711dc8ce94ffbdfd13eea$__925063d96aec439150610ddb905f908590600401615423565b5f6040518083038186803b158015610df1575f80fd5b505af4158015610e03573d5f803e3d5ffd5b50505050610e1d60015f80516020615f7b83398151915255565b50565b5f610e2b81336133f1565b610e565760405163e2517d3f60e01b8152336004820152602481018290526044015b60405180910390fd5b60405163e57980dd60e01b815273__$72c16261390208f563094e6a4fc9f74031$__9063e57980dd90610e8f905f908690600401615465565b5f6040518083038186803b158015610ea5575f80fd5b505af4158015610eb7573d5f803e3d5ffd5b5050604051634752b3b360e01b815273__$72c16261390208f563094e6a4fc9f74031$__9250634752b3b39150610ef4905f908690600401615465565b5f6040518083038186803b158015610f0a575f80fd5b505af4158015610f1c573d5f803e3d5ffd5b505050505050565b610f516040518060a001604052805f81526020015f81526020015f81526020015f81526020015f81525090565b506001600160a01b03165f908152601b6020908152604091829020825160a0810184526001820154815260028201549281019290925260038101549282019290925260048201546060820152600590910154608082015290565b610e1d604051806040016040528083803603810190610fca91906154e9565b815233602090910152613293565b6001600160a01b0381165f908152600e6020908152604080832081518083018352600482018054825283516005909301805460808188028601810190965260608501818152610ca6979496939594870194938492849184018282801561105b57602002820191905f5260205f20905b815481526020019060010190808311611047575b50505050508152602001600182018054806020026020016040519081016040528092919081815260200182805480156110b157602002820191905f5260205f20905b81548152602001906001019080831161109d575b505050505081526020016002820180548060200260200160405190810160405280929190818152602001828054801561110757602002820191905f5260205f20905b8154815260200190600101908083116110f3575b5050505050815250508152505061349a565b5f6111258184846134b3565b9392505050565b611134613375565b61113c6133ac565b6040516333d4ade560e01b815273__$f56cb86c34e0dd0dca51f5a3538433e18c$__906333d4ade590611175905f908590600401615503565b5f6040518083038186803b15801561118b575f80fd5b505af415801561119d573d5f803e3d5ffd5b505060405163178bcac760e11b815273__$f56cb86c34e0dd0dca51f5a3538433e18c$__9250632f17958e9150610ddb905f908590600401615503565b5f610ca68183613601565b6112216040518060c001604052805f81526020015f81526020015f81526020015f81526020015f81526020015f6001600160a01b031681525090565b6040516386617e7760e01b81525f600482015273__$72c16261390208f563094e6a4fc9f74031$__906386617e779060240160c060405180830381865af415801561126e573d5f803e3d5ffd5b505050506040513d601f19601f820116820180604052508101906112929190615573565b905090565b60405163897bce1f60e01b81525f600482018190526001600160a01b0380871660248401526044830186905284166064830152608482018390529073__$fad1da84a532053b53119316a58e977f10$__9063897bce1f9060a4015b602060405180830381865af415801561130d573d5f803e3d5ffd5b505050506040513d601f19601f8201168201806040525081019061133191906155d1565b95945050505050565b5f9081525f80516020615f3b833981519152602052604090206001015490565b610e1d60405180604001604052808380360381019061137991906154e9565b8152336020909101526131e5565b5f611125818484613801565b610e1d6040518060400160405280836113ab906155e8565b81523360209091015261112c565b6113c28261133a565b6113cb81613945565b6113d5838361394f565b50505050565b6001600160a01b03811633146114045760405163334bd91960e11b815260040160405180910390fd5b61140e82826139f0565b505050565b610e1d60405180604001604052808361142b906155f3565b815233602090910152611b5a565b611441613375565b6114496133ac565b60405163160b9e6b60e31b815273__$c58e2605104bb31274ad8c04841b6a7550$__9063b05cf35890611482905f90859060040161562f565b5f6040518083038186803b158015611498575f80fd5b505af41580156114aa573d5f803e3d5ffd5b5050604051639f46aa4160e01b815273__$c58e2605104bb31274ad8c04841b6a7550$__9250639f46aa4191506114e7905f90859060040161562f565b5f6040518083038186803b1580156114fd575f80fd5b505af415801561150f573d5f803e3d5ffd5b505050505f19815f0151602001510361156e5760208101516040516316bbd7db60e11b81525f60048201526001600160a01b03909116602482015273__$b44e0fdf2f6bdeffc1681a5a467d23dde6$__90632d77afb690604401610ddb565b610e1d60015f80516020615f7b83398151915255565b61158c613375565b6115946133ac565b602081015160405163046dbd1360e11b81525f600482018190526001600160a01b03831660248301529073__$b44e0fdf2f6bdeffc1681a5a467d23dde6$__906308db7a2690604401602060405180830381865af41580156115f8573d5f803e3d5ffd5b505050506040513d601f19601f8201168201806040525081019061161c91906155d1565b60405163f9c417bd60e01b815290915073__$7fa168b5d238863382c2bf886894022425$__9063f9c417bd90611658905f908790600401615644565b5f6040518083038186803b15801561166e575f80fd5b505af4158015611680573d5f803e3d5ffd5b5050604051634971bf9960e01b815273__$7fa168b5d238863382c2bf886894022425$__9250634971bf9991506116bd905f908790600401615644565b5f6040518083038186803b1580156116d3575f80fd5b505af41580156116e5573d5f803e3d5ffd5b505060405163046dbd1360e11b81525f600482018190526001600160a01b0386166024830152925073__$b44e0fdf2f6bdeffc1681a5a467d23dde6$__91506308db7a2690604401602060405180830381865af4158015611748573d5f803e3d5ffd5b505050506040513d601f19601f8201168201806040525081019061176c91906155d1565b90508181116117a75760405163625a84dd60e01b81526001600160a01b03841660048201526024810183905260448101829052606401610e4d565b505050610e1d60015f80516020615f7b83398151915255565b7f65d7a28e3265b37a6474929f336521b332c1681b933f6cb9f3376673440d862a6117eb81336133f1565b6118115760405163e2517d3f60e01b815233600482015260248101829052604401610e4d565b610e1d613a69565b6001600160a01b0381165f908152600e602090815260408083208151808301835281548152825160018301805460808188028401810190965260608301818152610ca6979496948701948492849184018282801561105b57602002820191905f5260205f20908154815260200190600101908083116110475750505050508152602001600182018054806020026020016040519081016040528092919081815260200182805480156110b157602002820191905f5260205f209081548152602001906001019080831161109d57505050505081526020016002820180548060200260200160405190810160405280929190818152602001828054801561110757602002820191905f5260205f20908154815260200190600101908083116110f3575050505050815250508152505061349a565b611954613ac8565b61195d82613b6c565b6119678282613b9d565b5050565b611973613375565b61197b6133ac565b604051637125eda960e11b815273__$339bef8b42d49ef7fc0392a1b9554f9551$__9063e24bdb52906119b4905f90859060040161573f565b5f6040518083038186803b1580156119ca575f80fd5b505af41580156119dc573d5f803e3d5ffd5b505060405163184d91f360e31b815273__$339bef8b42d49ef7fc0392a1b9554f9551$__925063c26c8f989150610ddb905f90859060040161573f565b610e1d604051806040016040528083803603810190611a389190615757565b81523360209091015261217a565b5f611a4f613c59565b505f80516020615f1b83398151915290565b611a69613375565b611a716133ac565b604080516325f2df6f60e01b81525f6004820152825151602482015260208301516001600160a01b03908116604483015291830151909116606482015273__$c19cfa413da1baf02a2307c9fe3d8deda6$__906325f2df6f906084015f6040518083038186803b158015611ae3575f80fd5b505af4158015611af5573d5f803e3d5ffd5b5050604080516330e78a9160e11b81525f6004820152845151602482015260208501516001600160a01b03908116604483015291850151909116606482015273__$c19cfa413da1baf02a2307c9fe3d8deda6$__92506361cf15229150608401610ddb565b611b62613375565b611b6a6133ac565b604051632d0c1e8b60e01b815273__$f215670302542f95b8fc754ac02a4bfcb4$__90632d0c1e8b90611ba3905f90859060040161573f565b5f6040518083038186803b158015611bb9575f80fd5b505af4158015611bcb573d5f803e3d5ffd5b505060405163c0c66ed960e01b815273__$f215670302542f95b8fc754ac02a4bfcb4$__925063c0c66ed99150610ddb905f90859060040161573f565b611c10614283565b5f80516020615f7b83398151915254600203611c3f57604051633ee5aeb560e01b815260040160405180910390fd5b604080516001600160a01b0384165f908152600e60209081529083902061016083018452805461012084019081528451600183018054608095810283018601909752606082018781529596879660a088019687959487946101408b01949193909284928491840182828015611cd157602002820191905f5260205f20905b815481526020019060010190808311611cbd575b5050505050815260200160018201805480602002602001604051908101604052809291908181526020018280548015611d2757602002820191905f5260205f20905b815481526020019060010190808311611d13575b5050505050815260200160028201805480602002602001604051908101604052809291908181526020018280548015611d7d57602002820191905f5260205f20905b815481526020019060010190808311611d69575b505050505081525050815250508152602001600482016040518060400160405290815f8201548152602001600182016040518060600160405290815f8201805480602002602001604051908101604052809291908181526020018280548015611e0357602002820191905f5260205f20905b815481526020019060010190808311611def575b5050505050815260200160018201805480602002602001604051908101604052809291908181526020018280548015611e5957602002820191905f5260205f20905b815481526020019060010190808311611e45575b5050505050815260200160028201805480602002602001604051908101604052809291908181526020018280548015611eaf57602002820191905f5260205f20905b815481526020019060010190808311611e9b575b505050919092525050509052508152600882015460208083019190915260099092015460ff1615156040918201529183526001600160a01b0386811691840182905260165483516370a0823160e01b815260048101939093529390920192909116906370a0823190602401602060405180830381865afa158015611f35573d5f803e3d5ffd5b505050506040513d601f19601f82011682018060405250810190611f5991906155d1565b8152601a546040516370a0823160e01b81526001600160a01b038681166004830152602090930192909116906370a0823190602401602060405180830381865afa158015611fa9573d5f803e3d5ffd5b505050506040513d601f19601f82011682018060405250810190611fcd91906155d1565b81526018546040516370a0823160e01b81526001600160a01b038681166004830152602090930192909116906370a0823190602401602060405180830381865afa15801561201d573d5f803e3d5ffd5b505050506040513d601f19601f8201168201806040525081019061204191906155d1565b905290505b919050565b5f61205581613945565b612a315f612061613ca2565b8054909150600160401b900460ff1680612088575080546001600160401b03808416911610155b156120a65760405163f92ee8a960e01b815260040160405180910390fd5b805468ffffffffffffffffff19166001600160401b03831617600160401b1781556120cf613cca565b805460ff60401b191681556040516001600160401b03831681527fc7f505b2f371ae2175ee4913f4499e1f2633a7b5936321eed1cdaeb6115181d29060200160405180910390a1505050565b604051637574b6e360e01b81525f600482018190526001600160a01b0380871660248401526044830186905284166064830152608482018390529073__$fad1da84a532053b53119316a58e977f10$__90637574b6e39060a4016112f2565b612182613375565b61218a6133ac565b604051623fe27360e01b81525f6004820152815180516001600160a01b039081166024840152602091820151151560448401529083015116606482015273__$c6aecf0de9c97d330c260596cb45f01743$__90623fe273906084015f6040518083038186803b1580156121fb575f80fd5b505af415801561220d573d5f803e3d5ffd5b505060405163724e2b6f60e01b81525f6004820152835180516001600160a01b039081166024840152602091820151151560448401529085015116606482015273__$c6aecf0de9c97d330c260596cb45f01743$__925063724e2b6f9150608401610ddb565b61227b6142bd565b604051633978289f60e01b81525f60048201526024810183905273__$674c94602fbdb88ca53d9ba4295c8813fa$__90633978289f90604401602060405180830381865af41580156122cf573d5f803e3d5ffd5b505050506040513d601f19601f820116820180604052508101906122f391906155d1565b6040805160808101825282546001600160a01b0381168252600160a01b900460ff1615156020820152600183015491810191909152600290910154606082015292915050565b612341613375565b6123496133ac565b60405163da25f11760e01b815273__$e9ef7182266124a833dac7dfa55fc79e51$__9063da25f11790612382905f908590600401615771565b5f6040518083038186803b158015612398575f80fd5b505af41580156123aa573d5f803e3d5ffd5b50506040516388fb1b6760e01b815273__$e9ef7182266124a833dac7dfa55fc79e51$__92506388fb1b679150610ddb905f908590600401615771565b6124146040518060a001604052805f81526020015f81526020015f81526020015f81526020015f81525090565b604051636e9bc7eb60e11b81525f600482015273__$72c16261390208f563094e6a4fc9f74031$__9063dd378fd69060240160a060405180830381865af4158015612461573d5f803e3d5ffd5b505050506040513d601f19601f820116820180604052508101906112929190615807565b604080518082019091525f8082526020820152604051631ae5e80160e31b81525f600482015273__$72c16261390208f563094e6a4fc9f74031$__9063d72f4008906024016040805180830381865af41580156124e4573d5f803e3d5ffd5b505050506040513d601f19601f820116820180604052508101906112929190615869565b612510613375565b6125186133ac565b6040516210aa0b60e31b815273__$45d7492db284be01938913cb41b9cac2a6$__90628550589061254f905f90859060040161589c565b5f6040518083038186803b158015612565575f80fd5b505af4158015612577573d5f803e3d5ffd5b50506040516364140a8360e01b815273__$45d7492db284be01938913cb41b9cac2a6$__92506364140a839150610ddb905f90859060040161589c565b6125bc613375565b6125c46133ac565b604051631e55c20b60e31b815273__$909b104b05b98ab9b02bd00c4a2f54926d$__9063f2ae1058906125fd905f90859060040161562f565b5f6040518083038186803b158015612613575f80fd5b505af4158015612625573d5f803e3d5ffd5b5050604051630f6470bd60e01b815273__$909b104b05b98ab9b02bd00c4a2f54926d$__9250630f6470bd9150612662905f90859060040161562f565b5f6040518083038186803b158015612678575f80fd5b505af415801561268a573d5f803e3d5ffd5b505050505f19815f0151602001510361156e578051516040516316bbd7db60e11b81525f60048201526001600160a01b03909116602482015273__$b44e0fdf2f6bdeffc1681a5a467d23dde6$__90632d77afb690604401610ddb565b7f65d7a28e3265b37a6474929f336521b332c1681b933f6cb9f3376673440d862a61271281336133f1565b6127385760405163e2517d3f60e01b815233600482015260248101829052604401610e4d565b610e1d613cda565b610e1d60405180604001604052808380360381019061275f91906158d4565b815233602090910152611584565b610e1d6040518060600160405280838152602001336001600160a01b03168152602001336001600160a01b0316815250611439565b5f9182525f80516020615f3b833981519152602090815260408084206001600160a01b0393909316845291905290205460ff1690565b6127e06142ec565b60405163301d1d1560e21b815273__$c58e2605104bb31274ad8c04841b6a7550$__9063c074745490612819905f908690600401615323565b61012060405180830381865af4158015612835573d5f803e3d5ffd5b505050506040513d601f19601f82011682018060405250810190610ca691906158ee565b60606128636133ac565b6111255f8484613d22565b61289e60405180608001604052805f6001600160a01b031681526020015f81526020015f81526020015f81525090565b604051634c9829bf60e11b81525f60048201526024810183905273__$674c94602fbdb88ca53d9ba4295c8813fa$__90639930537e90604401602060405180830381865af41580156128f2573d5f803e3d5ffd5b505050506040513d601f19601f8201168201806040525081019061291691906155d1565b6040805160808101825282546001600160a01b0316815260018301546020820152600283015491810191909152600390910154606082015292915050565b6129816040518060a001604052805f81526020015f81526020015f81526020015f81526020015f81525090565b506001600160a01b03165f908152601b6020908152604091829020825160a0810184526006820154815260078201549281019290925260088101549282019290925260098201546060820152600a90910154608082015290565b60405163046dbd1360e11b81525f600482018190526001600160a01b03831660248301529073__$b44e0fdf2f6bdeffc1681a5a467d23dde6$__906308db7a2690604401602060405180830381865af4158015612a3a573d5f803e3d5ffd5b505050506040513d601f19601f82011682018060405250810190610ca691906155d1565b610e1d604051806040016040528083803603810190612a7d9190615950565b815233602090910152612339565b610e1d604051806040016040528083612aa3906155f3565b81523360209091015261196b565b612aba8261133a565b612ac381613945565b6113d583836139f0565b5f80612ad7613375565b612adf6133ac565b7ffc8737ab85eb45125971625a9ebdb75cc78e01d5c1fa80c4c6e5203f47bc4fab612b0a81336133f1565b612b305760405163e2517d3f60e01b815233600482015260248101829052604401610e4d565b604051639f53ee0f60e01b815273__$d00168f5747027b5a56099c751031d7e40$__90639f53ee0f90612b69905f9088906004016159d2565b5f6040518083038186803b158015612b7f575f80fd5b505af4158015612b91573d5f803e3d5ffd5b505060405163647a4b7560e11b815273__$d00168f5747027b5a56099c751031d7e40$__925063c8f496ea9150612bce905f9088906004016159d2565b6040805180830381865af4158015612be8573d5f803e3d5ffd5b505050506040513d601f19601f82011682018060405250810190612c0c91906159e7565b909350915073__$b44e0fdf2f6bdeffc1681a5a467d23dde6$__632d77afb65f612c3c60408801602089016146a9565b6040516001600160e01b031960e085901b16815260048101929092526001600160a01b031660248201526044015f6040518083038186803b158015612c7f575f80fd5b505af4158015612c91573d5f803e3d5ffd5b5050604051636e6595c160e01b815273__$d00168f5747027b5a56099c751031d7e40$__9250636e6595c19150612cd0905f9088908890600401615a09565b5f6040518083038186803b158015612ce6575f80fd5b505af4158015612cf8573d5f803e3d5ffd5b5050505050612d1360015f80516020615f7b83398151915255565b915091565b5f612d21613375565b612d296133ac565b6040516320b5435f60e11b815273__$04d32033081e1e9356971d8f4b5098bcad$__9063416a86be90612d62905f908690600401615a2d565b5f6040518083038186803b158015612d78575f80fd5b505af4158015612d8a573d5f803e3d5ffd5b5050604051630d0699cb60e21b815273__$04d32033081e1e9356971d8f4b5098bcad$__925063341a672c9150612dc7905f908690600401615a2d565b602060405180830381865af4158015612de2573d5f803e3d5ffd5b505050506040513d601f19601f82011682018060405250810190612e0691906155d1565b60405163489d188160e01b815290915073__$04d32033081e1e9356971d8f4b5098bcad$__9063489d188190612e44905f9086908690600401615a55565b5f6040518083038186803b158015612e5a575f80fd5b505af4158015612e6c573d5f803e3d5ffd5b5050505061204660015f80516020615f7b83398151915255565b610e1d604051806060016040528083803603810190612ea59190614590565b815233602082018190526040909101526125b4565b5f612ec3613ca2565b805490915060ff600160401b82041615906001600160401b03165f81158015612ee95750825b90505f826001600160401b03166001148015612f045750303b155b905081158015612f12575080155b15612f305760405163f92ee8a960e01b815260040160405180910390fd5b845467ffffffffffffffff191660011785558315612f5a57845460ff60401b1916600160401b1785555b6040516369777eb960e01b815273__$d02cb2608d6f3ad3f53f4dd3f26f81b8ea$__906369777eb990612f9b905f908e908e908e908e908e90600401615ba4565b5f6040518083038186803b158015612fb1575f80fd5b505af4158015612fc3573d5f803e3d5ffd5b50505050612fcf613e0a565b612fd7613e0a565b612fdf613cca565b612fe7613e0a565b604051632ffdac7160e21b815273__$d02cb2608d6f3ad3f53f4dd3f26f81b8ea$__9063bff6b1c490613026905f908d908d908d908d90600401615c18565b5f6040518083038186803b15801561303c575f80fd5b505af415801561304e573d5f803e3d5ffd5b5050505061305e5f801b8b61394f565b506130897f65d7a28e3265b37a6474929f336521b332c1681b933f6cb9f3376673440d862a8b61394f565b506130b47ffc8737ab85eb45125971625a9ebdb75cc78e01d5c1fa80c4c6e5203f47bc4fab8b61394f565b506130df7f1eae1854c74a696c6de86fd3c6383d5c1e2c33fbc86e1aa6b6c872d95bd240388b61394f565b50831561312657845460ff60401b19168555604051600181527fc7f505b2f371ae2175ee4913f4499e1f2633a7b5936321eed1cdaeb6115181d29060200160405180910390a15b50505050505050505050565b61313a613375565b6131426133ac565b604051635792057f60e11b81525f60048201528135602482015273__$ebce6ba8505acc62d937fb713060c40a3c$__9063af240afe906044015f6040518083038186803b158015613191575f80fd5b505af41580156131a3573d5f803e3d5ffd5b50506040516320e9b9f960e11b81525f60048201528335602482015273__$ebce6ba8505acc62d937fb713060c40a3c$__92506341d373f29150604401610ddb565b6131ed613375565b6131f56133ac565b604051631005beb160e31b815273__$7947dedfaba9c59621bd8bcc87e3fb80f1$__9063802df5889061322e905f908590600401615c7c565b5f6040518083038186803b158015613244575f80fd5b505af4158015613256573d5f803e3d5ffd5b5050604051631cc17ae560e31b815273__$7947dedfaba9c59621bd8bcc87e3fb80f1$__925063e60bd7289150610ddb905f908590600401615c7c565b61329b613375565b6132a36133ac565b60405163024889b160e51b815273__$d49e499a4608ab3aca09b91fe5950492b6$__906349113620906132dc905f908590600401615c7c565b5f6040518083038186803b1580156132f2575f80fd5b505af4158015613304573d5f803e3d5ffd5b505060405163a083c0ab60e01b815273__$d49e499a4608ab3aca09b91fe5950492b6$__925063a083c0ab9150610ddb905f908590600401615c7c565b610e1d6040518060600160405280838036038101906133609190615cc1565b81523360208201819052604090910152611a61565b5f80516020615f7b8339815191528054600119016133a657604051633ee5aeb560e01b815260040160405180910390fd5b60029055565b5f80516020615f5b8339815191525460ff16156133dc5760405163d93c066560e01b815260040160405180910390fd5b565b60015f80516020615f7b83398151915255565b5f6133fc83836127a2565b1561340957506001610ca6565b601c546001600160a01b031661342057505f610ca6565b601c54604051632474521560e21b8152600481018590526001600160a01b038481166024830152909116906391d1485490604401602060405180830381865afa15801561346f573d5f803e3d5ffd5b505050506040513d601f19601f820116820180604052508101906134939190615cdb565b9050610ca6565b80515f90158015610ca65750610ca68260200151613e12565b6001600160a01b0382165f908152600e84016020908152604080832081518083018352815481528251600183018054608081880284018101909652606083018181526135f9978c978c979591870194919391928492909184919084018282801561353a57602002820191905f5260205f20905b815481526020019060010190808311613526575b505050505081526020016001820180548060200260200160405190810160405280929190818152602001828054801561359057602002820191905f5260205f20905b81548152602001906001019080831161357c575b50505050508152602001600282018054806020026020016040519081016040528092919081815260200182805480156135e657602002820191905f5260205f20905b8154815260200190600101908083116135d2575b5050505050815250508152505085613e38565b949350505050565b5f61112583600c015f015f9054906101000a90046001600160a01b03166001600160a01b031663313ce5676040518163ffffffff1660e01b8152600401602060405180830381865afa158015613659573d5f803e3d5ffd5b505050506040513d601f19601f8201168201806040525081019061367d91906155d1565b61368890600a615dea565b6136929084615df5565b60148501546040805163313ce56760e01b815290516001600160a01b039092169163313ce567916004808201926020929091908290030181865afa1580156136dc573d5f803e3d5ffd5b505050506040513d601f19601f820116820180604052508101906137009190615e0c565b61370b90600a615e2c565b60158601546040805163313ce56760e01b815290516001600160a01b039092169163313ce567916004808201926020929091908290030181865afa158015613755573d5f803e3d5ffd5b505050506040513d601f19601f820116820180604052508101906137799190615e0c565b61378490600a615e2c565b600c87015460408051634c6afee560e11b815290516001600160a01b03909216916398d5fdca916004808201926020929091908290030181865afa1580156137ce573d5f803e3d5ffd5b505050506040513d601f19601f820116820180604052508101906137f291906155d1565b6137fc9190615df5565b613f92565b6001600160a01b0382165f908152600e840160209081526040808320815180830183526004820180548252835160059093018054608081880286018101909652606085018181526135f9978c978c9791870194919391928492909184919084018282801561353a57602002820191905f5260205f209081548152602001906001019080831161352657505050505081526020016001820180548060200260200160405190810160405280929190818152602001828054801561359057602002820191905f5260205f209081548152602001906001019080831161357c5750505050508152602001600282018054806020026020016040519081016040528092919081815260200182805480156135e657602002820191905f5260205f20908154815260200190600101908083116135d2575050505050815250508152505085613e38565b610e1d8133613f9e565b5f5f80516020615f3b83398151915261396884846127a2565b6139e7575f848152602082815260408083206001600160a01b03871684529091529020805460ff1916600117905561399d3390565b6001600160a01b0316836001600160a01b0316857f2f8788117e7eff1d82e926ec794901d17c78024a50270940304540a733656f0d60405160405180910390a46001915050610ca6565b5f915050610ca6565b5f5f80516020615f3b833981519152613a0984846127a2565b156139e7575f848152602082815260408083206001600160a01b0387168085529252808320805460ff1916905551339287917ff6391f5c32d9c69d2a47ea670b442974b53935d1edc7fd64eb21e047a839171b9190a46001915050610ca6565b613a71613fd7565b5f80516020615f5b833981519152805460ff191681557f5db9ee0a495bf2e6ff9c91a7834c1ba4fdd244a5e8aa4e537bd38aeae4b073aa335b6040516001600160a01b03909116815260200160405180910390a150565b306001600160a01b037f0000000000000000000000000000000000000000000000000000000000000000161480613b4e57507f00000000000000000000000000000000000000000000000000000000000000006001600160a01b0316613b425f80516020615f1b833981519152546001600160a01b031690565b6001600160a01b031614155b156133dc5760405163703e46dd60e11b815260040160405180910390fd5b5f613b7781336133f1565b6119675760405163e2517d3f60e01b815233600482015260248101829052604401610e4d565b816001600160a01b03166352d1902d6040518163ffffffff1660e01b8152600401602060405180830381865afa925050508015613bf7575060408051601f3d908101601f19168201909252613bf4918101906155d1565b60015b613c1f57604051634c9c8ce360e01b81526001600160a01b0383166004820152602401610e4d565b5f80516020615f1b8339815191528114613c4f57604051632a87526960e21b815260048101829052602401610e4d565b61140e8383614006565b306001600160a01b037f000000000000000000000000000000000000000000000000000000000000000016146133dc5760405163703e46dd60e11b815260040160405180910390fd5b5f807ff0c57e16840df040f15088dc2f81fe391c3923bec73e23a9662efc9c229c6a00610ca6565b613cd261405b565b6133dc614080565b613ce26133ac565b5f80516020615f5b833981519152805460ff191660011781557f62e78cea01bee320cd4e420270b5ea74000d11b0c9f74754ebdbfc544b05a25833613aaa565b6060816001600160401b03811115613d3c57613d3c6143b7565b604051908082528060200260200182016040528015613d6f57816020015b6060815260200190600190039081613d5a5790505b5090505f5b82811015613e0257613ddd30858584818110613d9257613d92615e3a565b9050602002810190613da49190615e4e565b8080601f0160208091040260200160405190810160405280939291908181526020018383808284375f9201919091525061408892505050565b828281518110613def57613def615e3a565b6020908102919091010152600101613d74565b509392505050565b6133dc61405b565b8051515f90158015613e275750602082015151155b8015610ca657505060400151511590565b5f815f03613e59576040516301c85f6760e71b815260040160405180910390fd5b613e628361349a565b15613e8a5760405162b04ee160e61b81526001600160a01b0385166004820152602401610e4d565b8251613e968342615e97565b1115613eca57613ea68242615e97565b8351604051636f2f16a760e01b815260048101929092526024820152604401610e4d565b60408051606081018252600d8701546001600160801b03811682526001600160401b03600160801b82048116602080850191909152600160c01b909204168284015285015191516315c6891560e11b8152909173__$99c8b6d537f6911e4d5e2b5618b4ddcec4$__91632b8d122a91613f499185908890600401615eaa565b602060405180830381865af4158015613f64573d5f803e3d5ffd5b505050506040513d601f19601f82011682018060405250810190613f8891906155d1565b9695505050505050565b5f6135f98484846140f1565b613fa882826127a2565b6119675760405163e2517d3f60e01b81526001600160a01b038216600482015260248101839052604401610e4d565b5f80516020615f5b8339815191525460ff166133dc57604051638dfc202b60e01b815260040160405180910390fd5b61400f8261411d565b6040516001600160a01b038316907fbc7cd75a20ee27fd9adebab32041f755214dbc6bffa90cc0225b39da2e5c2d3b905f90a28051156140535761140e8282614088565b611967614180565b61406361419f565b6133dc57604051631afcd79f60e31b815260040160405180910390fd5b6133de61405b565b60605f80846001600160a01b0316846040516140a49190615eff565b5f60405180830381855af49150503d805f81146140dc576040519150601f19603f3d011682016040523d82523d5f602084013e6140e1565b606091505b50915091506113318583836141b8565b5f825f19048411830215820261410e5763ad251c275f526004601cfd5b50910281810615159190040190565b806001600160a01b03163b5f0361415257604051634c9c8ce360e01b81526001600160a01b0382166004820152602401610e4d565b5f80516020615f1b83398151915280546001600160a01b0319166001600160a01b0392909216919091179055565b34156133dc5760405163b398979f60e01b815260040160405180910390fd5b5f6141a8613ca2565b54600160401b900460ff16919050565b6060826141cd576141c882614214565b611125565b81511580156141e457506001600160a01b0384163b155b1561420d57604051639996b31560e01b81526001600160a01b0385166004820152602401610e4d565b5080611125565b8051156142245780518082602001fd5b60405163d6bda27560e01b815260040160405180910390fd5b6040518060e001604052806142506142bd565b81526020015f6001600160a01b031681526020015f81526020015f81526020015f81526020015f81526020015f81525090565b6040518060a00160405280614296614323565b81526020015f6001600160a01b031681526020015f81526020015f81526020015f81525090565b60405180608001604052805f6001600160a01b031681526020015f151581526020015f81526020015f81525090565b6040518060c001604052806142ff6142bd565b81526020015f81526020015f81526020015f81526020015f81526020015f81525090565b6040518060800160405280614336614356565b8152602001614343614356565b81525f6020820181905260409091015290565b60405180604001604052805f815260200161438b60405180606001604052806060815260200160608152602001606081525090565b905290565b5f602082840312156143a0575f80fd5b81356001600160e01b031981168114611125575f80fd5b634e487b7160e01b5f52604160045260245ffd5b60405161012081016001600160401b03811182821017156143ee576143ee6143b7565b60405290565b604051608081016001600160401b03811182821017156143ee576143ee6143b7565b604080519081016001600160401b03811182821017156143ee576143ee6143b7565b604051606081016001600160401b03811182821017156143ee576143ee6143b7565b60405160a081016001600160401b03811182821017156143ee576143ee6143b7565b60405160c081016001600160401b03811182821017156143ee576143ee6143b7565b604051601f8201601f191681016001600160401b03811182821017156144c6576144c66143b7565b604052919050565b6001600160a01b0381168114610e1d575f80fd5b8035612046816144ce565b8015158114610e1d575f80fd5b8035612046816144ed565b5f6101208284031215614516575f80fd5b61451e6143cb565b9050614529826144e2565b81526020820135602082015260408201356040820152606082013560608201526080820135608082015260a082013560a082015261456960c083016144fa565b60c082015260e082013560e08201526101006145868184016144e2565b9082015292915050565b5f61012082840312156145a1575f80fd5b6111258383614505565b80516001600160a01b0316825260208082015115159083015260408082015190830152606090810151910152565b5f610140820190506145ec8284516145ab565b60018060a01b036020840151166080830152604083015160a0830152606083015160c0830152608083015160e083015260a083015161010083015260c083015161012083015292915050565b5f60608284031215614648575f80fd5b50919050565b5f6060828403121561465e575f80fd5b6111258383614638565b5f60408284031215614648575f80fd5b5f60208284031215614688575f80fd5b81356001600160401b0381111561469d575f80fd5b6135f984828501614668565b5f602082840312156146b9575f80fd5b8135611125816144ce565b60a08101610ca6828480518252602081015160208301526040810151604083015260608101516060830152608081015160808301525050565b5f806040838503121561470e575f80fd5b8235614719816144ce565b946020939093013593505050565b5f6001600160401b0382111561473f5761473f6143b7565b5060051b60200190565b5f82601f830112614758575f80fd5b8135602061476d61476883614727565b61449e565b8083825260208201915060208460051b87010193508684111561478e575f80fd5b602086015b848110156147aa5780358352918301918301614793565b509695505050505050565b5f608082840312156147c5575f80fd5b6147cd6143f4565b90508135815260208201356147e1816144ed565b602082015260408201356147f4816144ed565b604082015260608201356001600160401b03811115614811575f80fd5b61481d84828501614749565b60608301525092915050565b5f60208284031215614839575f80fd5b81356001600160401b038082111561484f575f80fd5b9083019060408286031215614862575f80fd5b61486a614416565b823582811115614878575f80fd5b614884878286016147b5565b82525060208301359250614897836144ce565b6020810192909252509392505050565b5f602082840312156148b7575f80fd5b5035919050565b5f805f80608085870312156148d1575f80fd5b84356148dc816144ce565b93506020850135925060408501356148f3816144ce565b9396929550929360600135925050565b5f60208284031215614913575f80fd5b81356001600160401b03811115614928575f80fd5b820160808185031215611125575f80fd5b5f806040838503121561494a575f80fd5b82359150602083013561495c816144ce565b809150509250929050565b5f6101608284031215614978575f80fd5b614980614438565b905061498c8383614505565b815261012082013561499d816144ce565b60208201526101408201356149b1816144ce565b604082015292915050565b5f61016082840312156149cd575f80fd5b6111258383614967565b5f606082840312156149e7575f80fd5b6149ef614438565b905081358152602082013560208201526040820135604082015292915050565b5f60808284031215614a1f575f80fd5b614a27614416565b614a3184846149d7565b81526060830135614a41816144ce565b60208201529392505050565b5f8060408385031215614a5e575f80fd5b8235614a69816144ce565b91506020838101356001600160401b0380821115614a85575f80fd5b818601915086601f830112614a98575f80fd5b813581811115614aaa57614aaa6143b7565b614abc601f8201601f1916850161449e565b91508082528784828501011115614ad1575f80fd5b80848401858401375f848284010152508093505050509250929050565b5f60408284031215614afe575f80fd5b614b06614416565b9050813581526020808301356001600160401b0380821115614b26575f80fd5b9084019060608287031215614b39575f80fd5b614b41614438565b823582811115614b4f575f80fd5b614b5b88828601614749565b8252508383013582811115614b6e575f80fd5b8301601f81018813614b7e575f80fd5b8035614b8c61476882614727565b81815260059190911b8201860190868101908a831115614baa575f80fd5b928701925b82841015614bc857833582529287019290870190614baf565b84880152505050604083013582811115614be0575f80fd5b614bec88828601614749565b60408301525080848601525050505092915050565b5f60408284031215614c11575f80fd5b614c19614416565b905081356001600160401b03811115614c30575f80fd5b614c3c84828501614aee565b8252506020820135614c4d816144ce565b602082015292915050565b5f60208284031215614c68575f80fd5b81356001600160401b03811115614c7d575f80fd5b6135f984828501614c01565b5f60408284031215614c99575f80fd5b6111258383614668565b5f60208284031215614cb3575f80fd5b604051602081018181106001600160401b0382111715614cd557614cd56143b7565b6040529135825250919050565b5f60608284031215614cf2575f80fd5b614cfa614438565b614d048484614ca3565b81526020830135614d14816144ce565b60208201526040830135614d27816144ce565b60408201529392505050565b5f5b83811015614d4d578181015183820152602001614d35565b50505f910152565b5f8151808452614d6c816020860160208601614d33565b601f01601f19169290920160200192915050565b602081525f6111256020830184614d55565b5f815180845260208085019450602084015f5b83811015614dc157815187529582019590820190600101614da5565b509495945050505050565b805182525f602080830151604082860152805160606040870152614df360a0870182614d92565b83830151603f19888303810160608a0152815180845291860193505f929091908601905b80841015614e375784518252938601936001939093019290860190614e17565b5060408501519550818982030160808a0152614e538187614d92565b9998505050505050505050565b602081525f825160a060208401528051608060c0850152614e85610140850182614dcc565b9050602082015160bf198583030160e0860152614ea28282614dcc565b91505060408201516101008501526060820151151561012085015260208501519150614ed960408501836001600160a01b03169052565b6040850151606085015260608501516080850152608085015160a0850152809250505092915050565b5f60408284031215614f12575f80fd5b614f1a614416565b90508135614f27816144ce565b81526020820135614c4d816144ed565b5f60608284031215614f47575f80fd5b614f4f614416565b614f598484614f02565b81526040830135614a41816144ce565b60808101610ca682846145ab565b5f60a08284031215614f87575f80fd5b614f8f61445a565b9050813581526020820135602082015260408201356040820152606082013560608201526080820135608082015292915050565b5f6101408284031215614fd4575f80fd5b614fdc614416565b9050614fe88383614f77565b8152614c4d8360a08401614f77565b5f6101608284031215615008575f80fd5b615010614416565b61501a8484614fc3565b8152610140830135614a41816144ce565b5f6101208201905061503e8284516145ab565b60208301516080830152604083015160a0830152606083015160c0830152608083015160e083015260a083015161010083015292915050565b5f8060208385031215615088575f80fd5b82356001600160401b038082111561509e575f80fd5b818501915085601f8301126150b1575f80fd5b8135818111156150bf575f80fd5b8660208260051b85010111156150d3575f80fd5b60209290920196919550909350505050565b5f60208083016020845280855180835260408601915060408160051b8701019250602087015f5b8281101561513a57603f19888603018452615128858351614d55565b9450928501929085019060010161510c565b5092979650505050505050565b5f6101408284031215614648575f80fd5b5f60e08284031215614648575f80fd5b5f6101208284031215614648575f80fd5b5f60c08284031215614648575f80fd5b5f805f805f85870361028081121561519f575f80fd5b86356151aa816144ce565b95506151b98860208901615179565b945060a060df19820112156151cc575f80fd5b5060e0860192506151e1876101808801614668565b91506151f1876101c08801615179565b90509295509295909350565b5f60208284031215614648575f80fd5b5f6020828403121561521d575f80fd5b61112583836151fd565b5f60608284031215615237575f80fd5b61523f614438565b9050813561524c816144ce565b81526020828101359082015260408201356149b1816144ce565b5f60808284031215615276575f80fd5b61527e614416565b905061528a8383615227565b81526060820135614c4d816144ce565b5f608082840312156152aa575f80fd5b6111258383615266565b60018060a01b0381511682526020810151602083015260408101516040830152606081015160608301526080810151608083015260a081015160a083015260c0810151151560c083015260e081015160e0830152610100808201516113d5828501826001600160a01b03169052565b828152610140810161112560208301846152b4565b5f60808284031215615348575f80fd5b6153506143f4565b9050815161535d816144ce565b8152602082015161536d816144ed565b80602083015250604082015160408201526060820151606082015292915050565b5f610140828403121561539f575f80fd5b60405160e081018181106001600160401b03821117156153c1576153c16143b7565b6040526153ce8484615338565b815260808301516153de816144ce565b8060208301525060a0830151604082015260c0830151606082015260e0830151608082015261010083015160a082015261012083015160c08201528091505092915050565b5f6080820190508382528235602083015260208301356040830152604083013561544c816144ce565b6001600160a01b03166060929092019190915292915050565b828152604060208201525f8235601e19843603018112615483575f80fd5b83016020810190356001600160401b0381111561549e575f80fd5b8036038213156154ac575f80fd5b604080850152806080850152808260a08601375f60a082860101526020850135606085015260a0601f19601f830116850101925050509392505050565b5f606082840312156154f9575f80fd5b6111258383615227565b828152604060208201525f8251604080840152805160808401526020810151151560a08401526040810151151560c084015260608101519050608060e0840152615551610100840182614d92565b602094909401516001600160a01b031660609390930192909252509092915050565b5f60c08284031215615583575f80fd5b61558b61447c565b825181526020830151602082015260408301516040820152606083015160608201526080830151608082015260a08301516155c5816144ce565b60a08201529392505050565b5f602082840312156155e1575f80fd5b5051919050565b5f610ca636836147b5565b5f610ca63683614aee565b6156098282516152b4565b60208101516001600160a01b039081166101208401526040909101511661014090910152565b828152610180810161112560208301846155fe565b918252805180516020808501919091528082015160408086019190915290910151606084015201516001600160a01b0316608082015260a00190565b5f8151606084526156946060850182614d92565b602084810151868303878301528051808452908201935090915f91908301905b808310156156d457845182529383019360019290920191908301906156b4565b506040860151935086810360408801526156ee8185614d92565b979650505050505050565b5f8151604084528051604085015260208101519050604060608501526157226080850182615680565b6020938401516001600160a01b0316949093019390935250919050565b828152604060208201525f6135f960408301846156f9565b5f60408284031215615767575f80fd5b6111258383614f02565b5f6101808201905083825282516157b760208401825180518252602081015160208301526040810151604083015260608101516060830152608081015160808301525050565b602090810151805160c08501528082015160e0850152604081015161010085015260608101516101208501526080015161014084015292909201516001600160a01b031661016090910152919050565b5f60a08284031215615817575f80fd5b61581f61445a565b82518152602083015160208201526040830151604082015260608301516060820152608083015160808201528091505092915050565b6001600160401b0381168114610e1d575f80fd5b5f60408284031215615879575f80fd5b615881614416565b825161588c816144ce565b81526020830151614a4181615855565b5f6060820190508382528235602083015260208301356158bb816144ce565b6001600160a01b03166040929092019190915292915050565b5f606082840312156158e4575f80fd5b61112583836149d7565b5f61012082840312156158ff575f80fd5b61590761447c565b6159118484615338565b81526080830151602082015260a0830151604082015260c0830151606082015260e0830151608082015261010083015160a08201528091505092915050565b5f6101408284031215615961575f80fd5b6111258383614fc3565b80358252602081013561597d816144ce565b6001600160a01b03908116602084015260408281013590840152606080830135908401526080808301359084015260a0828101359084015260c0820135906159c4826144ce565b80821660c085015250505050565b8281526101008101611125602083018461596b565b5f80604083850312156159f8575f80fd5b505080516020909101519092909150565b8381526101208101615a1e602083018561596b565b82610100830152949350505050565b8281526080810161112560208301848035825260208082013590830152604090810135910152565b83815260a08101615a7d60208301858035825260208082013590830152604090810135910152565b826080830152949350505050565b803582526020810135602083015260408101356040830152606081013560608301526080810135608083015260a0810135615ac5816144ce565b6001600160a01b031660a0929092019190915250565b8035615ae6816144ce565b6001600160a01b031682526020810135615aff81615855565b6001600160401b0381166020840152505050565b8035615b1e816144ce565b6001600160a01b039081168352602082013590615b3a826144ce565b9081166020840152604082013590615b51826144ce565b9081166040840152606082013590615b68826144ce565b9081166060840152608082013590615b7f826144ce565b908116608084015260a082013590615b96826144ce565b80821660a085015250505050565b8681526001600160a01b03861660208201526102a08101615bc86040830187615a8b565b84356101008301526020850135610120830152604085013561014083015260608501356101608301526080850135610180830152615c0a6101a0830185615adb565b6156ee6101e0830184615b13565b8581526102808101615c2d6020830187615a8b565b843560e08301526020850135610100830152604085013561012083015260608501356101408301526080850135610160830152615c6e610180830185615adb565b613f886101c0830184615b13565b82815260a081016111256020830184805180516001600160a01b0390811684526020808301518186015260409283015182169285019290925291015116606090910152565b5f60208284031215615cd1575f80fd5b6111258383614ca3565b5f60208284031215615ceb575f80fd5b8151611125816144ed565b634e487b7160e01b5f52601160045260245ffd5b600181815b80851115615d4457815f1904821115615d2a57615d2a615cf6565b80851615615d3757918102915b93841c9390800290615d0f565b509250929050565b5f82615d5a57506001610ca6565b81615d6657505f610ca6565b8160018114615d7c5760028114615d8657615da2565b6001915050610ca6565b60ff841115615d9757615d97615cf6565b50506001821b610ca6565b5060208310610133831016604e8410600b8410161715615dc5575081810a610ca6565b615dcf8383615d0a565b805f1904821115615de257615de2615cf6565b029392505050565b5f6111258383615d4c565b8082028115828204841417610ca657610ca6615cf6565b5f60208284031215615e1c575f80fd5b815160ff81168114611125575f80fd5b5f61112560ff841683615d4c565b634e487b7160e01b5f52603260045260245ffd5b5f808335601e19843603018112615e63575f80fd5b8301803591506001600160401b03821115615e7c575f80fd5b602001915036819003821315615e90575f80fd5b9250929050565b80820180821115610ca657610ca6615cf6565b60a081525f615ebc60a0830186615680565b90506001600160801b03845116602083015260208401516001600160401b0380821660408501528060408701511660608501525050826080830152949350505050565b5f8251615f10818460208701614d33565b919091019291505056fe360894a13ba1a3210667c828492db98dca3e2076cc3735a920a3ca505d382bbc02dd7bc7dec4dceedda775e58dd541e08a116c6c53815c0bd028192f7b626800cd5ed15c6e187e77e9aee88184c21f4f2182ab5827cb3b7e07fbedcd63f033009b779b17422d0df92223018b32b4d1fa46e071723d6817e2486d003becc55f00a26469706673582212202f00eae29f053452eb8ca6b1a62479f5b4f9da7c8be240bf9d6a98d9297f827a64736f6c63430008170033",
    "linkReferences": {
      "src/market/libraries/LoanLibrary.sol": {
        "LoanLibrary": [
          {
            "start": 9111,
            "length": 20
          },
          {
            "start": 10682,
            "length": 20
          }
        ]
      },
      "src/market/libraries/OfferLibrary.sol": {
        "OfferLibrary": [
          {
            "start": 5076,
            "length": 20
          },
          {
            "start": 8792,
            "length": 20
          }
        ]
      },
      "src/market/libraries/RiskLibrary.sol": {
        "RiskLibrary": [
          {
            "start": 5708,
            "length": 20
          },
          {
            "start": 5824,
            "length": 20
          },
          {
            "start": 6159,
            "length": 20
          },
          {
            "start": 10181,
            "length": 20
          },
          {
            "start": 11010,
            "length": 20
          },
          {
            "start": 11539,
            "length": 20
          }
        ]
      },
      "src/market/libraries/YieldCurveLibrary.sol": {
        "YieldCurveLibrary": [
          {
            "start": 16415,
            "length": 20
          }
        ]
      },
      "src/market/libraries/actions/BuyCreditLimit.sol": {
        "BuyCreditLimit": [
          {
            "start": 7289,
            "length": 20
          },
          {
            "start": 7388,
            "length": 20
          }
        ]
      },
      "src/market/libraries/actions/BuyCreditMarket.sol": {
        "BuyCreditMarket": [
          {
            "start": 3523,
            "length": 20
          },
          {
            "start": 9939,
            "length": 20
          },
          {
            "start": 10038,
            "length": 20
          }
        ]
      },
      "src/market/libraries/actions/Claim.sol": {
        "Claim": [
          {
            "start": 12894,
            "length": 20
          },
          {
            "start": 12993,
            "length": 20
          }
        ]
      },
      "src/market/libraries/actions/Compensate.sol": {
        "Compensate": [
          {
            "start": 5934,
            "length": 20
          },
          {
            "start": 6033,
            "length": 20
          }
        ]
      },
      "src/market/libraries/actions/Deposit.sol": {
        "Deposit": [
          {
            "start": 13234,
            "length": 20
          },
          {
            "start": 13333,
            "length": 20
          }
        ]
      },
      "src/market/libraries/actions/Initialize.sol": {
        "Initialize": [
          {
            "start": 12393,
            "length": 20
          },
          {
            "start": 12534,
            "length": 20
          }
        ]
      },
      "src/market/libraries/actions/Liquidate.sol": {
        "Liquidate": [
          {
            "start": 11832,
            "length": 20
          },
          {
            "start": 11931,
            "length": 20
          },
          {
            "start": 12056,
            "length": 20
          }
        ]
      },
      "src/market/libraries/actions/LiquidateWithReplacement.sol": {
        "LiquidateWithReplacement": [
          {
            "start": 11327,
            "length": 20
          },
          {
            "start": 11426,
            "length": 20
          },
          {
            "start": 11682,
            "length": 20
          }
        ]
      },
      "src/market/libraries/actions/PartialRepay.sol": {
        "PartialRepay": [
          {
            "start": 3660,
            "length": 20
          },
          {
            "start": 3759,
            "length": 20
          }
        ]
      },
      "src/market/libraries/actions/Repay.sol": {
        "Repay": [
          {
            "start": 9766,
            "length": 20
          },
          {
            "start": 9864,
            "length": 20
          }
        ]
      },
      "src/market/libraries/actions/SelfLiquidate.sol": {
        "SelfLiquidate": [
          {
            "start": 7088,
            "length": 20
          },
          {
            "start": 7222,
            "length": 20
          }
        ]
      },
      "src/market/libraries/actions/SellCreditLimit.sol": {
        "SellCreditLimit": [
          {
            "start": 6794,
            "length": 20
          },
          {
            "start": 6893,
            "length": 20
          }
        ]
      },
      "src/market/libraries/actions/SellCreditMarket.sol": {
        "SellCreditMarket": [
          {
            "start": 5464,
            "length": 20
          },
          {
            "start": 5563,
            "length": 20
          },
          {
            "start": 10479,
            "length": 20
          }
        ]
      },
      "src/market/libraries/actions/SetCopyLimitOrderConfigs.sol": {
        "SetCopyLimitOrderConfigs": [
          {
            "start": 9304,
            "length": 20
          },
          {
            "start": 9403,
            "length": 20
          }
        ]
      },
      "src/market/libraries/actions/SetUserConfiguration.sol": {
        "SetUserConfiguration": [
          {
            "start": 4683,
            "length": 20
          },
          {
            "start": 4782,
            "length": 20
          }
        ]
      },
      "src/market/libraries/actions/SetVault.sol": {
        "SetVault": [
          {
            "start": 8905,
            "length": 20
          },
          {
            "start": 9039,
            "length": 20
          }
        ]
      },
      "src/market/libraries/actions/UpdateConfig.sol": {
        "UpdateConfig": [
          {
            "start": 3941,
            "length": 20
          },
          {
            "start": 4040,
            "length": 20
          },
          {
            "start": 4918,
            "length": 20
          },
          {
            "start": 9513,
            "length": 20
          },
          {
            "start": 9645,
            "length": 20
          }
        ]
      },
      "src/market/libraries/actions/Withdraw.sol": {
        "Withdraw": [
          {
            "start": 13060,
            "length": 20
          },
          {
            "start": 13159,
            "length": 20
          }
        ]
      }
    }
  },
  "methodIdentifiers": {
    "DEFAULT_ADMIN_ROLE()": "a217fddf",
    "UPGRADE_INTERFACE_VERSION()": "ad3cb1cc",
    "buyCreditLimit((uint256,(uint256[],int256[],uint256[])))": "3746f858",
    "buyCreditLimitOnBehalfOf(((uint256,(uint256[],int256[],uint256[])),address))": "53e043d4",
    "buyCreditMarket((address,uint256,uint256,uint256,uint256,uint256,bool,uint256,address))": "e236052b",
    "buyCreditMarketOnBehalfOf(((address,uint256,uint256,uint256,uint256,uint256,bool,uint256,address),address,address))": "834dafb5",
    "claim((uint256))": "f45bf01c",
    "collateralRatio(address)": "ca40742c",
    "compensate((uint256,uint256,uint256))": "8e572776",
    "compensateOnBehalfOf(((uint256,uint256,uint256),address))": "3ae6d7c3",
    "data()": "73d4a13a",
    "debtTokenAmountToCollateralTokenAmount(uint256)": "1970e5ea",
    "deposit((address,uint256,address))": "0cf8542f",
    "depositOnBehalfOf(((address,uint256,address),address))": "fa823af5",
    "feeConfig()": "1e5eb1d0",
    "getBorrowOfferAPR(address,uint256,address,uint256)": "1ff75b0b",
    "getBuyCreditMarketSwapData((address,uint256,uint256,uint256,uint256,uint256,bool,uint256,address))": "02088c51",
    "getCreditPosition(uint256)": "76c1b82f",
    "getDebtPosition(uint256)": "b5ec7487",
    "getLoanOfferAPR(address,uint256,address,uint256)": "73b683be",
    "getRoleAdmin(bytes32)": "248a9ca3",
    "getSellCreditMarketSwapData((address,uint256,uint256,uint256,uint256,uint256,bool,uint256,address))": "9ab80115",
    "getUserDefinedBorrowOfferAPR(address,uint256)": "2b59bd99",
    "getUserDefinedCopyBorrowOfferConfig(address)": "c421a759",
    "getUserDefinedCopyLoanOfferConfig(address)": "04c84222",
    "getUserDefinedLoanOfferAPR(address,uint256)": "0d37ab00",
    "getUserView(address)": "5cbc51eb",
    "grantRole(bytes32,address)": "2f2ff15d",
    "hasRole(bytes32,address)": "91d14854",
    "initialize(address,(uint256,uint256,uint256,uint256,uint256,address),(uint256,uint256,uint256,uint256,uint256),(address,uint64),(address,address,address,address,address,address))": "f1bf35c3",
    "isUserDefinedBorrowOfferNull(address)": "0cfa9a49",
    "isUserDefinedLoanOfferNull(address)": "44ce7c30",
    "liquidate((uint256,uint256,uint256))": "e05001f5",
    "liquidateWithReplacement((uint256,address,uint256,uint256,uint256,uint256,address))": "d927acef",
    "multicall(bytes[])": "ac9650d8",
    "oracle()": "7dc0d1d0",
    "partialRepay((uint256,uint256,address))": "02f2855a",
    "pause()": "8456cb59",
    "paused()": "5c975abb",
    "proxiableUUID()": "52d1902d",
    "reinitialize()": "6c2eb350",
    "renounceRole(bytes32,address)": "36568abe",
    "repay((uint256,address))": "7f417c06",
    "revokeRole(bytes32,address)": "d547741f",
    "riskConfig()": "7c90a6ca",
    "selfLiquidate((uint256))": "fd17174a",
    "selfLiquidateOnBehalfOf(((uint256),address,address))": "536b9c79",
    "sellCreditLimit((uint256,(uint256[],int256[],uint256[])))": "ccd8d4d1",
    "sellCreditLimitOnBehalfOf(((uint256,(uint256[],int256[],uint256[])),address))": "4fd9a8a5",
    "sellCreditMarket((address,uint256,uint256,uint256,uint256,uint256,bool,uint256,address))": "8ea68d7e",
    "sellCreditMarketOnBehalfOf(((address,uint256,uint256,uint256,uint256,uint256,bool,uint256,address),address,address))": "3962a686",
    "setCopyLimitOrderConfigs(((uint256,uint256,uint256,uint256,int256),(uint256,uint256,uint256,uint256,int256)))": "cb2e9bdc",
    "setCopyLimitOrderConfigsOnBehalfOf((((uint256,uint256,uint256,uint256,int256),(uint256,uint256,uint256,uint256,int256)),address))": "7a32376a",
    "setUserConfiguration((uint256,bool,bool,uint256[]))": "2e106f21",
    "setUserConfigurationOnBehalfOf(((uint256,bool,bool,uint256[]),address))": "134f3f96",
    "setVault((address,bool))": "510aeb39",
    "setVaultOnBehalfOf(((address,bool),address))": "75829a36",
    "supportsInterface(bytes4)": "01ffc9a7",
    "unpause()": "3f4ba83a",
    "updateConfig((string,uint256))": "0317b9df",
    "upgradeToAndCall(address,bytes)": "4f1ef286",
    "version()": "54fd4d50",
    "withdraw((address,uint256,address))": "2b4c9a20",
    "withdrawOnBehalfOf(((address,uint256,address),address))": "f54ae18b"
  },
  "id": 278
}