{
  "abi": [
    {
      "type": "constructor",
      "inputs": [],
      "stateMutability": "nonpayable"
    },
    {
      "type": "function",
      "name": "DEFAULT_ADMIN_ROLE",
      "inputs": [],
      "outputs": [
        {
          "name": "",
          "type": "bytes32",
          "internalType": "bytes32"
        }
      ],
      "stateMutability": "view"
    },
    {
      "type": "function",
      "name": "UPGRADE_INTERFACE_VERSION",
      "inputs": [],
      "outputs": [
        {
          "name": "",
          "type": "string",
          "internalType": "string"
        }
      ],
      "stateMutability": "view"
    },
    {
      "type": "function",
      "name": "authorizationNonces",
      "inputs": [
        {
          "name": "onBehalfOf",
          "type": "address",
          "internalType": "address"
        }
      ],
      "outputs": [
        {
          "name": "nonce",
          "type": "uint256",
          "internalType": "uint256"
        }
      ],
      "stateMutability": "view"
    },
    {
      "type": "function",
      "name": "authorizations",
      "inputs": [
        {
          "name": "nonce",
          "type": "uint256",
          "internalType": "uint256"
        },
        {
          "name": "operator",
          "type": "address",
          "internalType": "address"
        },
        {
          "name": "onBehalfOf",
          "type": "address",
          "internalType": "address"
        }
      ],
      "outputs": [
        {
          "name": "authorizedActionsBitmap",
          "type": "uint256",
          "internalType": "ActionsBitmap"
        }
      ],
      "stateMutability": "view"
    },
    {
      "type": "function",
      "name": "callMarket",
      "inputs": [
        {
          "name": "market",
          "type": "address",
          "internalType": "contract ISize"
        },
        {
          "name": "data",
          "type": "bytes",
          "internalType": "bytes"
        }
      ],
      "outputs": [
        {
          "name": "result",
          "type": "bytes",
          "internalType": "bytes"
        }
      ],
      "stateMutability": "nonpayable"
    },
    {
      "type": "function",
      "name": "collectionsManager",
      "inputs": [],
      "outputs": [
        {
          "name": "",
          "type": "address",
          "internalType": "contract ICollectionsManager"
        }
      ],
      "stateMutability": "view"
    },
    {
      "type": "function",
      "name": "createBorrowTokenVault",
      "inputs": [
        {
          "name": "variablePool",
          "type": "address",
          "internalType": "contract IPool"
        },
        {
          "name": "underlyingBorrowToken",
          "type": "address",
          "internalType": "contract IERC20Metadata"
        }
      ],
      "outputs": [
        {
          "name": "borrowTokenVault",
          "type": "address",
          "internalType": "contract NonTransferrableRebasingTokenVault"
        }
      ],
      "stateMutability": "nonpayable"
    },
    {
      "type": "function",
      "name": "createMarket",
      "inputs": [
        {
          "name": "feeConfigParams",
          "type": "tuple",
          "internalType": "struct InitializeFeeConfigParams",
          "components": [
            {
              "name": "swapFeeAPR",
              "type": "uint256",
              "internalType": "uint256"
            },
            {
              "name": "fragmentationFee",
              "type": "uint256",
              "internalType": "uint256"
            },
            {
              "name": "liquidationRewardPercent",
              "type": "uint256",
              "internalType": "uint256"
            },
            {
              "name": "overdueCollateralProtocolPercent",
              "type": "uint256",
              "internalType": "uint256"
            },
            {
              "name": "collateralProtocolPercent",
              "type": "uint256",
              "internalType": "uint256"
            },
            {
              "name": "feeRecipient",
              "type": "address",
              "internalType": "address"
            }
          ]
        },
        {
          "name": "riskConfigParams",
          "type": "tuple",
          "internalType": "struct InitializeRiskConfigParams",
          "components": [
            {
              "name": "crOpening",
              "type": "uint256",
              "internalType": "uint256"
            },
            {
              "name": "crLiquidation",
              "type": "uint256",
              "internalType": "uint256"
            },
            {
              "name": "minimumCreditBorrowToken",
              "type": "uint256",
              "internalType": "uint256"
            },
            {
              "name": "minTenor",
              "type": "uint256",
              "internalType": "uint256"
            },
            {
              "name": "maxTenor",
              "type": "uint256",
              "internalType": "uint256"
            }
          ]
        },
        {
          "name": "oracleParams",
          "type": "tuple",
          "internalType": "struct InitializeOracleParams",
          "components": [
            {
              "name": "priceFeed",
              "type": "address",
              "internalType": "address"
            },
            {
              "name": "variablePoolBorrowRateStaleRateInterval",
              "type": "uint64",
              "internalType": "uint64"
            }
          ]
        },
        {
          "name": "dataParams",
          "type": "tuple",
          "internalType": "struct InitializeDataParams",
          "components": [
            {
              "name": "weth",
              "type": "address",
              "internalType": "address"
            },
            {
              "name": "underlyingCollateralToken",
              "type": "address",
              "internalType": "address"
            },
            {
              "name": "underlyingBorrowToken",
              "type": "address",
              "internalType": "address"
            },
            {
              "name": "variablePool",
              "type": "address",
              "internalType": "address"
            },
            {
              "name": "borrowTokenVault",
              "type": "address",
              "internalType": "address"
            },
            {
              "name": "sizeFactory",
              "type": "address",
              "internalType": "address"
            }
          ]
        }
      ],
      "outputs": [
        {
          "name": "market",
          "type": "address",
          "internalType": "contract ISize"
        }
      ],
      "stateMutability": "nonpayable"
    },
    {
      "type": "function",
      "name": "createPriceFeed",
      "inputs": [
        {
          "name": "_priceFeedParams",
          "type": "tuple",
          "internalType": "struct PriceFeedParams",
          "components": [
            {
              "name": "uniswapV3Pool",
              "type": "address",
              "internalType": "contract IUniswapV3Pool"
            },
            {
              "name": "twapWindow",
              "type": "uint32",
              "internalType": "uint32"
            },
            {
              "name": "averageBlockTime",
              "type": "uint32",
              "internalType": "uint32"
            },
            {
              "name": "baseToken",
              "type": "address",
              "internalType": "contract IERC20Metadata"
            },
            {
              "name": "quoteToken",
              "type": "address",
              "internalType": "contract IERC20Metadata"
            },
            {
              "name": "baseAggregator",
              "type": "address",
              "internalType": "contract AggregatorV3Interface"
            },
            {
              "name": "quoteAggregator",
              "type": "address",
              "internalType": "contract AggregatorV3Interface"
            },
            {
              "name": "baseStalePriceInterval",
              "type": "uint256",
              "internalType": "uint256"
            },
            {
              "name": "quoteStalePriceInterval",
              "type": "uint256",
              "internalType": "uint256"
            },
            {
              "name": "sequencerUptimeFeed",
              "type": "address",
              "internalType": "contract AggregatorV3Interface"
            }
          ]
        }
      ],
      "outputs": [
        {
          "name": "priceFeed",
          "type": "address",
          "internalType": "contract PriceFeed"
        }
      ],
      "stateMutability": "nonpayable"
    },
    {
      "type": "function",
      "name": "getBorrowOfferAPR",
      "inputs": [
        {
          "name": "user",
          "type": "address",
          "internalType": "address"
        },
        {
          "name": "collectionId",
          "type": "uint256",
          "internalType": "uint256"
        },
        {
          "name": "market",
          "type": "address",
          "internalType": "contract ISize"
        },
        {
          "name": "rateProvider",
          "type": "address",
          "internalType": "address"
        },
        {
          "name": "tenor",
          "type": "uint256",
          "internalType": "uint256"
        }
      ],
      "outputs": [
        {
          "name": "",
          "type": "uint256",
          "internalType": "uint256"
        }
      ],
      "stateMutability": "view"
    },
    {
      "type": "function",
      "name": "getLoanOfferAPR",
      "inputs": [
        {
          "name": "user",
          "type": "address",
          "internalType": "address"
        },
        {
          "name": "collectionId",
          "type": "uint256",
          "internalType": "uint256"
        },
        {
          "name": "market",
          "type": "address",
          "internalType": "contract ISize"
        },
        {
          "name": "rateProvider",
          "type": "address",
          "internalType": "address"
        },
        {
          "name": "tenor",
          "type": "uint256",
          "internalType": "uint256"
        }
      ],
      "outputs": [
        {
          "name": "",
          "type": "uint256",
          "internalType": "uint256"
        }
      ],
      "stateMutability": "view"
    },
    {
      "type": "function",
      "name": "getMarket",
      "inputs": [
        {
          "name": "index",
          "type": "uint256",
          "internalType": "uint256"
        }
      ],
      "outputs": [
        {
          "name": "",
          "type": "address",
          "internalType": "contract ISize"
        }
      ],
      "stateMutability": "view"
    },
    {
      "type": "function",
      "name": "getMarketDescriptions",
      "inputs": [],
      "outputs": [
        {
          "name": "descriptions",
          "type": "string[]",
          "internalType": "string[]"
        }
      ],
      "stateMutability": "view"
    },
    {
      "type": "function",
      "name": "getMarkets",
      "inputs": [],
      "outputs": [
        {
          "name": "_markets",
          "type": "address[]",
          "internalType": "contract ISize[]"
        }
      ],
      "stateMutability": "view"
    },
    {
      "type": "function",
      "name": "getMarketsCount",
      "inputs": [],
      "outputs": [
        {
          "name": "",
          "type": "uint256",
          "internalType": "uint256"
        }
      ],
      "stateMutability": "view"
    },
    {
      "type": "function",
      "name": "getRoleAdmin",
      "inputs": [
        {
          "name": "role",
          "type": "bytes32",
          "internalType": "bytes32"
        }
      ],
      "outputs": [
        {
          "name": "",
          "type": "bytes32",
          "internalType": "bytes32"
        }
      ],
      "stateMutability": "view"
    },
    {
      "type": "function",
      "name": "grantRole",
      "inputs": [
        {
          "name": "role",
          "type": "bytes32",
          "internalType": "bytes32"
        },
        {
          "name": "account",
          "type": "address",
          "internalType": "address"
        }
      ],
      "outputs": [],
      "stateMutability": "nonpayable"
    },
    {
      "type": "function",
      "name": "hasRole",
      "inputs": [
        {
          "name": "role",
          "type": "bytes32",
          "internalType": "bytes32"
        },
        {
          "name": "account",
          "type": "address",
          "internalType": "address"
        }
      ],
      "outputs": [
        {
          "name": "",
          "type": "bool",
          "internalType": "bool"
        }
      ],
      "stateMutability": "view"
    },
    {
      "type": "function",
      "name": "initialize",
      "inputs": [
        {
          "name": "_owner",
          "type": "address",
          "internalType": "address"
        }
      ],
      "outputs": [],
      "stateMutability": "nonpayable"
    },
    {
      "type": "function",
      "name": "isAuthorized",
      "inputs": [
        {
          "name": "operator",
          "type": "address",
          "internalType": "address"
        },
        {
          "name": "onBehalfOf",
          "type": "address",
          "internalType": "address"
        },
        {
          "name": "action",
          "type": "uint8",
          "internalType": "enum Action"
        }
      ],
      "outputs": [
        {
          "name": "",
          "type": "bool",
          "internalType": "bool"
        }
      ],
      "stateMutability": "view"
    },
    {
      "type": "function",
      "name": "isAuthorizedAll",
      "inputs": [
        {
          "name": "operator",
          "type": "address",
          "internalType": "address"
        },
        {
          "name": "onBehalfOf",
          "type": "address",
          "internalType": "address"
        },
        {
          "name": "actionsBitmap",
          "type": "uint256",
          "internalType": "ActionsBitmap"
        }
      ],
      "outputs": [
        {
          "name": "",
          "type": "bool",
          "internalType": "bool"
        }
      ],
      "stateMutability": "view"
    },
    {
      "type": "function",
      "name": "isBorrowAPRLowerThanLoanOfferAPRs",
      "inputs": [
        {
          "name": "user",
          "type": "address",
          "internalType": "address"
        },
        {
          "name": "borrowAPR",
          "type": "uint256",
          "internalType": "uint256"
        },
        {
          "name": "market",
          "type": "address",
          "internalType": "contract ISize"
        },
        {
          "name": "tenor",
          "type": "uint256",
          "internalType": "uint256"
        }
      ],
      "outputs": [
        {
          "name": "",
          "type": "bool",
          "internalType": "bool"
        }
      ],
      "stateMutability": "view"
    },
    {
      "type": "function",
      "name": "isLoanAPRGreaterThanBorrowOfferAPRs",
      "inputs": [
        {
          "name": "user",
          "type": "address",
          "internalType": "address"
        },
        {
          "name": "loanAPR",
          "type": "uint256",
          "internalType": "uint256"
        },
        {
          "name": "market",
          "type": "address",
          "internalType": "contract ISize"
        },
        {
          "name": "tenor",
          "type": "uint256",
          "internalType": "uint256"
        }
      ],
      "outputs": [
        {
          "name": "",
          "type": "bool",
          "internalType": "bool"
        }
      ],
      "stateMutability": "view"
    },
    {
      "type": "function",
      "name": "isMarket",
      "inputs": [
        {
          "name": "candidate",
          "type": "address",
          "internalType": "address"
        }
      ],
      "outputs": [
        {
          "name": "",
          "type": "bool",
          "internalType": "bool"
        }
      ],
      "stateMutability": "view"
    },
    {
      "type": "function",
      "name": "multicall",
      "inputs": [
        {
          "name": "data",
          "type": "bytes[]",
          "internalType": "bytes[]"
        }
      ],
      "outputs": [
        {
          "name": "results",
          "type": "bytes[]",
          "internalType": "bytes[]"
        }
      ],
      "stateMutability": "nonpayable"
    },
    {
      "type": "function",
      "name": "nonTransferrableTokenVaultImplementation",
      "inputs": [],
      "outputs": [
        {
          "name": "",
          "type": "address",
          "internalType": "address"
        }
      ],
      "stateMutability": "view"
    },
    {
      "type": "function",
      "name": "proxiableUUID",
      "inputs": [],
      "outputs": [
        {
          "name": "",
          "type": "bytes32",
          "internalType": "bytes32"
        }
      ],
      "stateMutability": "view"
    },
    {
      "type": "function",
      "name": "renounceRole",
      "inputs": [
        {
          "name": "role",
          "type": "bytes32",
          "internalType": "bytes32"
        },
        {
          "name": "callerConfirmation",
          "type": "address",
          "internalType": "address"
        }
      ],
      "outputs": [],
      "stateMutability": "nonpayable"
    },
    {
      "type": "function",
      "name": "revokeAllAuthorizations",
      "inputs": [],
      "outputs": [],
      "stateMutability": "nonpayable"
    },
    {
      "type": "function",
      "name": "revokeRole",
      "inputs": [
        {
          "name": "role",
          "type": "bytes32",
          "internalType": "bytes32"
        },
        {
          "name": "account",
          "type": "address",
          "internalType": "address"
        }
      ],
      "outputs": [],
      "stateMutability": "nonpayable"
    },
    {
      "type": "function",
      "name": "setAuthorization",
      "inputs": [
        {
          "name": "operator",
          "type": "address",
          "internalType": "address"
        },
        {
          "name": "actionsBitmap",
          "type": "uint256",
          "internalType": "ActionsBitmap"
        }
      ],
      "outputs": [],
      "stateMutability": "nonpayable"
    },
    {
      "type": "function",
      "name": "setCollectionsManager",
      "inputs": [
        {
          "name": "_collectionsManager",
          "type": "address",
          "internalType": "contract ICollectionsManager"
        }
      ],
      "outputs": [],
      "stateMutability": "nonpayable"
    },
    {
      "type": "function",
      "name": "setNonTransferrableRebasingTokenVaultImplementation",
      "inputs": [
        {
          "name": "_nonTransferrableTokenVaultImplementation",
          "type": "address",
          "internalType": "address"
        }
      ],
      "outputs": [],
      "stateMutability": "nonpayable"
    },
    {
      "type": "function",
      "name": "setSizeImplementation",
      "inputs": [
        {
          "name": "_sizeImplementation",
          "type": "address",
          "internalType": "address"
        }
      ],
      "outputs": [],
      "stateMutability": "nonpayable"
    },
    {
      "type": "function",
      "name": "setUserCollectionCopyLimitOrderConfigs",
      "inputs": [
        {
          "name": "collectionId",
          "type": "uint256",
          "internalType": "uint256"
        },
        {
          "name": "copyLoanOfferConfig",
          "type": "tuple",
          "internalType": "struct CopyLimitOrderConfig",
          "components": [
            {
              "name": "minTenor",
              "type": "uint256",
              "internalType": "uint256"
            },
            {
              "name": "maxTenor",
              "type": "uint256",
              "internalType": "uint256"
            },
            {
              "name": "minAPR",
              "type": "uint256",
              "internalType": "uint256"
            },
            {
              "name": "maxAPR",
              "type": "uint256",
              "internalType": "uint256"
            },
            {
              "name": "offsetAPR",
              "type": "int256",
              "internalType": "int256"
            }
          ]
        },
        {
          "name": "copyBorrowOfferConfig",
          "type": "tuple",
          "internalType": "struct CopyLimitOrderConfig",
          "components": [
            {
              "name": "minTenor",
              "type": "uint256",
              "internalType": "uint256"
            },
            {
              "name": "maxTenor",
              "type": "uint256",
              "internalType": "uint256"
            },
            {
              "name": "minAPR",
              "type": "uint256",
              "internalType": "uint256"
            },
            {
              "name": "maxAPR",
              "type": "uint256",
              "internalType": "uint256"
            },
            {
              "name": "offsetAPR",
              "type": "int256",
              "internalType": "int256"
            }
          ]
        }
      ],
      "outputs": [],
      "stateMutability": "nonpayable"
    },
    {
      "type": "function",
      "name": "setUserCollectionCopyLimitOrderConfigsOnBehalfOf",
      "inputs": [
        {
          "name": "collectionId",
          "type": "uint256",
          "internalType": "uint256"
        },
        {
          "name": "copyLoanOfferConfig",
          "type": "tuple",
          "internalType": "struct CopyLimitOrderConfig",
          "components": [
            {
              "name": "minTenor",
              "type": "uint256",
              "internalType": "uint256"
            },
            {
              "name": "maxTenor",
              "type": "uint256",
              "internalType": "uint256"
            },
            {
              "name": "minAPR",
              "type": "uint256",
              "internalType": "uint256"
            },
            {
              "name": "maxAPR",
              "type": "uint256",
              "internalType": "uint256"
            },
            {
              "name": "offsetAPR",
              "type": "int256",
              "internalType": "int256"
            }
          ]
        },
        {
          "name": "copyBorrowOfferConfig",
          "type": "tuple",
          "internalType": "struct CopyLimitOrderConfig",
          "components": [
            {
              "name": "minTenor",
              "type": "uint256",
              "internalType": "uint256"
            },
            {
              "name": "maxTenor",
              "type": "uint256",
              "internalType": "uint256"
            },
            {
              "name": "minAPR",
              "type": "uint256",
              "internalType": "uint256"
            },
            {
              "name": "maxAPR",
              "type": "uint256",
              "internalType": "uint256"
            },
            {
              "name": "offsetAPR",
              "type": "int256",
              "internalType": "int256"
            }
          ]
        },
        {
          "name": "onBehalfOf",
          "type": "address",
          "internalType": "address"
        }
      ],
      "outputs": [],
      "stateMutability": "nonpayable"
    },
    {
      "type": "function",
      "name": "sizeImplementation",
      "inputs": [],
      "outputs": [
        {
          "name": "",
          "type": "address",
          "internalType": "address"
        }
      ],
      "stateMutability": "view"
    },
    {
      "type": "function",
      "name": "subscribeToCollections",
      "inputs": [
        {
          "name": "collectionIds",
          "type": "uint256[]",
          "internalType": "uint256[]"
        }
      ],
      "outputs": [],
      "stateMutability": "nonpayable"
    },
    {
      "type": "function",
      "name": "subscribeToCollectionsOnBehalfOf",
      "inputs": [
        {
          "name": "collectionIds",
          "type": "uint256[]",
          "internalType": "uint256[]"
        },
        {
          "name": "onBehalfOf",
          "type": "address",
          "internalType": "address"
        }
      ],
      "outputs": [],
      "stateMutability": "nonpayable"
    },
    {
      "type": "function",
      "name": "supportsInterface",
      "inputs": [
        {
          "name": "interfaceId",
          "type": "bytes4",
          "internalType": "bytes4"
        }
      ],
      "outputs": [
        {
          "name": "",
          "type": "bool",
          "internalType": "bool"
        }
      ],
      "stateMutability": "view"
    },
    {
      "type": "function",
      "name": "unsubscribeFromCollections",
      "inputs": [
        {
          "name": "collectionIds",
          "type": "uint256[]",
          "internalType": "uint256[]"
        }
      ],
      "outputs": [],
      "stateMutability": "nonpayable"
    },
    {
      "type": "function",
      "name": "unsubscribeFromCollectionsOnBehalfOf",
      "inputs": [
        {
          "name": "collectionIds",
          "type": "uint256[]",
          "internalType": "uint256[]"
        },
        {
          "name": "onBehalfOf",
          "type": "address",
          "internalType": "address"
        }
      ],
      "outputs": [],
      "stateMutability": "nonpayable"
    },
    {
      "type": "function",
      "name": "upgradeToAndCall",
      "inputs": [
        {
          "name": "newImplementation",
          "type": "address",
          "internalType": "address"
        },
        {
          "name": "data",
          "type": "bytes",
          "internalType": "bytes"
        }
      ],
      "outputs": [],
      "stateMutability": "payable"
    },
    {
      "type": "function",
      "name": "version",
      "inputs": [],
      "outputs": [
        {
          "name": "",
          "type": "string",
          "internalType": "string"
        }
      ],
      "stateMutability": "pure"
    },
    {
      "type": "event",
      "name": "CollectionsManagerSet",
      "inputs": [
        {
          "name": "oldCollectionsManager",
          "type": "address",
          "indexed": true,
          "internalType": "address"
        },
        {
          "name": "newCollectionsManager",
          "type": "address",
          "indexed": true,
          "internalType": "address"
        }
      ],
      "anonymous": false
    },
    {
      "type": "event",
      "name": "CreateBorrowTokenVault",
      "inputs": [
        {
          "name": "borrowTokenVault",
          "type": "address",
          "indexed": true,
          "internalType": "address"
        }
      ],
      "anonymous": false
    },
    {
      "type": "event",
      "name": "CreateMarket",
      "inputs": [
        {
          "name": "market",
          "type": "address",
          "indexed": true,
          "internalType": "address"
        }
      ],
      "anonymous": false
    },
    {
      "type": "event",
      "name": "CreatePriceFeed",
      "inputs": [
        {
          "name": "priceFeed",
          "type": "address",
          "indexed": true,
          "internalType": "address"
        }
      ],
      "anonymous": false
    },
    {
      "type": "event",
      "name": "Initialized",
      "inputs": [
        {
          "name": "version",
          "type": "uint64",
          "indexed": false,
          "internalType": "uint64"
        }
      ],
      "anonymous": false
    },
    {
      "type": "event",
      "name": "NonTransferrableRebasingTokenVaultImplementationSet",
      "inputs": [
        {
          "name": "oldNonTransferrableRebasingTokenVaultImplementation",
          "type": "address",
          "indexed": true,
          "internalType": "address"
        },
        {
          "name": "newNonTransferrableRebasingTokenVaultImplementation",
          "type": "address",
          "indexed": true,
          "internalType": "address"
        }
      ],
      "anonymous": false
    },
    {
      "type": "event",
      "name": "RevokeAllAuthorizations",
      "inputs": [
        {
          "name": "sender",
          "type": "address",
          "indexed": true,
          "internalType": "address"
        }
      ],
      "anonymous": false
    },
    {
      "type": "event",
      "name": "RoleAdminChanged",
      "inputs": [
        {
          "name": "role",
          "type": "bytes32",
          "indexed": true,
          "internalType": "bytes32"
        },
        {
          "name": "previousAdminRole",
          "type": "bytes32",
          "indexed": true,
          "internalType": "bytes32"
        },
        {
          "name": "newAdminRole",
          "type": "bytes32",
          "indexed": true,
          "internalType": "bytes32"
        }
      ],
      "anonymous": false
    },
    {
      "type": "event",
      "name": "RoleGranted",
      "inputs": [
        {
          "name": "role",
          "type": "bytes32",
          "indexed": true,
          "internalType": "bytes32"
        },
        {
          "name": "account",
          "type": "address",
          "indexed": true,
          "internalType": "address"
        },
        {
          "name": "sender",
          "type": "address",
          "indexed": true,
          "internalType": "address"
        }
      ],
      "anonymous": false
    },
    {
      "type": "event",
      "name": "RoleRevoked",
      "inputs": [
        {
          "name": "role",
          "type": "bytes32",
          "indexed": true,
          "internalType": "bytes32"
        },
        {
          "name": "account",
          "type": "address",
          "indexed": true,
          "internalType": "address"
        },
        {
          "name": "sender",
          "type": "address",
          "indexed": true,
          "internalType": "address"
        }
      ],
      "anonymous": false
    },
    {
      "type": "event",
      "name": "SetAuthorization",
      "inputs": [
        {
          "name": "sender",
          "type": "address",
          "indexed": true,
          "internalType": "address"
        },
        {
          "name": "operator",
          "type": "address",
          "indexed": true,
          "internalType": "address"
        },
        {
          "name": "actionsBitmap",
          "type": "uint256",
          "indexed": true,
          "internalType": "uint256"
        },
        {
          "name": "nonce",
          "type": "uint256",
          "indexed": false,
          "internalType": "uint256"
        }
      ],
      "anonymous": false
    },
    {
      "type": "event",
      "name": "SizeImplementationSet",
      "inputs": [
        {
          "name": "oldSizeImplementation",
          "type": "address",
          "indexed": true,
          "internalType": "address"
        },
        {
          "name": "newSizeImplementation",
          "type": "address",
          "indexed": true,
          "internalType": "address"
        }
      ],
      "anonymous": false
    },
    {
      "type": "event",
      "name": "Upgraded",
      "inputs": [
        {
          "name": "implementation",
          "type": "address",
          "indexed": true,
          "internalType": "address"
        }
      ],
      "anonymous": false
    },
    {
      "type": "error",
      "name": "AccessControlBadConfirmation",
      "inputs": []
    },
    {
      "type": "error",
      "name": "AccessControlUnauthorizedAccount",
      "inputs": [
        {
          "name": "account",
          "type": "address",
          "internalType": "address"
        },
        {
          "name": "neededRole",
          "type": "bytes32",
          "internalType": "bytes32"
        }
      ]
    },
    {
      "type": "error",
      "name": "AddressEmptyCode",
      "inputs": [
        {
          "name": "target",
          "type": "address",
          "internalType": "address"
        }
      ]
    },
    {
      "type": "error",
      "name": "ERC1967InvalidImplementation",
      "inputs": [
        {
          "name": "implementation",
          "type": "address",
          "internalType": "address"
        }
      ]
    },
    {
      "type": "error",
      "name": "ERC1967NonPayable",
      "inputs": []
    },
    {
      "type": "error",
      "name": "FailedCall",
      "inputs": []
    },
    {
      "type": "error",
      "name": "INVALID_ACTIONS_BITMAP",
      "inputs": [
        {
          "name": "actionsBitmap",
          "type": "uint256",
          "internalType": "uint256"
        }
      ]
    },
    {
      "type": "error",
      "name": "INVALID_MARKET",
      "inputs": [
        {
          "name": "market",
          "type": "address",
          "internalType": "address"
        }
      ]
    },
    {
      "type": "error",
      "name": "InsufficientBalance",
      "inputs": [
        {
          "name": "balance",
          "type": "uint256",
          "internalType": "uint256"
        },
        {
          "name": "needed",
          "type": "uint256",
          "internalType": "uint256"
        }
      ]
    },
    {
      "type": "error",
      "name": "InvalidInitialization",
      "inputs": []
    },
    {
      "type": "error",
      "name": "NULL_ADDRESS",
      "inputs": []
    },
    {
      "type": "error",
      "name": "NotInitializing",
      "inputs": []
    },
    {
      "type": "error",
      "name": "UNAUTHORIZED_ACTION",
      "inputs": [
        {
          "name": "account",
          "type": "address",
          "internalType": "address"
        },
        {
          "name": "onBehalfOf",
          "type": "address",
          "internalType": "address"
        },
        {
          "name": "action",
          "type": "uint8",
          "internalType": "uint8"
        }
      ]
    },
    {
      "type": "error",
      "name": "UUPSUnauthorizedCallContext",
      "inputs": []
    },
    {
      "type": "error",
      "name": "UUPSUnsupportedProxiableUUID",
      "inputs": [
        {
          "name": "slot",
          "type": "bytes32",
          "internalType": "bytes32"
        }
      ]
    }
  ],
  "bytecode": {
    "object": "0x60a06040523060805234801562000014575f80fd5b506200001f62000025565b620000d9565b7ff0c57e16840df040f15088dc2f81fe391c3923bec73e23a9662efc9c229c6a00805468010000000000000000900460ff1615620000765760405163f92ee8a960e01b815260040160405180910390fd5b80546001600160401b0390811614620000d65780546001600160401b0319166001600160401b0390811782556040519081527fc7f505b2f371ae2175ee4913f4499e1f2633a7b5936321eed1cdaeb6115181d29060200160405180910390a15b50565b608051613208620001005f395f81816119ea01528181611a130152611b5601526132085ff3fe60806040526004361061025f575f3560e01c806386eeeb5a1161013f578063ad3cb1cc116100b3578063d152e23611610078578063d152e23614610762578063d547741f14610781578063e8d353c7146107a0578063eb44fdd3146107bf578063ec2c9016146107de578063f0fb716f146107ff575f80fd5b8063ad3cb1cc146106b6578063b1ef804d146106e6578063b4cd6bd114610705578063c4d66de814610724578063c8fb624714610743575f80fd5b80639e42bfa3116101045780639e42bfa3146106065780639feffdb014610625578063a217fddf14610644578063a78ec6ae14610657578063a7b2b31014610676578063ac9650d81461068a575f80fd5b806386eeeb5a1461056b57806388d765201461058a57806391c769ce146105a957806391d14854146105c8578063973cf867146105e7575f80fd5b806352d1902d116101d65780636ec934da1161019b5780636ec934da146104865780636ed41835146104a5578063732218f9146104c45780637643d7ec146104e35780637b8dedad1461050457806381de274c14610540575f80fd5b806352d1902d146103de57806354fd4d50146103f25780635ec49544146104295780635fb7f10c14610448578063678b9bad14610467575f80fd5b806327fa35c31161022757806327fa35c31461033b5780632f2ff15d1461034f57806336568abe1461036e57806337c11b2a1461038d578063495e6d89146103ac5780634f1ef286146103cb575f80fd5b806301a6c8721461026357806301ffc9a7146102845780631286a2dc146102b85780631e4fcddb146102ef578063248a9ca31461030e575b5f80fd5b34801561026e575f80fd5b5061028261027d36600461222c565b61081e565b005b34801561028f575f80fd5b506102a361029e366004612247565b610884565b60405190151581526020015b60405180910390f35b3480156102c3575f80fd5b506007546102d7906001600160a01b031681565b6040516001600160a01b0390911681526020016102af565b3480156102fa575f80fd5b5061028261030936600461222c565b6108ba565b348015610319575f80fd5b5061032d61032836600461227e565b610947565b6040519081526020016102af565b348015610346575f80fd5b5061032d610967565b34801561035a575f80fd5b50610282610369366004612295565b610976565b348015610379575f80fd5b50610282610388366004612295565b610998565b348015610398575f80fd5b50600a546102d7906001600160a01b031681565b3480156103b7575f80fd5b5061032d6103c63660046122c3565b6109d0565b6102826103d93660046123cf565b610a67565b3480156103e9575f80fd5b5061032d610a86565b3480156103fd575f80fd5b5060408051808201909152600681526576312e382e3160d01b60208201525b6040516102af91906124a8565b348015610434575f80fd5b5061041c6104433660046124ba565b610aa1565b348015610453575f80fd5b5061032d6104623660046122c3565b610b20565b348015610472575f80fd5b506102a3610481366004612537565b610b70565b348015610491575f80fd5b506102a36104a036600461222c565b610bf3565b3480156104b0575f80fd5b506102826104bf3660046125c8565b610bfe565b3480156104cf575f80fd5b506102826104de366004612680565b610c0a565b3480156104ee575f80fd5b506104f7610cb8565b6040516102af91906126c3565b34801561050f575f80fd5b5061032d61051e366004612725565b600860209081525f938452604080852082529284528284209052825290205481565b34801561054b575f80fd5b5061032d61055a36600461222c565b60096020525f908152604090205481565b348015610576575f80fd5b506102a3610585366004612764565b610fe6565b348015610595575f80fd5b506102826105a43660046127a4565b611056565b3480156105b4575f80fd5b506102826105c33660046127f4565b6110d8565b3480156105d3575f80fd5b506102a36105e2366004612295565b6110e3565b3480156105f2575f80fd5b506006546102d7906001600160a01b031681565b348015610611575f80fd5b5061028261062036600461281e565b611119565b348015610630575f80fd5b506102a361063f366004612537565b611126565b34801561064f575f80fd5b5061032d5f81565b348015610662575f80fd5b506102a361067136600461284f565b61116e565b348015610681575f80fd5b506102826111d3565b348015610695575f80fd5b506106a96106a436600461288d565b61121e565b6040516102af91906128fb565b3480156106c1575f80fd5b5061041c604051806040016040528060058152602001640352e302e360dc1b81525081565b3480156106f1575f80fd5b50610282610700366004612680565b611303565b348015610710575f80fd5b5061028261071f36600461222c565b61134e565b34801561072f575f80fd5b5061028261073e36600461222c565b6113db565b34801561074e575f80fd5b5061028261075d36600461281e565b61156c565b34801561076d575f80fd5b506102d761077c366004612963565b611576565b34801561078c575f80fd5b5061028261079b366004612295565b611633565b3480156107ab575f80fd5b506102d76107ba366004612a1c565b61164f565b3480156107ca575f80fd5b506102d76107d936600461227e565b61172e565b3480156107e9575f80fd5b506107f2611739565b6040516102af9190612a48565b34801561080a575f80fd5b506102d7610819366004612aaa565b6117ce565b5f610828816118b2565b600a546040516001600160a01b038085169216907f24b8a2b6435960c7b1b405f08e684a0ed2e4d467b56f325250b56e2a10dbabae905f90a350600a80546001600160a01b0319166001600160a01b0392909216919091179055565b5f6001600160e01b03198216637965db0b60e01b14806108b457506301ffc9a760e01b6001600160e01b03198316145b92915050565b5f6108c4816118b2565b6001600160a01b0382166108eb5760405163de0ce17d60e01b815260040160405180910390fd5b6007546040516001600160a01b038085169216907faefd875bf3940c57f185da0affbb82ce03656890d6e1d29310e8b4bf9d20b7c1905f90a350600780546001600160a01b0319166001600160a01b0392909216919091179055565b5f9081525f805160206131b3833981519152602052604090206001015490565b5f6109715f6118bc565b905090565b61097f82610947565b610988816118b2565b61099283836118c5565b50505050565b6001600160a01b03811633146109c15760405163334bd91960e11b815260040160405180910390fd5b6109cb8282611966565b505050565b600a5460405163495e6d8960e01b81526001600160a01b0387811660048301526024820187905285811660448301528481166064830152608482018490525f92169063495e6d899060a4015b602060405180830381865afa158015610a37573d5f803e3d5ffd5b505050506040513d601f19601f82011682018060405250810190610a5b9190612b15565b90505b95945050505050565b610a6f6119df565b610a7882611a85565b610a828282611a8f565b5050565b5f610a8f611b4b565b505f8051602061319383398151915290565b6060610aac84610bf3565b610ad95760405163e2a7bea360e01b81526001600160a01b03851660048201526024015b60405180910390fd5b610b188484848080601f0160208091040260200160405190810160405280939291908181526020018383808284375f92019190915250611b9492505050565b949350505050565b600a546040516317edfc4360e21b81526001600160a01b0387811660048301526024820187905285811660448301528481166064830152608482018490525f921690635fb7f10c9060a401610a1c565b600a5460405163678b9bad60e01b81526001600160a01b038681166004830152602482018690528481166044830152606482018490525f92169063678b9bad906084015b602060405180830381865afa158015610bcf573d5f803e3d5ffd5b505050506040513d601f19601f82011682018060405250810190610a5e9190612b2c565b5f6108b48183611ba1565b6109cb83838333611056565b610c163382600b610fe6565b610c55573381600b5b60405163062709f360e41b81526001600160a01b03938416600482015292909116602483015260ff166044820152606401610ad0565b600a546040516301bc3d7160e71b81526001600160a01b039091169063de1eb88090610c879084908690600401612b5f565b5f604051808303815f87803b158015610c9e575f80fd5b505af1158015610cb0573d5f803e3d5ffd5b505050505050565b6060610cc35f6118bc565b6001600160401b03811115610cda57610cda61231a565b604051908082528060200260200182016040528015610d0d57816020015b6060815260200190600190039081610cf85790505b5090505f5b8151811015610fe2575f610d268183611bc2565b90505f610da06064836001600160a01b0316637c90a6ca6040518163ffffffff1660e01b815260040160a060405180830381865afa158015610d6a573d5f803e3d5ffd5b505050506040513d601f19601f82011682018060405250810190610d8e9190612bb4565b60200151670de0b6b3a7640000611bcd565b9050816001600160a01b03166373d4a13a6040518163ffffffff1660e01b815260040161010060405180830381865afa158015610ddf573d5f803e3d5ffd5b505050506040513d601f19601f82011682018060405250810190610e039190612c0d565b604001516001600160a01b03166395d89b416040518163ffffffff1660e01b81526004015f60405180830381865afa158015610e41573d5f803e3d5ffd5b505050506040513d5f823e601f3d908101601f19168201604052610e689190810190612cc6565b826001600160a01b03166373d4a13a6040518163ffffffff1660e01b815260040161010060405180830381865afa158015610ea5573d5f803e3d5ffd5b505050506040513d601f19601f82011682018060405250810190610ec99190612c0d565b606001516001600160a01b03166395d89b416040518163ffffffff1660e01b81526004015f60405180830381865afa158015610f07573d5f803e3d5ffd5b505050506040513d5f823e601f3d908101601f19168201604052610f2e9190810190612cc6565b610f3783611bd9565b846001600160a01b03166354fd4d506040518163ffffffff1660e01b81526004015f60405180830381865afa158015610f72573d5f803e3d5ffd5b505050506040513d5f823e601f3d908101601f19168201604052610f999190810190612cc6565b604051602001610fac9493929190612d2e565b604051602081830303815290604052848481518110610fcd57610fcd612dba565b60209081029190910101525050600101610d12565b5090565b5f826001600160a01b0316846001600160a01b0316036110085750600161104f565b6001600160a01b038084165f8181526009602090815260408083205480845260088352818420958a168452948252808320938352929052205461104b9084611c68565b9150505b9392505050565b6110623382600b610fe6565b61106f573381600b610c1f565b600a546040516318d5932d60e01b81526001600160a01b03909116906318d5932d906110a5908490889088908890600401612dce565b5f604051808303815f87803b1580156110bc575f80fd5b505af11580156110ce573d5f803e3d5ffd5b5050505050505050565b610a82823383611c8a565b5f9182525f805160206131b3833981519152602090815260408084206001600160a01b0393909316845291905290205460ff1690565b6111238133610c0a565b50565b600a546040516309feffdb60e41b81526001600160a01b038681166004830152602482018690528481166044830152606482018490525f921690639feffdb090608401610bb4565b5f826001600160a01b0316846001600160a01b0316036111905750600161104f565b506001600160a01b038281165f8181526009602090815260408083205483526008825280832094881683529381528382209282529190915220548116811461104f565b60405133907fecbee29490a7e5456f4e3aab0700477764e3f16dda5a21ea92f43f1cfcb15799905f90a2335f90815260096020526040812080549161121783612e6a565b9190505550565b604080515f815260208101909152606090826001600160401b038111156112475761124761231a565b60405190808252806020026020018201604052801561127a57816020015b60608152602001906001900390816112655790505b5091505f5b838110156112fb576112d63086868481811061129d5761129d612dba565b90506020028101906112af9190612e95565b856040516020016112c293929190612ede565b604051602081830303815290604052611d72565b8382815181106112e8576112e8612dba565b602090810291909101015260010161127f565b505092915050565b61130f3382600b610fe6565b61131c573381600b610c1f565b600a546040516393c0d3f360e01b81526001600160a01b03909116906393c0d3f390610c879084908690600401612b5f565b5f611358816118b2565b6001600160a01b03821661137f5760405163de0ce17d60e01b815260040160405180910390fd5b6006546040516001600160a01b038085169216907ffb3d0b43c5121de915eeb8fa2fb4bb792b6b05d5d6f3df7630aac9d9e8697312905f90a350600680546001600160a01b0319166001600160a01b0392909216919091179055565b5f6113e4611ddb565b805490915060ff600160401b82041615906001600160401b03165f8115801561140a5750825b90505f826001600160401b031660011480156114255750303b155b905081158015611433575080155b156114515760405163f92ee8a960e01b815260040160405180910390fd5b845467ffffffffffffffff19166001178555831561147b57845460ff60401b1916600160401b1785555b611483611e03565b61148b611e03565b611493611e03565b61149d5f876118c5565b506114c87f65d7a28e3265b37a6474929f336521b332c1681b933f6cb9f3376673440d862a876118c5565b506114f37ffc8737ab85eb45125971625a9ebdb75cc78e01d5c1fa80c4c6e5203f47bc4fab876118c5565b5061151e7f1eae1854c74a696c6de86fd3c6383d5c1e2c33fbc86e1aa6b6c872d95bd24038876118c5565b508315610cb057845460ff60401b19168555604051600181527fc7f505b2f371ae2175ee4913f4499e1f2633a7b5936321eed1cdaeb6115181d29060200160405180910390a1505050505050565b6111238133611303565b5f80611581816118b2565b60405163145b6cb960e11b815273__$8498e19059e8c9c59d07dfb635c44386c6$__906328b6d972906115b8908690600401612f03565b602060405180830381865af41580156115d3573d5f803e3d5ffd5b505050506040513d601f19601f820116820180604052508101906115f79190612fe0565b6040519092506001600160a01b038316907f970cbcaabfe7c54976df22e530fb6ef3a9202796c410ae94972a9b109d5b2ca8905f90a250919050565b61163c82610947565b611645816118b2565b6109928383611966565b5f8061165a816118b2565b6007546040516302a8408560e11b81526001600160a01b03918216600482015233602482018190528683166044830152918516606482015273__$c583a0fe7c050ce40cdddde89e71ac1899$__90630550810a90608401602060405180830381865af41580156116cc573d5f803e3d5ffd5b505050506040513d601f19601f820116820180604052508101906116f09190612fe0565b6040519093506001600160a01b038416907f798adeb18dd44bd81e89d3ab4aa52d11e6d22b3ab80b11da6844ec0eda2a0810905f90a2505092915050565b5f6108b48183611bc2565b60606117445f6118bc565b6001600160401b0381111561175b5761175b61231a565b604051908082528060200260200182016040528015611784578160200160208202803683370190505b5090505f5b8151811015610fe25761179c5f82611bc2565b8282815181106117ae576117ae612dba565b6001600160a01b0390921660209283029190910190910152600101611789565b5f806117d9816118b2565b60065460405163d41bcfc560e01b8152339173__$74708c40afd3f014cbcff13274aefc3e53$__9163d41bcfc591611829916001600160a01b039091169085908c908c908c908c906004016130c8565b602060405180830381865af4158015611844573d5f803e3d5ffd5b505050506040513d601f19601f820116820180604052508101906118689190612fe0565b92506118745f84611e0b565b506040516001600160a01b038416907ffa970ff5f178441bbe297db8d35a584c9bd6628b17b82d80dc8f5b80063102ca905f90a25050949350505050565b6111238133611e1f565b5f6108b4825490565b5f5f805160206131b38339815191526118de84846110e3565b61195d575f848152602082815260408083206001600160a01b03871684529091529020805460ff191660011790556119133390565b6001600160a01b0316836001600160a01b0316857f2f8788117e7eff1d82e926ec794901d17c78024a50270940304540a733656f0d60405160405180910390a460019150506108b4565b5f9150506108b4565b5f5f805160206131b383398151915261197f84846110e3565b1561195d575f848152602082815260408083206001600160a01b0387168085529252808320805460ff1916905551339287917ff6391f5c32d9c69d2a47ea670b442974b53935d1edc7fd64eb21e047a839171b9190a460019150506108b4565b306001600160a01b037f0000000000000000000000000000000000000000000000000000000000000000161480611a6557507f00000000000000000000000000000000000000000000000000000000000000006001600160a01b0316611a595f80516020613193833981519152546001600160a01b031690565b6001600160a01b031614155b15611a835760405163703e46dd60e11b815260040160405180910390fd5b565b5f610a82816118b2565b816001600160a01b03166352d1902d6040518163ffffffff1660e01b8152600401602060405180830381865afa925050508015611ae9575060408051601f3d908101601f19168201909252611ae691810190612b15565b60015b611b1157604051634c9c8ce360e01b81526001600160a01b0383166004820152602401610ad0565b5f805160206131938339815191528114611b4157604051632a87526960e21b815260048101829052602401610ad0565b6109cb8383611e58565b306001600160a01b037f00000000000000000000000000000000000000000000000000000000000000001614611a835760405163703e46dd60e11b815260040160405180910390fd5b606061104f83835f611ead565b6001600160a01b0381165f908152600183016020526040812054151561104f565b5f61104f8383611f4d565b5f610b18848484611f73565b60605f611be583611f97565b60010190505f816001600160401b03811115611c0357611c0361231a565b6040519080825280601f01601f191660200182016040528015611c2d576020820181803683370190505b5090508181016020015b5f19016f181899199a1a9b1b9c1cb0b131b232b360811b600a86061a8153600a8504945084611c3757509392505050565b5f81600c811115611c7b57611c7b612b4b565b6001901b831615159392505050565b6001600160a01b038316611cb15760405163de0ce17d60e01b815260040160405180910390fd5b611cba8161206e565b611cda57604051632e40743360e01b815260048101829052602401610ad0565b6001600160a01b0382165f9081526009602052604090205481846001600160a01b0316846001600160a01b03167f89733de2d64cea40de091169750607b26e8d46142312fba65fb6476c790bad4984604051611d3891815260200190565b60405180910390a45f9081526008602090815260408083206001600160a01b03968716845282528083209490951682529290925291902055565b60605f80846001600160a01b031684604051611d8e9190613177565b5f60405180830381855af49150503d805f8114611dc6576040519150601f19603f3d011682016040523d82523d5f602084013e611dcb565b606091505b5091509150610a5e858383612087565b5f807ff0c57e16840df040f15088dc2f81fe391c3923bec73e23a9662efc9c229c6a006108b4565b611a836120e3565b5f61104f836001600160a01b038416612108565b611e2982826110e3565b610a825760405163e2517d3f60e01b81526001600160a01b038216600482015260248101839052604401610ad0565b611e6182612154565b6040516001600160a01b038316907fbc7cd75a20ee27fd9adebab32041f755214dbc6bffa90cc0225b39da2e5c2d3b905f90a2805115611ea5576109cb8282611d72565b610a826121b7565b606081471015611ed95760405163cf47918160e01b815247600482015260248101839052604401610ad0565b5f80856001600160a01b03168486604051611ef49190613177565b5f6040518083038185875af1925050503d805f8114611f2e576040519150601f19603f3d011682016040523d82523d5f602084013e611f33565b606091505b5091509150611f43868383612087565b9695505050505050565b5f825f018281548110611f6257611f62612dba565b905f5260205f200154905092915050565b5f825f190484118302158202611f905763ad251c275f526004601cfd5b5091020490565b5f8072184f03e93ff9f4daa797ed6e38ed64bf6a1f0160401b8310611fd55772184f03e93ff9f4daa797ed6e38ed64bf6a1f0160401b830492506040015b6d04ee2d6d415b85acef81000000008310612001576d04ee2d6d415b85acef8100000000830492506020015b662386f26fc10000831061201f57662386f26fc10000830492506010015b6305f5e1008310612037576305f5e100830492506008015b612710831061204b57612710830492506004015b6064831061205d576064830492506002015b600a83106108b45760010192915050565b5f8061207d6001611000612e82565b9092111592915050565b60608261209c57612097826121d6565b61104f565b81511580156120b357506001600160a01b0384163b155b156120dc57604051639996b31560e01b81526001600160a01b0385166004820152602401610ad0565b508061104f565b6120eb6121ff565b611a8357604051631afcd79f60e31b815260040160405180910390fd5b5f81815260018301602052604081205461214d57508154600181810184555f8481526020808220909301849055845484825282860190935260409020919091556108b4565b505f6108b4565b806001600160a01b03163b5f0361218957604051634c9c8ce360e01b81526001600160a01b0382166004820152602401610ad0565b5f8051602061319383398151915280546001600160a01b0319166001600160a01b0392909216919091179055565b3415611a835760405163b398979f60e01b815260040160405180910390fd5b8051156121e65780518082602001fd5b60405163d6bda27560e01b815260040160405180910390fd5b5f612208611ddb565b54600160401b900460ff16919050565b6001600160a01b0381168114611123575f80fd5b5f6020828403121561223c575f80fd5b813561104f81612218565b5f60208284031215612257575f80fd5b81356001600160e01b03198116811461104f575f80fd5b803561227981612218565b919050565b5f6020828403121561228e575f80fd5b5035919050565b5f80604083850312156122a6575f80fd5b8235915060208301356122b881612218565b809150509250929050565b5f805f805f60a086880312156122d7575f80fd5b85356122e281612218565b94506020860135935060408601356122f981612218565b9250606086013561230981612218565b949793965091946080013592915050565b634e487b7160e01b5f52604160045260245ffd5b60405160a081016001600160401b03811182821017156123505761235061231a565b60405290565b60405161014081016001600160401b03811182821017156123505761235061231a565b604051601f8201601f191681016001600160401b03811182821017156123a1576123a161231a565b604052919050565b5f6001600160401b038211156123c1576123c161231a565b50601f01601f191660200190565b5f80604083850312156123e0575f80fd5b82356123eb81612218565b915060208301356001600160401b03811115612405575f80fd5b8301601f81018513612415575f80fd5b8035612428612423826123a9565b612379565b81815286602083850101111561243c575f80fd5b816020840160208301375f602083830101528093505050509250929050565b5f5b8381101561247557818101518382015260200161245d565b50505f910152565b5f815180845261249481602086016020860161245b565b601f01601f19169290920160200192915050565b602081525f61104f602083018461247d565b5f805f604084860312156124cc575f80fd5b83356124d781612218565b925060208401356001600160401b03808211156124f2575f80fd5b818601915086601f830112612505575f80fd5b813581811115612513575f80fd5b876020828501011115612524575f80fd5b6020830194508093505050509250925092565b5f805f806080858703121561254a575f80fd5b843561255581612218565b935060208501359250604085013561256c81612218565b9396929550929360600135925050565b5f60a0828403121561258c575f80fd5b61259461232e565b9050813581526020820135602082015260408201356040820152606082013560608201526080820135608082015292915050565b5f805f61016084860312156125db575f80fd5b833592506125ec856020860161257c565b91506125fb8560c0860161257c565b90509250925092565b5f82601f830112612613575f80fd5b813560206001600160401b0382111561262e5761262e61231a565b8160051b61263d828201612379565b9283528481018201928281019087851115612656575f80fd5b83870192505b848310156126755782358252918301919083019061265c565b979650505050505050565b5f8060408385031215612691575f80fd5b82356001600160401b038111156126a6575f80fd5b6126b285828601612604565b92505060208301356122b881612218565b5f60208083016020845280855180835260408601915060408160051b8701019250602087015f5b8281101561271857603f1988860301845261270685835161247d565b945092850192908501906001016126ea565b5092979650505050505050565b5f805f60608486031215612737575f80fd5b83359250602084013561274981612218565b9150604084013561275981612218565b809150509250925092565b5f805f60608486031215612776575f80fd5b833561278181612218565b9250602084013561279181612218565b91506040840135600d8110612759575f80fd5b5f805f8061018085870312156127b8575f80fd5b843593506127c9866020870161257c565b92506127d88660c0870161257c565b91506101608501356127e981612218565b939692955090935050565b5f8060408385031215612805575f80fd5b823561281081612218565b946020939093013593505050565b5f6020828403121561282e575f80fd5b81356001600160401b03811115612843575f80fd5b610b1884828501612604565b5f805f60608486031215612861575f80fd5b833561286c81612218565b9250602084013561287c81612218565b929592945050506040919091013590565b5f806020838503121561289e575f80fd5b82356001600160401b03808211156128b4575f80fd5b818501915085601f8301126128c7575f80fd5b8135818111156128d5575f80fd5b8660208260051b85010111156128e9575f80fd5b60209290920196919550909350505050565b5f60208083016020845280855180835260408601915060408160051b8701019250602087015f5b8281101561271857603f1988860301845261293e85835161247d565b94509285019290850190600101612922565b803563ffffffff81168114612279575f80fd5b5f6101408284031215612974575f80fd5b61297c612356565b6129858361226e565b815261299360208401612950565b60208201526129a460408401612950565b60408201526129b56060840161226e565b60608201526129c66080840161226e565b60808201526129d760a0840161226e565b60a08201526129e860c0840161226e565b60c082015260e083013560e0820152610100808401358183015250610120612a1181850161226e565b908201529392505050565b5f8060408385031215612a2d575f80fd5b8235612a3881612218565b915060208301356122b881612218565b602080825282518282018190525f9190848201906040850190845b81811015612a885783516001600160a01b031683529284019291840191600101612a63565b50909695505050505050565b5f60c08284031215612aa4575f80fd5b50919050565b5f805f80848603610260811215612abf575f80fd5b612ac98787612a94565b945060a060bf1982011215612adc575f80fd5b60c086019350604061015f1982011215612af4575f80fd5b5061016085019150612b0a866101a08701612a94565b905092959194509250565b5f60208284031215612b25575f80fd5b5051919050565b5f60208284031215612b3c575f80fd5b8151801515811461104f575f80fd5b634e487b7160e01b5f52602160045260245ffd5b6001600160a01b03831681526040602080830182905283519183018290525f9184820191906060850190845b81811015612ba757845183529383019391830191600101612b8b565b5090979650505050505050565b5f60a08284031215612bc4575f80fd5b612bcc61232e565b82518152602083015160208201526040830151604082015260608301516060820152608083015160808201528091505092915050565b805161227981612218565b5f610100808385031215612c1f575f80fd5b604051908101906001600160401b0382118183101715612c4157612c4161231a565b81604052835181526020840151602082015260408401519150612c6382612218565b816040820152612c7560608501612c02565b6060820152612c8660808501612c02565b6080820152612c9760a08501612c02565b60a0820152612ca860c08501612c02565b60c0820152612cb960e08501612c02565b60e0820152949350505050565b5f60208284031215612cd6575f80fd5b81516001600160401b03811115612ceb575f80fd5b8201601f81018413612cfb575f80fd5b8051612d09612423826123a9565b818152856020838501011115612d1d575f80fd5b610a5e82602083016020860161245b565b66029b4bd32903e160cd1b81525f8551612d4f816007850160208a0161245b565b8083019050620103e160ed1b8060078301528651612d7481600a850160208b0161245b565b600a92019182018190528551612d9181600d850160208a0161245b565b600d9201918201528351612dac81601084016020880161245b565b016010019695505050505050565b634e487b7160e01b5f52603260045260245ffd5b6001600160a01b0385168152602081018490526101808101612e1e604083018580518252602081015160208301526040810151604083015260608101516060830152608081015160808301525050565b825160e08301526020830151610100830152604083015161012083015260608301516101408301526080830151610160830152610a5e565b634e487b7160e01b5f52601160045260245ffd5b5f60018201612e7b57612e7b612e56565b5060010190565b818103818111156108b4576108b4612e56565b5f808335601e19843603018112612eaa575f80fd5b8301803591506001600160401b03821115612ec3575f80fd5b602001915036819003821315612ed7575f80fd5b9250929050565b828482375f8382015f81528351612ef981836020880161245b565b0195945050505050565b81516001600160a01b0316815261014081016020830151612f2c602084018263ffffffff169052565b506040830151612f44604084018263ffffffff169052565b506060830151612f5f60608401826001600160a01b03169052565b506080830151612f7a60808401826001600160a01b03169052565b5060a0830151612f9560a08401826001600160a01b03169052565b5060c0830151612fb060c08401826001600160a01b03169052565b5060e083810151908301526101008084015190830152610120808401516001600160a01b038116828501526112fb565b5f60208284031215612ff0575f80fd5b815161104f81612218565b803561300681612218565b6001600160a01b0316825260208101356001600160401b03811680821461302b575f80fd5b80602085015250505050565b803561304281612218565b6001600160a01b03908116835260208201359061305e82612218565b908116602084015260408201359061307582612218565b908116604084015260608201359061308c82612218565b90811660608401526080820135906130a382612218565b908116608084015260a0820135906130ba82612218565b80821660a085015250505050565b5f6102a08201905060018060a01b0380891683528088166020840152863560408401526020870135606084015260408701356080840152606087013560a0840152608087013560c084015260a087013561312181612218565b1660e0830152843561010083015260208501356101208301526040850135610140830152606085013561016083015260808501356101808301526131696101a0830185612ffb565b6126756101e0830184613037565b5f825161318881846020870161245b565b919091019291505056fe360894a13ba1a3210667c828492db98dca3e2076cc3735a920a3ca505d382bbc02dd7bc7dec4dceedda775e58dd541e08a116c6c53815c0bd028192f7b626800a26469706673582212204a06383b44d8de699bf87696a34408a27b032833876bb17147f11c2dc8539a1b64736f6c63430008170033",
    "linkReferences": {
      "src/factory/libraries/MarketFactoryLibrary.sol": {
        "MarketFactoryLibrary": [
          {
            "start": 6381,
            "length": 20
          }
        ]
      },
      "src/factory/libraries/NonTransferrableRebasingTokenVaultLibrary.sol": {
        "NonTransferrableRebasingTokenVaultLibrary": [
          {
            "start": 6036,
            "length": 20
          }
        ]
      },
      "src/factory/libraries/PriceFeedFactoryLibrary.sol": {
        "PriceFeedFactoryLibrary": [
          {
            "start": 5776,
            "length": 20
          }
        ]
      }
    }
  },
  "methodIdentifiers": {
    "DEFAULT_ADMIN_ROLE()": "a217fddf",
    "UPGRADE_INTERFACE_VERSION()": "ad3cb1cc",
    "authorizationNonces(address)": "81de274c",
    "authorizations(uint256,address,address)": "7b8dedad",
    "callMarket(address,bytes)": "5ec49544",
    "collectionsManager()": "37c11b2a",
    "createBorrowTokenVault(address,address)": "e8d353c7",
    "createMarket((uint256,uint256,uint256,uint256,uint256,address),(uint256,uint256,uint256,uint256,uint256),(address,uint64),(address,address,address,address,address,address))": "f0fb716f",
    "createPriceFeed((address,uint32,uint32,address,address,address,address,uint256,uint256,address))": "d152e236",
    "getBorrowOfferAPR(address,uint256,address,address,uint256)": "495e6d89",
    "getLoanOfferAPR(address,uint256,address,address,uint256)": "5fb7f10c",
    "getMarket(uint256)": "eb44fdd3",
    "getMarketDescriptions()": "7643d7ec",
    "getMarkets()": "ec2c9016",
    "getMarketsCount()": "27fa35c3",
    "getRoleAdmin(bytes32)": "248a9ca3",
    "grantRole(bytes32,address)": "2f2ff15d",
    "hasRole(bytes32,address)": "91d14854",
    "initialize(address)": "c4d66de8",
    "isAuthorized(address,address,uint8)": "86eeeb5a",
    "isAuthorizedAll(address,address,uint256)": "a78ec6ae",
    "isBorrowAPRLowerThanLoanOfferAPRs(address,uint256,address,uint256)": "678b9bad",
    "isLoanAPRGreaterThanBorrowOfferAPRs(address,uint256,address,uint256)": "9feffdb0",
    "isMarket(address)": "6ec934da",
    "multicall(bytes[])": "ac9650d8",
    "nonTransferrableTokenVaultImplementation()": "1286a2dc",
    "proxiableUUID()": "52d1902d",
    "renounceRole(bytes32,address)": "36568abe",
    "revokeAllAuthorizations()": "a7b2b310",
    "revokeRole(bytes32,address)": "d547741f",
    "setAuthorization(address,uint256)": "91c769ce",
    "setCollectionsManager(address)": "01a6c872",
    "setNonTransferrableRebasingTokenVaultImplementation(address)": "1e4fcddb",
    "setSizeImplementation(address)": "b4cd6bd1",
    "setUserCollectionCopyLimitOrderConfigs(uint256,(uint256,uint256,uint256,uint256,int256),(uint256,uint256,uint256,uint256,int256))": "6ed41835",
    "setUserCollectionCopyLimitOrderConfigsOnBehalfOf(uint256,(uint256,uint256,uint256,uint256,int256),(uint256,uint256,uint256,uint256,int256),address)": "88d76520",
    "sizeImplementation()": "973cf867",
    "subscribeToCollections(uint256[])": "c8fb6247",
    "subscribeToCollectionsOnBehalfOf(uint256[],address)": "b1ef804d",
    "supportsInterface(bytes4)": "01ffc9a7",
    "unsubscribeFromCollections(uint256[])": "9e42bfa3",
    "unsubscribeFromCollectionsOnBehalfOf(uint256[],address)": "732218f9",
    "upgradeToAndCall(address,bytes)": "4f1ef286",
    "version()": "54fd4d50"
  },
  "id": 265
}