{
  "abi": [
    {
      "type": "constructor",
      "inputs": [],
      "stateMutability": "nonpayable"
    },
    {
      "type": "function",
      "name": "DEFAULT_ADMIN_ROLE",
      "inputs": [],
      "outputs": [
        {
          "name": "",
          "type": "bytes32",
          "internalType": "bytes32"
        }
      ],
      "stateMutability": "view"
    },
    {
      "type": "function",
      "name": "UPGRADE_INTERFACE_VERSION",
      "inputs": [],
      "outputs": [
        {
          "name": "",
          "type": "string",
          "internalType": "string"
        }
      ],
      "stateMutability": "view"
    },
    {
      "type": "function",
      "name": "buyCreditLimit",
      "inputs": [
        {
          "name": "params",
          "type": "tuple",
          "internalType": "struct BuyCreditLimitParams",
          "components": [
            {
              "name": "maxDueDate",
              "type": "uint256",
              "internalType": "uint256"
            },
            {
              "name": "curveRelativeTime",
              "type": "tuple",
              "internalType": "struct YieldCurve",
              "components": [
                {
                  "name": "tenors",
                  "type": "uint256[]",
                  "internalType": "uint256[]"
                },
                {
                  "name": "aprs",
                  "type": "int256[]",
                  "internalType": "int256[]"
                },
                {
                  "name": "marketRateMultipliers",
                  "type": "uint256[]",
                  "internalType": "uint256[]"
                }
              ]
            }
          ]
        }
      ],
      "outputs": [],
      "stateMutability": "payable"
    },
    {
      "type": "function",
      "name": "buyCreditLimitOnBehalfOf",
      "inputs": [
        {
          "name": "externalParams",
          "type": "tuple",
          "internalType": "struct BuyCreditLimitOnBehalfOfParams",
          "components": [
            {
              "name": "params",
              "type": "tuple",
              "internalType": "struct BuyCreditLimitParams",
              "components": [
                {
                  "name": "maxDueDate",
                  "type": "uint256",
                  "internalType": "uint256"
                },
                {
                  "name": "curveRelativeTime",
                  "type": "tuple",
                  "internalType": "struct YieldCurve",
                  "components": [
                    {
                      "name": "tenors",
                      "type": "uint256[]",
                      "internalType": "uint256[]"
                    },
                    {
                      "name": "aprs",
                      "type": "int256[]",
                      "internalType": "int256[]"
                    },
                    {
                      "name": "marketRateMultipliers",
                      "type": "uint256[]",
                      "internalType": "uint256[]"
                    }
                  ]
                }
              ]
            },
            {
              "name": "onBehalfOf",
              "type": "address",
              "internalType": "address"
            }
          ]
        }
      ],
      "outputs": [],
      "stateMutability": "payable"
    },
    {
      "type": "function",
      "name": "buyCreditMarket",
      "inputs": [
        {
          "name": "params",
          "type": "tuple",
          "internalType": "struct BuyCreditMarketParams",
          "components": [
            {
              "name": "borrower",
              "type": "address",
              "internalType": "address"
            },
            {
              "name": "creditPositionId",
              "type": "uint256",
              "internalType": "uint256"
            },
            {
              "name": "amount",
              "type": "uint256",
              "internalType": "uint256"
            },
            {
              "name": "tenor",
              "type": "uint256",
              "internalType": "uint256"
            },
            {
              "name": "deadline",
              "type": "uint256",
              "internalType": "uint256"
            },
            {
              "name": "minAPR",
              "type": "uint256",
              "internalType": "uint256"
            },
            {
              "name": "exactAmountIn",
              "type": "bool",
              "internalType": "bool"
            },
            {
              "name": "collectionId",
              "type": "uint256",
              "internalType": "uint256"
            },
            {
              "name": "rateProvider",
              "type": "address",
              "internalType": "address"
            }
          ]
        }
      ],
      "outputs": [],
      "stateMutability": "payable"
    },
    {
      "type": "function",
      "name": "buyCreditMarketOnBehalfOf",
      "inputs": [
        {
          "name": "externalParams",
          "type": "tuple",
          "internalType": "struct BuyCreditMarketOnBehalfOfParams",
          "components": [
            {
              "name": "params",
              "type": "tuple",
              "internalType": "struct BuyCreditMarketParams",
              "components": [
                {
                  "name": "borrower",
                  "type": "address",
                  "internalType": "address"
                },
                {
                  "name": "creditPositionId",
                  "type": "uint256",
                  "internalType": "uint256"
                },
                {
                  "name": "amount",
                  "type": "uint256",
                  "internalType": "uint256"
                },
                {
                  "name": "tenor",
                  "type": "uint256",
                  "internalType": "uint256"
                },
                {
                  "name": "deadline",
                  "type": "uint256",
                  "internalType": "uint256"
                },
                {
                  "name": "minAPR",
                  "type": "uint256",
                  "internalType": "uint256"
                },
                {
                  "name": "exactAmountIn",
                  "type": "bool",
                  "internalType": "bool"
                },
                {
                  "name": "collectionId",
                  "type": "uint256",
                  "internalType": "uint256"
                },
                {
                  "name": "rateProvider",
                  "type": "address",
                  "internalType": "address"
                }
              ]
            },
            {
              "name": "onBehalfOf",
              "type": "address",
              "internalType": "address"
            },
            {
              "name": "recipient",
              "type": "address",
              "internalType": "address"
            }
          ]
        }
      ],
      "outputs": [],
      "stateMutability": "payable"
    },
    {
      "type": "function",
      "name": "claim",
      "inputs": [
        {
          "name": "params",
          "type": "tuple",
          "internalType": "struct ClaimParams",
          "components": [
            {
              "name": "creditPositionId",
              "type": "uint256",
              "internalType": "uint256"
            }
          ]
        }
      ],
      "outputs": [],
      "stateMutability": "payable"
    },
    {
      "type": "function",
      "name": "collateralRatio",
      "inputs": [
        {
          "name": "user",
          "type": "address",
          "internalType": "address"
        }
      ],
      "outputs": [
        {
          "name": "",
          "type": "uint256",
          "internalType": "uint256"
        }
      ],
      "stateMutability": "view"
    },
    {
      "type": "function",
      "name": "compensate",
      "inputs": [
        {
          "name": "params",
          "type": "tuple",
          "internalType": "struct CompensateParams",
          "components": [
            {
              "name": "creditPositionWithDebtToRepayId",
              "type": "uint256",
              "internalType": "uint256"
            },
            {
              "name": "creditPositionToCompensateId",
              "type": "uint256",
              "internalType": "uint256"
            },
            {
              "name": "amount",
              "type": "uint256",
              "internalType": "uint256"
            }
          ]
        }
      ],
      "outputs": [],
      "stateMutability": "payable"
    },
    {
      "type": "function",
      "name": "compensateOnBehalfOf",
      "inputs": [
        {
          "name": "externalParams",
          "type": "tuple",
          "internalType": "struct CompensateOnBehalfOfParams",
          "components": [
            {
              "name": "params",
              "type": "tuple",
              "internalType": "struct CompensateParams",
              "components": [
                {
                  "name": "creditPositionWithDebtToRepayId",
                  "type": "uint256",
                  "internalType": "uint256"
                },
                {
                  "name": "creditPositionToCompensateId",
                  "type": "uint256",
                  "internalType": "uint256"
                },
                {
                  "name": "amount",
                  "type": "uint256",
                  "internalType": "uint256"
                }
              ]
            },
            {
              "name": "onBehalfOf",
              "type": "address",
              "internalType": "address"
            }
          ]
        }
      ],
      "outputs": [],
      "stateMutability": "payable"
    },
    {
      "type": "function",
      "name": "data",
      "inputs": [],
      "outputs": [
        {
          "name": "",
          "type": "tuple",
          "internalType": "struct DataView",
          "components": [
            {
              "name": "nextDebtPositionId",
              "type": "uint256",
              "internalType": "uint256"
            },
            {
              "name": "nextCreditPositionId",
              "type": "uint256",
              "internalType": "uint256"
            },
            {
              "name": "underlyingCollateralToken",
              "type": "address",
              "internalType": "contract IERC20Metadata"
            },
            {
              "name": "underlyingBorrowToken",
              "type": "address",
              "internalType": "contract IERC20Metadata"
            },
            {
              "name": "collateralToken",
              "type": "address",
              "internalType": "contract NonTransferrableToken"
            },
            {
              "name": "borrowTokenVault",
              "type": "address",
              "internalType": "contract NonTransferrableRebasingTokenVault"
            },
            {
              "name": "debtToken",
              "type": "address",
              "internalType": "contract NonTransferrableToken"
            },
            {
              "name": "variablePool",
              "type": "address",
              "internalType": "contract IPool"
            }
          ]
        }
      ],
      "stateMutability": "view"
    },
    {
      "type": "function",
      "name": "debtTokenAmountToCollateralTokenAmount",
      "inputs": [
        {
          "name": "amount",
          "type": "uint256",
          "internalType": "uint256"
        }
      ],
      "outputs": [
        {
          "name": "",
          "type": "uint256",
          "internalType": "uint256"
        }
      ],
      "stateMutability": "view"
    },
    {
      "type": "function",
      "name": "deposit",
      "inputs": [
        {
          "name": "params",
          "type": "tuple",
          "internalType": "struct DepositParams",
          "components": [
            {
              "name": "token",
              "type": "address",
              "internalType": "address"
            },
            {
              "name": "amount",
              "type": "uint256",
              "internalType": "uint256"
            },
            {
              "name": "to",
              "type": "address",
              "internalType": "address"
            }
          ]
        }
      ],
      "outputs": [],
      "stateMutability": "payable"
    },
    {
      "type": "function",
      "name": "depositOnBehalfOf",
      "inputs": [
        {
          "name": "params",
          "type": "tuple",
          "internalType": "struct DepositOnBehalfOfParams",
          "components": [
            {
              "name": "params",
              "type": "tuple",
              "internalType": "struct DepositParams",
              "components": [
                {
                  "name": "token",
                  "type": "address",
                  "internalType": "address"
                },
                {
                  "name": "amount",
                  "type": "uint256",
                  "internalType": "uint256"
                },
                {
                  "name": "to",
                  "type": "address",
                  "internalType": "address"
                }
              ]
            },
            {
              "name": "onBehalfOf",
              "type": "address",
              "internalType": "address"
            }
          ]
        }
      ],
      "outputs": [],
      "stateMutability": "payable"
    },
    {
      "type": "function",
      "name": "feeConfig",
      "inputs": [],
      "outputs": [
        {
          "name": "",
          "type": "tuple",
          "internalType": "struct InitializeFeeConfigParams",
          "components": [
            {
              "name": "swapFeeAPR",
              "type": "uint256",
              "internalType": "uint256"
            },
            {
              "name": "fragmentationFee",
              "type": "uint256",
              "internalType": "uint256"
            },
            {
              "name": "liquidationRewardPercent",
              "type": "uint256",
              "internalType": "uint256"
            },
            {
              "name": "overdueCollateralProtocolPercent",
              "type": "uint256",
              "internalType": "uint256"
            },
            {
              "name": "collateralProtocolPercent",
              "type": "uint256",
              "internalType": "uint256"
            },
            {
              "name": "feeRecipient",
              "type": "address",
              "internalType": "address"
            }
          ]
        }
      ],
      "stateMutability": "view"
    },
    {
      "type": "function",
      "name": "getBorrowOfferAPR",
      "inputs": [
        {
          "name": "user",
          "type": "address",
          "internalType": "address"
        },
        {
          "name": "collectionId",
          "type": "uint256",
          "internalType": "uint256"
        },
        {
          "name": "rateProvider",
          "type": "address",
          "internalType": "address"
        },
        {
          "name": "tenor",
          "type": "uint256",
          "internalType": "uint256"
        }
      ],
      "outputs": [
        {
          "name": "",
          "type": "uint256",
          "internalType": "uint256"
        }
      ],
      "stateMutability": "view"
    },
    {
      "type": "function",
      "name": "getBuyCreditMarketSwapData",
      "inputs": [
        {
          "name": "params",
          "type": "tuple",
          "internalType": "struct BuyCreditMarketParams",
          "components": [
            {
              "name": "borrower",
              "type": "address",
              "internalType": "address"
            },
            {
              "name": "creditPositionId",
              "type": "uint256",
              "internalType": "uint256"
            },
            {
              "name": "amount",
              "type": "uint256",
              "internalType": "uint256"
            },
            {
              "name": "tenor",
              "type": "uint256",
              "internalType": "uint256"
            },
            {
              "name": "deadline",
              "type": "uint256",
              "internalType": "uint256"
            },
            {
              "name": "minAPR",
              "type": "uint256",
              "internalType": "uint256"
            },
            {
              "name": "exactAmountIn",
              "type": "bool",
              "internalType": "bool"
            },
            {
              "name": "collectionId",
              "type": "uint256",
              "internalType": "uint256"
            },
            {
              "name": "rateProvider",
              "type": "address",
              "internalType": "address"
            }
          ]
        }
      ],
      "outputs": [
        {
          "name": "",
          "type": "tuple",
          "internalType": "struct BuyCreditMarket.SwapDataBuyCreditMarket",
          "components": [
            {
              "name": "creditPosition",
              "type": "tuple",
              "internalType": "struct CreditPosition",
              "components": [
                {
                  "name": "lender",
                  "type": "address",
                  "internalType": "address"
                },
                {
                  "name": "forSale",
                  "type": "bool",
                  "internalType": "bool"
                },
                {
                  "name": "credit",
                  "type": "uint256",
                  "internalType": "uint256"
                },
                {
                  "name": "debtPositionId",
                  "type": "uint256",
                  "internalType": "uint256"
                }
              ]
            },
            {
              "name": "borrower",
              "type": "address",
              "internalType": "address"
            },
            {
              "name": "creditAmountOut",
              "type": "uint256",
              "internalType": "uint256"
            },
            {
              "name": "cashAmountIn",
              "type": "uint256",
              "internalType": "uint256"
            },
            {
              "name": "swapFee",
              "type": "uint256",
              "internalType": "uint256"
            },
            {
              "name": "fragmentationFee",
              "type": "uint256",
              "internalType": "uint256"
            },
            {
              "name": "tenor",
              "type": "uint256",
              "internalType": "uint256"
            }
          ]
        }
      ],
      "stateMutability": "view"
    },
    {
      "type": "function",
      "name": "getCreditPosition",
      "inputs": [
        {
          "name": "creditPositionId",
          "type": "uint256",
          "internalType": "uint256"
        }
      ],
      "outputs": [
        {
          "name": "",
          "type": "tuple",
          "internalType": "struct CreditPosition",
          "components": [
            {
              "name": "lender",
              "type": "address",
              "internalType": "address"
            },
            {
              "name": "forSale",
              "type": "bool",
              "internalType": "bool"
            },
            {
              "name": "credit",
              "type": "uint256",
              "internalType": "uint256"
            },
            {
              "name": "debtPositionId",
              "type": "uint256",
              "internalType": "uint256"
            }
          ]
        }
      ],
      "stateMutability": "view"
    },
    {
      "type": "function",
      "name": "getDebtPosition",
      "inputs": [
        {
          "name": "debtPositionId",
          "type": "uint256",
          "internalType": "uint256"
        }
      ],
      "outputs": [
        {
          "name": "",
          "type": "tuple",
          "internalType": "struct DebtPosition",
          "components": [
            {
              "name": "borrower",
              "type": "address",
              "internalType": "address"
            },
            {
              "name": "futureValue",
              "type": "uint256",
              "internalType": "uint256"
            },
            {
              "name": "dueDate",
              "type": "uint256",
              "internalType": "uint256"
            },
            {
              "name": "liquidityIndexAtRepayment",
              "type": "uint256",
              "internalType": "uint256"
            }
          ]
        }
      ],
      "stateMutability": "view"
    },
    {
      "type": "function",
      "name": "getLoanOfferAPR",
      "inputs": [
        {
          "name": "user",
          "type": "address",
          "internalType": "address"
        },
        {
          "name": "collectionId",
          "type": "uint256",
          "internalType": "uint256"
        },
        {
          "name": "rateProvider",
          "type": "address",
          "internalType": "address"
        },
        {
          "name": "tenor",
          "type": "uint256",
          "internalType": "uint256"
        }
      ],
      "outputs": [
        {
          "name": "",
          "type": "uint256",
          "internalType": "uint256"
        }
      ],
      "stateMutability": "view"
    },
    {
      "type": "function",
      "name": "getPositionsCount",
      "inputs": [],
      "outputs": [
        {
          "name": "",
          "type": "uint256",
          "internalType": "uint256"
        },
        {
          "name": "",
          "type": "uint256",
          "internalType": "uint256"
        }
      ],
      "stateMutability": "view"
    },
    {
      "type": "function",
      "name": "getRoleAdmin",
      "inputs": [
        {
          "name": "role",
          "type": "bytes32",
          "internalType": "bytes32"
        }
      ],
      "outputs": [
        {
          "name": "",
          "type": "bytes32",
          "internalType": "bytes32"
        }
      ],
      "stateMutability": "view"
    },
    {
      "type": "function",
      "name": "getSellCreditMarketSwapData",
      "inputs": [
        {
          "name": "params",
          "type": "tuple",
          "internalType": "struct SellCreditMarketParams",
          "components": [
            {
              "name": "lender",
              "type": "address",
              "internalType": "address"
            },
            {
              "name": "creditPositionId",
              "type": "uint256",
              "internalType": "uint256"
            },
            {
              "name": "amount",
              "type": "uint256",
              "internalType": "uint256"
            },
            {
              "name": "tenor",
              "type": "uint256",
              "internalType": "uint256"
            },
            {
              "name": "deadline",
              "type": "uint256",
              "internalType": "uint256"
            },
            {
              "name": "maxAPR",
              "type": "uint256",
              "internalType": "uint256"
            },
            {
              "name": "exactAmountIn",
              "type": "bool",
              "internalType": "bool"
            },
            {
              "name": "collectionId",
              "type": "uint256",
              "internalType": "uint256"
            },
            {
              "name": "rateProvider",
              "type": "address",
              "internalType": "address"
            }
          ]
        }
      ],
      "outputs": [
        {
          "name": "",
          "type": "tuple",
          "internalType": "struct SellCreditMarket.SwapDataSellCreditMarket",
          "components": [
            {
              "name": "creditPosition",
              "type": "tuple",
              "internalType": "struct CreditPosition",
              "components": [
                {
                  "name": "lender",
                  "type": "address",
                  "internalType": "address"
                },
                {
                  "name": "forSale",
                  "type": "bool",
                  "internalType": "bool"
                },
                {
                  "name": "credit",
                  "type": "uint256",
                  "internalType": "uint256"
                },
                {
                  "name": "debtPositionId",
                  "type": "uint256",
                  "internalType": "uint256"
                }
              ]
            },
            {
              "name": "creditAmountIn",
              "type": "uint256",
              "internalType": "uint256"
            },
            {
              "name": "cashAmountOut",
              "type": "uint256",
              "internalType": "uint256"
            },
            {
              "name": "swapFee",
              "type": "uint256",
              "internalType": "uint256"
            },
            {
              "name": "fragmentationFee",
              "type": "uint256",
              "internalType": "uint256"
            },
            {
              "name": "tenor",
              "type": "uint256",
              "internalType": "uint256"
            }
          ]
        }
      ],
      "stateMutability": "view"
    },
    {
      "type": "function",
      "name": "getUserDefinedBorrowOfferAPR",
      "inputs": [
        {
          "name": "borrower",
          "type": "address",
          "internalType": "address"
        },
        {
          "name": "tenor",
          "type": "uint256",
          "internalType": "uint256"
        }
      ],
      "outputs": [
        {
          "name": "",
          "type": "uint256",
          "internalType": "uint256"
        }
      ],
      "stateMutability": "view"
    },
    {
      "type": "function",
      "name": "getUserDefinedCopyBorrowOfferConfig",
      "inputs": [
        {
          "name": "user",
          "type": "address",
          "internalType": "address"
        }
      ],
      "outputs": [
        {
          "name": "",
          "type": "tuple",
          "internalType": "struct CopyLimitOrderConfig",
          "components": [
            {
              "name": "minTenor",
              "type": "uint256",
              "internalType": "uint256"
            },
            {
              "name": "maxTenor",
              "type": "uint256",
              "internalType": "uint256"
            },
            {
              "name": "minAPR",
              "type": "uint256",
              "internalType": "uint256"
            },
            {
              "name": "maxAPR",
              "type": "uint256",
              "internalType": "uint256"
            },
            {
              "name": "offsetAPR",
              "type": "int256",
              "internalType": "int256"
            }
          ]
        }
      ],
      "stateMutability": "view"
    },
    {
      "type": "function",
      "name": "getUserDefinedCopyLoanOfferConfig",
      "inputs": [
        {
          "name": "user",
          "type": "address",
          "internalType": "address"
        }
      ],
      "outputs": [
        {
          "name": "",
          "type": "tuple",
          "internalType": "struct CopyLimitOrderConfig",
          "components": [
            {
              "name": "minTenor",
              "type": "uint256",
              "internalType": "uint256"
            },
            {
              "name": "maxTenor",
              "type": "uint256",
              "internalType": "uint256"
            },
            {
              "name": "minAPR",
              "type": "uint256",
              "internalType": "uint256"
            },
            {
              "name": "maxAPR",
              "type": "uint256",
              "internalType": "uint256"
            },
            {
              "name": "offsetAPR",
              "type": "int256",
              "internalType": "int256"
            }
          ]
        }
      ],
      "stateMutability": "view"
    },
    {
      "type": "function",
      "name": "getUserDefinedLoanOfferAPR",
      "inputs": [
        {
          "name": "lender",
          "type": "address",
          "internalType": "address"
        },
        {
          "name": "tenor",
          "type": "uint256",
          "internalType": "uint256"
        }
      ],
      "outputs": [
        {
          "name": "",
          "type": "uint256",
          "internalType": "uint256"
        }
      ],
      "stateMutability": "view"
    },
    {
      "type": "function",
      "name": "getUserView",
      "inputs": [
        {
          "name": "user",
          "type": "address",
          "internalType": "address"
        }
      ],
      "outputs": [
        {
          "name": "",
          "type": "tuple",
          "internalType": "struct UserView",
          "components": [
            {
              "name": "user",
              "type": "tuple",
              "internalType": "struct User",
              "components": [
                {
                  "name": "loanOffer",
                  "type": "tuple",
                  "internalType": "struct LimitOrder",
                  "components": [
                    {
                      "name": "maxDueDate",
                      "type": "uint256",
                      "internalType": "uint256"
                    },
                    {
                      "name": "curveRelativeTime",
                      "type": "tuple",
                      "internalType": "struct YieldCurve",
                      "components": [
                        {
                          "name": "tenors",
                          "type": "uint256[]",
                          "internalType": "uint256[]"
                        },
                        {
                          "name": "aprs",
                          "type": "int256[]",
                          "internalType": "int256[]"
                        },
                        {
                          "name": "marketRateMultipliers",
                          "type": "uint256[]",
                          "internalType": "uint256[]"
                        }
                      ]
                    }
                  ]
                },
                {
                  "name": "borrowOffer",
                  "type": "tuple",
                  "internalType": "struct LimitOrder",
                  "components": [
                    {
                      "name": "maxDueDate",
                      "type": "uint256",
                      "internalType": "uint256"
                    },
                    {
                      "name": "curveRelativeTime",
                      "type": "tuple",
                      "internalType": "struct YieldCurve",
                      "components": [
                        {
                          "name": "tenors",
                          "type": "uint256[]",
                          "internalType": "uint256[]"
                        },
                        {
                          "name": "aprs",
                          "type": "int256[]",
                          "internalType": "int256[]"
                        },
                        {
                          "name": "marketRateMultipliers",
                          "type": "uint256[]",
                          "internalType": "uint256[]"
                        }
                      ]
                    }
                  ]
                },
                {
                  "name": "openingLimitBorrowCR",
                  "type": "uint256",
                  "internalType": "uint256"
                },
                {
                  "name": "allCreditPositionsForSaleDisabled",
                  "type": "bool",
                  "internalType": "bool"
                }
              ]
            },
            {
              "name": "account",
              "type": "address",
              "internalType": "address"
            },
            {
              "name": "collateralTokenBalance",
              "type": "uint256",
              "internalType": "uint256"
            },
            {
              "name": "borrowTokenBalance",
              "type": "uint256",
              "internalType": "uint256"
            },
            {
              "name": "debtBalance",
              "type": "uint256",
              "internalType": "uint256"
            }
          ]
        }
      ],
      "stateMutability": "view"
    },
    {
      "type": "function",
      "name": "grantRole",
      "inputs": [
        {
          "name": "role",
          "type": "bytes32",
          "internalType": "bytes32"
        },
        {
          "name": "account",
          "type": "address",
          "internalType": "address"
        }
      ],
      "outputs": [],
      "stateMutability": "nonpayable"
    },
    {
      "type": "function",
      "name": "hasRole",
      "inputs": [
        {
          "name": "role",
          "type": "bytes32",
          "internalType": "bytes32"
        },
        {
          "name": "account",
          "type": "address",
          "internalType": "address"
        }
      ],
      "outputs": [
        {
          "name": "",
          "type": "bool",
          "internalType": "bool"
        }
      ],
      "stateMutability": "view"
    },
    {
      "type": "function",
      "name": "initialize",
      "inputs": [
        {
          "name": "owner",
          "type": "address",
          "internalType": "address"
        },
        {
          "name": "f",
          "type": "tuple",
          "internalType": "struct InitializeFeeConfigParams",
          "components": [
            {
              "name": "swapFeeAPR",
              "type": "uint256",
              "internalType": "uint256"
            },
            {
              "name": "fragmentationFee",
              "type": "uint256",
              "internalType": "uint256"
            },
            {
              "name": "liquidationRewardPercent",
              "type": "uint256",
              "internalType": "uint256"
            },
            {
              "name": "overdueCollateralProtocolPercent",
              "type": "uint256",
              "internalType": "uint256"
            },
            {
              "name": "collateralProtocolPercent",
              "type": "uint256",
              "internalType": "uint256"
            },
            {
              "name": "feeRecipient",
              "type": "address",
              "internalType": "address"
            }
          ]
        },
        {
          "name": "r",
          "type": "tuple",
          "internalType": "struct InitializeRiskConfigParams",
          "components": [
            {
              "name": "crOpening",
              "type": "uint256",
              "internalType": "uint256"
            },
            {
              "name": "crLiquidation",
              "type": "uint256",
              "internalType": "uint256"
            },
            {
              "name": "minimumCreditBorrowToken",
              "type": "uint256",
              "internalType": "uint256"
            },
            {
              "name": "minTenor",
              "type": "uint256",
              "internalType": "uint256"
            },
            {
              "name": "maxTenor",
              "type": "uint256",
              "internalType": "uint256"
            }
          ]
        },
        {
          "name": "o",
          "type": "tuple",
          "internalType": "struct InitializeOracleParams",
          "components": [
            {
              "name": "priceFeed",
              "type": "address",
              "internalType": "address"
            },
            {
              "name": "variablePoolBorrowRateStaleRateInterval",
              "type": "uint64",
              "internalType": "uint64"
            }
          ]
        },
        {
          "name": "d",
          "type": "tuple",
          "internalType": "struct InitializeDataParams",
          "components": [
            {
              "name": "weth",
              "type": "address",
              "internalType": "address"
            },
            {
              "name": "underlyingCollateralToken",
              "type": "address",
              "internalType": "address"
            },
            {
              "name": "underlyingBorrowToken",
              "type": "address",
              "internalType": "address"
            },
            {
              "name": "variablePool",
              "type": "address",
              "internalType": "address"
            },
            {
              "name": "borrowTokenVault",
              "type": "address",
              "internalType": "address"
            },
            {
              "name": "sizeFactory",
              "type": "address",
              "internalType": "address"
            }
          ]
        }
      ],
      "outputs": [],
      "stateMutability": "nonpayable"
    },
    {
      "type": "function",
      "name": "isDebtPositionLiquidatable",
      "inputs": [
        {
          "name": "debtPositionId",
          "type": "uint256",
          "internalType": "uint256"
        }
      ],
      "outputs": [
        {
          "name": "",
          "type": "bool",
          "internalType": "bool"
        }
      ],
      "stateMutability": "view"
    },
    {
      "type": "function",
      "name": "liquidate",
      "inputs": [
        {
          "name": "params",
          "type": "tuple",
          "internalType": "struct LiquidateParams",
          "components": [
            {
              "name": "debtPositionId",
              "type": "uint256",
              "internalType": "uint256"
            },
            {
              "name": "minimumCollateralProfit",
              "type": "uint256",
              "internalType": "uint256"
            },
            {
              "name": "deadline",
              "type": "uint256",
              "internalType": "uint256"
            }
          ]
        }
      ],
      "outputs": [
        {
          "name": "liquidatorProfitCollateralToken",
          "type": "uint256",
          "internalType": "uint256"
        }
      ],
      "stateMutability": "payable"
    },
    {
      "type": "function",
      "name": "liquidateWithReplacement",
      "inputs": [
        {
          "name": "params",
          "type": "tuple",
          "internalType": "struct LiquidateWithReplacementParams",
          "components": [
            {
              "name": "debtPositionId",
              "type": "uint256",
              "internalType": "uint256"
            },
            {
              "name": "borrower",
              "type": "address",
              "internalType": "address"
            },
            {
              "name": "minimumCollateralProfit",
              "type": "uint256",
              "internalType": "uint256"
            },
            {
              "name": "deadline",
              "type": "uint256",
              "internalType": "uint256"
            },
            {
              "name": "minAPR",
              "type": "uint256",
              "internalType": "uint256"
            },
            {
              "name": "collectionId",
              "type": "uint256",
              "internalType": "uint256"
            },
            {
              "name": "rateProvider",
              "type": "address",
              "internalType": "address"
            }
          ]
        }
      ],
      "outputs": [
        {
          "name": "liquidatorProfitCollateralToken",
          "type": "uint256",
          "internalType": "uint256"
        },
        {
          "name": "liquidatorProfitBorrowToken",
          "type": "uint256",
          "internalType": "uint256"
        }
      ],
      "stateMutability": "payable"
    },
    {
      "type": "function",
      "name": "multicall",
      "inputs": [
        {
          "name": "_data",
          "type": "bytes[]",
          "internalType": "bytes[]"
        }
      ],
      "outputs": [
        {
          "name": "results",
          "type": "bytes[]",
          "internalType": "bytes[]"
        }
      ],
      "stateMutability": "payable"
    },
    {
      "type": "function",
      "name": "oracle",
      "inputs": [],
      "outputs": [
        {
          "name": "",
          "type": "tuple",
          "internalType": "struct InitializeOracleParams",
          "components": [
            {
              "name": "priceFeed",
              "type": "address",
              "internalType": "address"
            },
            {
              "name": "variablePoolBorrowRateStaleRateInterval",
              "type": "uint64",
              "internalType": "uint64"
            }
          ]
        }
      ],
      "stateMutability": "view"
    },
    {
      "type": "function",
      "name": "partialRepay",
      "inputs": [
        {
          "name": "params",
          "type": "tuple",
          "internalType": "struct PartialRepayParams",
          "components": [
            {
              "name": "creditPositionWithDebtToRepayId",
              "type": "uint256",
              "internalType": "uint256"
            },
            {
              "name": "amount",
              "type": "uint256",
              "internalType": "uint256"
            },
            {
              "name": "borrower",
              "type": "address",
              "internalType": "address"
            }
          ]
        }
      ],
      "outputs": [],
      "stateMutability": "payable"
    },
    {
      "type": "function",
      "name": "pause",
      "inputs": [],
      "outputs": [],
      "stateMutability": "nonpayable"
    },
    {
      "type": "function",
      "name": "paused",
      "inputs": [],
      "outputs": [
        {
          "name": "",
          "type": "bool",
          "internalType": "bool"
        }
      ],
      "stateMutability": "view"
    },
    {
      "type": "function",
      "name": "proxiableUUID",
      "inputs": [],
      "outputs": [
        {
          "name": "",
          "type": "bytes32",
          "internalType": "bytes32"
        }
      ],
      "stateMutability": "view"
    },
    {
      "type": "function",
      "name": "reinitialize",
      "inputs": [],
      "outputs": [],
      "stateMutability": "nonpayable"
    },
    {
      "type": "function",
      "name": "renounceRole",
      "inputs": [
        {
          "name": "role",
          "type": "bytes32",
          "internalType": "bytes32"
        },
        {
          "name": "callerConfirmation",
          "type": "address",
          "internalType": "address"
        }
      ],
      "outputs": [],
      "stateMutability": "nonpayable"
    },
    {
      "type": "function",
      "name": "repay",
      "inputs": [
        {
          "name": "params",
          "type": "tuple",
          "internalType": "struct RepayParams",
          "components": [
            {
              "name": "debtPositionId",
              "type": "uint256",
              "internalType": "uint256"
            },
            {
              "name": "borrower",
              "type": "address",
              "internalType": "address"
            }
          ]
        }
      ],
      "outputs": [],
      "stateMutability": "payable"
    },
    {
      "type": "function",
      "name": "revokeRole",
      "inputs": [
        {
          "name": "role",
          "type": "bytes32",
          "internalType": "bytes32"
        },
        {
          "name": "account",
          "type": "address",
          "internalType": "address"
        }
      ],
      "outputs": [],
      "stateMutability": "nonpayable"
    },
    {
      "type": "function",
      "name": "riskConfig",
      "inputs": [],
      "outputs": [
        {
          "name": "",
          "type": "tuple",
          "internalType": "struct InitializeRiskConfigParams",
          "components": [
            {
              "name": "crOpening",
              "type": "uint256",
              "internalType": "uint256"
            },
            {
              "name": "crLiquidation",
              "type": "uint256",
              "internalType": "uint256"
            },
            {
              "name": "minimumCreditBorrowToken",
              "type": "uint256",
              "internalType": "uint256"
            },
            {
              "name": "minTenor",
              "type": "uint256",
              "internalType": "uint256"
            },
            {
              "name": "maxTenor",
              "type": "uint256",
              "internalType": "uint256"
            }
          ]
        }
      ],
      "stateMutability": "view"
    },
    {
      "type": "function",
      "name": "selfLiquidate",
      "inputs": [
        {
          "name": "params",
          "type": "tuple",
          "internalType": "struct SelfLiquidateParams",
          "components": [
            {
              "name": "creditPositionId",
              "type": "uint256",
              "internalType": "uint256"
            }
          ]
        }
      ],
      "outputs": [],
      "stateMutability": "payable"
    },
    {
      "type": "function",
      "name": "selfLiquidateOnBehalfOf",
      "inputs": [
        {
          "name": "externalParams",
          "type": "tuple",
          "internalType": "struct SelfLiquidateOnBehalfOfParams",
          "components": [
            {
              "name": "params",
              "type": "tuple",
              "internalType": "struct SelfLiquidateParams",
              "components": [
                {
                  "name": "creditPositionId",
                  "type": "uint256",
                  "internalType": "uint256"
                }
              ]
            },
            {
              "name": "onBehalfOf",
              "type": "address",
              "internalType": "address"
            },
            {
              "name": "recipient",
              "type": "address",
              "internalType": "address"
            }
          ]
        }
      ],
      "outputs": [],
      "stateMutability": "payable"
    },
    {
      "type": "function",
      "name": "sellCreditLimit",
      "inputs": [
        {
          "name": "params",
          "type": "tuple",
          "internalType": "struct SellCreditLimitParams",
          "components": [
            {
              "name": "maxDueDate",
              "type": "uint256",
              "internalType": "uint256"
            },
            {
              "name": "curveRelativeTime",
              "type": "tuple",
              "internalType": "struct YieldCurve",
              "components": [
                {
                  "name": "tenors",
                  "type": "uint256[]",
                  "internalType": "uint256[]"
                },
                {
                  "name": "aprs",
                  "type": "int256[]",
                  "internalType": "int256[]"
                },
                {
                  "name": "marketRateMultipliers",
                  "type": "uint256[]",
                  "internalType": "uint256[]"
                }
              ]
            }
          ]
        }
      ],
      "outputs": [],
      "stateMutability": "payable"
    },
    {
      "type": "function",
      "name": "sellCreditLimitOnBehalfOf",
      "inputs": [
        {
          "name": "externalParams",
          "type": "tuple",
          "internalType": "struct SellCreditLimitOnBehalfOfParams",
          "components": [
            {
              "name": "params",
              "type": "tuple",
              "internalType": "struct SellCreditLimitParams",
              "components": [
                {
                  "name": "maxDueDate",
                  "type": "uint256",
                  "internalType": "uint256"
                },
                {
                  "name": "curveRelativeTime",
                  "type": "tuple",
                  "internalType": "struct YieldCurve",
                  "components": [
                    {
                      "name": "tenors",
                      "type": "uint256[]",
                      "internalType": "uint256[]"
                    },
                    {
                      "name": "aprs",
                      "type": "int256[]",
                      "internalType": "int256[]"
                    },
                    {
                      "name": "marketRateMultipliers",
                      "type": "uint256[]",
                      "internalType": "uint256[]"
                    }
                  ]
                }
              ]
            },
            {
              "name": "onBehalfOf",
              "type": "address",
              "internalType": "address"
            }
          ]
        }
      ],
      "outputs": [],
      "stateMutability": "payable"
    },
    {
      "type": "function",
      "name": "sellCreditMarket",
      "inputs": [
        {
          "name": "params",
          "type": "tuple",
          "internalType": "struct SellCreditMarketParams",
          "components": [
            {
              "name": "lender",
              "type": "address",
              "internalType": "address"
            },
            {
              "name": "creditPositionId",
              "type": "uint256",
              "internalType": "uint256"
            },
            {
              "name": "amount",
              "type": "uint256",
              "internalType": "uint256"
            },
            {
              "name": "tenor",
              "type": "uint256",
              "internalType": "uint256"
            },
            {
              "name": "deadline",
              "type": "uint256",
              "internalType": "uint256"
            },
            {
              "name": "maxAPR",
              "type": "uint256",
              "internalType": "uint256"
            },
            {
              "name": "exactAmountIn",
              "type": "bool",
              "internalType": "bool"
            },
            {
              "name": "collectionId",
              "type": "uint256",
              "internalType": "uint256"
            },
            {
              "name": "rateProvider",
              "type": "address",
              "internalType": "address"
            }
          ]
        }
      ],
      "outputs": [],
      "stateMutability": "payable"
    },
    {
      "type": "function",
      "name": "sellCreditMarketOnBehalfOf",
      "inputs": [
        {
          "name": "externalParams",
          "type": "tuple",
          "internalType": "struct SellCreditMarketOnBehalfOfParams",
          "components": [
            {
              "name": "params",
              "type": "tuple",
              "internalType": "struct SellCreditMarketParams",
              "components": [
                {
                  "name": "lender",
                  "type": "address",
                  "internalType": "address"
                },
                {
                  "name": "creditPositionId",
                  "type": "uint256",
                  "internalType": "uint256"
                },
                {
                  "name": "amount",
                  "type": "uint256",
                  "internalType": "uint256"
                },
                {
                  "name": "tenor",
                  "type": "uint256",
                  "internalType": "uint256"
                },
                {
                  "name": "deadline",
                  "type": "uint256",
                  "internalType": "uint256"
                },
                {
                  "name": "maxAPR",
                  "type": "uint256",
                  "internalType": "uint256"
                },
                {
                  "name": "exactAmountIn",
                  "type": "bool",
                  "internalType": "bool"
                },
                {
                  "name": "collectionId",
                  "type": "uint256",
                  "internalType": "uint256"
                },
                {
                  "name": "rateProvider",
                  "type": "address",
                  "internalType": "address"
                }
              ]
            },
            {
              "name": "onBehalfOf",
              "type": "address",
              "internalType": "address"
            },
            {
              "name": "recipient",
              "type": "address",
              "internalType": "address"
            }
          ]
        }
      ],
      "outputs": [],
      "stateMutability": "payable"
    },
    {
      "type": "function",
      "name": "setCopyLimitOrderConfigs",
      "inputs": [
        {
          "name": "params",
          "type": "tuple",
          "internalType": "struct SetCopyLimitOrderConfigsParams",
          "components": [
            {
              "name": "copyLoanOfferConfig",
              "type": "tuple",
              "internalType": "struct CopyLimitOrderConfig",
              "components": [
                {
                  "name": "minTenor",
                  "type": "uint256",
                  "internalType": "uint256"
                },
                {
                  "name": "maxTenor",
                  "type": "uint256",
                  "internalType": "uint256"
                },
                {
                  "name": "minAPR",
                  "type": "uint256",
                  "internalType": "uint256"
                },
                {
                  "name": "maxAPR",
                  "type": "uint256",
                  "internalType": "uint256"
                },
                {
                  "name": "offsetAPR",
                  "type": "int256",
                  "internalType": "int256"
                }
              ]
            },
            {
              "name": "copyBorrowOfferConfig",
              "type": "tuple",
              "internalType": "struct CopyLimitOrderConfig",
              "components": [
                {
                  "name": "minTenor",
                  "type": "uint256",
                  "internalType": "uint256"
                },
                {
                  "name": "maxTenor",
                  "type": "uint256",
                  "internalType": "uint256"
                },
                {
                  "name": "minAPR",
                  "type": "uint256",
                  "internalType": "uint256"
                },
                {
                  "name": "maxAPR",
                  "type": "uint256",
                  "internalType": "uint256"
                },
                {
                  "name": "offsetAPR",
                  "type": "int256",
                  "internalType": "int256"
                }
              ]
            }
          ]
        }
      ],
      "outputs": [],
      "stateMutability": "payable"
    },
    {
      "type": "function",
      "name": "setCopyLimitOrderConfigsOnBehalfOf",
      "inputs": [
        {
          "name": "externalParams",
          "type": "tuple",
          "internalType": "struct SetCopyLimitOrderConfigsOnBehalfOfParams",
          "components": [
            {
              "name": "params",
              "type": "tuple",
              "internalType": "struct SetCopyLimitOrderConfigsParams",
              "components": [
                {
                  "name": "copyLoanOfferConfig",
                  "type": "tuple",
                  "internalType": "struct CopyLimitOrderConfig",
                  "components": [
                    {
                      "name": "minTenor",
                      "type": "uint256",
                      "internalType": "uint256"
                    },
                    {
                      "name": "maxTenor",
                      "type": "uint256",
                      "internalType": "uint256"
                    },
                    {
                      "name": "minAPR",
                      "type": "uint256",
                      "internalType": "uint256"
                    },
                    {
                      "name": "maxAPR",
                      "type": "uint256",
                      "internalType": "uint256"
                    },
                    {
                      "name": "offsetAPR",
                      "type": "int256",
                      "internalType": "int256"
                    }
                  ]
                },
                {
                  "name": "copyBorrowOfferConfig",
                  "type": "tuple",
                  "internalType": "struct CopyLimitOrderConfig",
                  "components": [
                    {
                      "name": "minTenor",
                      "type": "uint256",
                      "internalType": "uint256"
                    },
                    {
                      "name": "maxTenor",
                      "type": "uint256",
                      "internalType": "uint256"
                    },
                    {
                      "name": "minAPR",
                      "type": "uint256",
                      "internalType": "uint256"
                    },
                    {
                      "name": "maxAPR",
                      "type": "uint256",
                      "internalType": "uint256"
                    },
                    {
                      "name": "offsetAPR",
                      "type": "int256",
                      "internalType": "int256"
                    }
                  ]
                }
              ]
            },
            {
              "name": "onBehalfOf",
              "type": "address",
              "internalType": "address"
            }
          ]
        }
      ],
      "outputs": [],
      "stateMutability": "payable"
    },
    {
      "type": "function",
      "name": "setUserConfiguration",
      "inputs": [
        {
          "name": "params",
          "type": "tuple",
          "internalType": "struct SetUserConfigurationParams",
          "components": [
            {
              "name": "openingLimitBorrowCR",
              "type": "uint256",
              "internalType": "uint256"
            },
            {
              "name": "allCreditPositionsForSaleDisabled",
              "type": "bool",
              "internalType": "bool"
            },
            {
              "name": "creditPositionIdsForSale",
              "type": "bool",
              "internalType": "bool"
            },
            {
              "name": "creditPositionIds",
              "type": "uint256[]",
              "internalType": "uint256[]"
            }
          ]
        }
      ],
      "outputs": [],
      "stateMutability": "payable"
    },
    {
      "type": "function",
      "name": "setUserConfigurationOnBehalfOf",
      "inputs": [
        {
          "name": "externalParams",
          "type": "tuple",
          "internalType": "struct SetUserConfigurationOnBehalfOfParams",
          "components": [
            {
              "name": "params",
              "type": "tuple",
              "internalType": "struct SetUserConfigurationParams",
              "components": [
                {
                  "name": "openingLimitBorrowCR",
                  "type": "uint256",
                  "internalType": "uint256"
                },
                {
                  "name": "allCreditPositionsForSaleDisabled",
                  "type": "bool",
                  "internalType": "bool"
                },
                {
                  "name": "creditPositionIdsForSale",
                  "type": "bool",
                  "internalType": "bool"
                },
                {
                  "name": "creditPositionIds",
                  "type": "uint256[]",
                  "internalType": "uint256[]"
                }
              ]
            },
            {
              "name": "onBehalfOf",
              "type": "address",
              "internalType": "address"
            }
          ]
        }
      ],
      "outputs": [],
      "stateMutability": "payable"
    },
    {
      "type": "function",
      "name": "setVariablePoolBorrowRate",
      "inputs": [
        {
          "name": "borrowRate",
          "type": "uint128",
          "internalType": "uint128"
        }
      ],
      "outputs": [],
      "stateMutability": "nonpayable"
    },
    {
      "type": "function",
      "name": "setVault",
      "inputs": [
        {
          "name": "params",
          "type": "tuple",
          "internalType": "struct SetVaultParams",
          "components": [
            {
              "name": "vault",
              "type": "address",
              "internalType": "address"
            },
            {
              "name": "forfeitOldShares",
              "type": "bool",
              "internalType": "bool"
            }
          ]
        }
      ],
      "outputs": [],
      "stateMutability": "payable"
    },
    {
      "type": "function",
      "name": "setVaultOnBehalfOf",
      "inputs": [
        {
          "name": "externalParams",
          "type": "tuple",
          "internalType": "struct SetVaultOnBehalfOfParams",
          "components": [
            {
              "name": "params",
              "type": "tuple",
              "internalType": "struct SetVaultParams",
              "components": [
                {
                  "name": "vault",
                  "type": "address",
                  "internalType": "address"
                },
                {
                  "name": "forfeitOldShares",
                  "type": "bool",
                  "internalType": "bool"
                }
              ]
            },
            {
              "name": "onBehalfOf",
              "type": "address",
              "internalType": "address"
            }
          ]
        }
      ],
      "outputs": [],
      "stateMutability": "payable"
    },
    {
      "type": "function",
      "name": "supportsInterface",
      "inputs": [
        {
          "name": "interfaceId",
          "type": "bytes4",
          "internalType": "bytes4"
        }
      ],
      "outputs": [
        {
          "name": "",
          "type": "bool",
          "internalType": "bool"
        }
      ],
      "stateMutability": "view"
    },
    {
      "type": "function",
      "name": "unpause",
      "inputs": [],
      "outputs": [],
      "stateMutability": "nonpayable"
    },
    {
      "type": "function",
      "name": "updateConfig",
      "inputs": [
        {
          "name": "params",
          "type": "tuple",
          "internalType": "struct UpdateConfigParams",
          "components": [
            {
              "name": "key",
              "type": "string",
              "internalType": "string"
            },
            {
              "name": "value",
              "type": "uint256",
              "internalType": "uint256"
            }
          ]
        }
      ],
      "outputs": [],
      "stateMutability": "nonpayable"
    },
    {
      "type": "function",
      "name": "upgradeToAndCall",
      "inputs": [
        {
          "name": "newImplementation",
          "type": "address",
          "internalType": "address"
        },
        {
          "name": "data",
          "type": "bytes",
          "internalType": "bytes"
        }
      ],
      "outputs": [],
      "stateMutability": "payable"
    },
    {
      "type": "function",
      "name": "version",
      "inputs": [],
      "outputs": [
        {
          "name": "",
          "type": "string",
          "internalType": "string"
        }
      ],
      "stateMutability": "pure"
    },
    {
      "type": "function",
      "name": "withdraw",
      "inputs": [
        {
          "name": "params",
          "type": "tuple",
          "internalType": "struct WithdrawParams",
          "components": [
            {
              "name": "token",
              "type": "address",
              "internalType": "address"
            },
            {
              "name": "amount",
              "type": "uint256",
              "internalType": "uint256"
            },
            {
              "name": "to",
              "type": "address",
              "internalType": "address"
            }
          ]
        }
      ],
      "outputs": [],
      "stateMutability": "payable"
    },
    {
      "type": "function",
      "name": "withdrawOnBehalfOf",
      "inputs": [
        {
          "name": "externalParams",
          "type": "tuple",
          "internalType": "struct WithdrawOnBehalfOfParams",
          "components": [
            {
              "name": "params",
              "type": "tuple",
              "internalType": "struct WithdrawParams",
              "components": [
                {
                  "name": "token",
                  "type": "address",
                  "internalType": "address"
                },
                {
                  "name": "amount",
                  "type": "uint256",
                  "internalType": "uint256"
                },
                {
                  "name": "to",
                  "type": "address",
                  "internalType": "address"
                }
              ]
            },
            {
              "name": "onBehalfOf",
              "type": "address",
              "internalType": "address"
            }
          ]
        }
      ],
      "outputs": [],
      "stateMutability": "payable"
    },
    {
      "type": "event",
      "name": "Initialized",
      "inputs": [
        {
          "name": "version",
          "type": "uint64",
          "indexed": false,
          "internalType": "uint64"
        }
      ],
      "anonymous": false
    },
    {
      "type": "event",
      "name": "Paused",
      "inputs": [
        {
          "name": "account",
          "type": "address",
          "indexed": false,
          "internalType": "address"
        }
      ],
      "anonymous": false
    },
    {
      "type": "event",
      "name": "RoleAdminChanged",
      "inputs": [
        {
          "name": "role",
          "type": "bytes32",
          "indexed": true,
          "internalType": "bytes32"
        },
        {
          "name": "previousAdminRole",
          "type": "bytes32",
          "indexed": true,
          "internalType": "bytes32"
        },
        {
          "name": "newAdminRole",
          "type": "bytes32",
          "indexed": true,
          "internalType": "bytes32"
        }
      ],
      "anonymous": false
    },
    {
      "type": "event",
      "name": "RoleGranted",
      "inputs": [
        {
          "name": "role",
          "type": "bytes32",
          "indexed": true,
          "internalType": "bytes32"
        },
        {
          "name": "account",
          "type": "address",
          "indexed": true,
          "internalType": "address"
        },
        {
          "name": "sender",
          "type": "address",
          "indexed": true,
          "internalType": "address"
        }
      ],
      "anonymous": false
    },
    {
      "type": "event",
      "name": "RoleRevoked",
      "inputs": [
        {
          "name": "role",
          "type": "bytes32",
          "indexed": true,
          "internalType": "bytes32"
        },
        {
          "name": "account",
          "type": "address",
          "indexed": true,
          "internalType": "address"
        },
        {
          "name": "sender",
          "type": "address",
          "indexed": true,
          "internalType": "address"
        }
      ],
      "anonymous": false
    },
    {
      "type": "event",
      "name": "Unpaused",
      "inputs": [
        {
          "name": "account",
          "type": "address",
          "indexed": false,
          "internalType": "address"
        }
      ],
      "anonymous": false
    },
    {
      "type": "event",
      "name": "Upgraded",
      "inputs": [
        {
          "name": "implementation",
          "type": "address",
          "indexed": true,
          "internalType": "address"
        }
      ],
      "anonymous": false
    },
    {
      "type": "event",
      "name": "VariablePoolBorrowRateUpdated",
      "inputs": [
        {
          "name": "sender",
          "type": "address",
          "indexed": true,
          "internalType": "address"
        },
        {
          "name": "oldBorrowRate",
          "type": "uint128",
          "indexed": false,
          "internalType": "uint128"
        },
        {
          "name": "newBorrowRate",
          "type": "uint128",
          "indexed": false,
          "internalType": "uint128"
        }
      ],
      "anonymous": false
    },
    {
      "type": "error",
      "name": "AccessControlBadConfirmation",
      "inputs": []
    },
    {
      "type": "error",
      "name": "AccessControlUnauthorizedAccount",
      "inputs": [
        {
          "name": "account",
          "type": "address",
          "internalType": "address"
        },
        {
          "name": "neededRole",
          "type": "bytes32",
          "internalType": "bytes32"
        }
      ]
    },
    {
      "type": "error",
      "name": "AddressEmptyCode",
      "inputs": [
        {
          "name": "target",
          "type": "address",
          "internalType": "address"
        }
      ]
    },
    {
      "type": "error",
      "name": "DUE_DATE_GREATER_THAN_MAX_DUE_DATE",
      "inputs": [
        {
          "name": "dueDate",
          "type": "uint256",
          "internalType": "uint256"
        },
        {
          "name": "maxDueDate",
          "type": "uint256",
          "internalType": "uint256"
        }
      ]
    },
    {
      "type": "error",
      "name": "ERC1967InvalidImplementation",
      "inputs": [
        {
          "name": "implementation",
          "type": "address",
          "internalType": "address"
        }
      ]
    },
    {
      "type": "error",
      "name": "ERC1967NonPayable",
      "inputs": []
    },
    {
      "type": "error",
      "name": "EnforcedPause",
      "inputs": []
    },
    {
      "type": "error",
      "name": "ExpectedPause",
      "inputs": []
    },
    {
      "type": "error",
      "name": "FailedCall",
      "inputs": []
    },
    {
      "type": "error",
      "name": "INVALID_OFFER",
      "inputs": [
        {
          "name": "account",
          "type": "address",
          "internalType": "address"
        }
      ]
    },
    {
      "type": "error",
      "name": "InvalidInitialization",
      "inputs": []
    },
    {
      "type": "error",
      "name": "MUST_IMPROVE_COLLATERAL_RATIO",
      "inputs": [
        {
          "name": "account",
          "type": "address",
          "internalType": "address"
        },
        {
          "name": "crBefore",
          "type": "uint256",
          "internalType": "uint256"
        },
        {
          "name": "crAfter",
          "type": "uint256",
          "internalType": "uint256"
        }
      ]
    },
    {
      "type": "error",
      "name": "NULL_TENOR",
      "inputs": []
    },
    {
      "type": "error",
      "name": "NotInitializing",
      "inputs": []
    },
    {
      "type": "error",
      "name": "ReentrancyGuardReentrantCall",
      "inputs": []
    },
    {
      "type": "error",
      "name": "UUPSUnauthorizedCallContext",
      "inputs": []
    },
    {
      "type": "error",
      "name": "UUPSUnsupportedProxiableUUID",
      "inputs": [
        {
          "name": "slot",
          "type": "bytes32",
          "internalType": "bytes32"
        }
      ]
    }
  ],
  "bytecode": {
    "object": "0x60a06040523060805234801562000014575f80fd5b506200001f62000025565b620000d9565b7ff0c57e16840df040f15088dc2f81fe391c3923bec73e23a9662efc9c229c6a00805468010000000000000000900460ff1615620000765760405163f92ee8a960e01b815260040160405180910390fd5b80546001600160401b0390811614620000d65780546001600160401b0319166001600160401b0390811782556040519081527fc7f505b2f371ae2175ee4913f4499e1f2633a7b5936321eed1cdaeb6115181d29060200160405180910390a15b50565b608051615f60620001005f395f81816139f201528181613a1b0152613b830152615f605ff3fe6080604052600436106103be575f3560e01c80636c2eb350116101f4578063ac9650d811610113578063d927acef116100a8578063f1bf35c311610078578063f1bf35c314610c28578063f45bf01c14610c47578063f54ae18b14610c5a578063fa823af514610c6d578063fd17174a14610c80575f80fd5b8063d927acef14610bd0578063e05001f514610be3578063e236052b14610bf6578063e5af06ce14610c09575f80fd5b8063ca40742c116100e3578063ca40742c14610b6c578063cb2e9bdc14610b8b578063ccd8d4d114610b9e578063d547741f14610bb1575f80fd5b8063ac9650d814610aa2578063ad3cb1cc14610ac2578063b5ec748714610af2578063c421a75914610b4d575f80fd5b80637f417c06116101895780638ea68d7e116101595780638ea68d7e14610a3157806391d1485414610a445780639ab8011514610a63578063a217fddf14610a8f575f80fd5b80637f417c06146109e4578063834dafb5146109f75780638456cb5914610a0a5780638e57277614610a1e575f80fd5b806376c1b82f116101c457806376c1b82f1461090f5780637a32376a1461093b5780637c90a6ca1461094e5780637dc0d1d0146109a3575f80fd5b80636c2eb350146107a557806373b683be146107b957806373d4a13a146107d857806375829a36146108fc575f80fd5b80632f2ff15d116102e05780634fd9a8a51161027557806353e043d41161024557806353e043d41461070e57806354fd4d50146107215780635c975abb146107565780635cbc51eb14610779575f80fd5b80634fd9a8a5146106c1578063510aeb39146106d457806352d1902d146106e7578063536b9c79146106fb575f80fd5b80633ae6d7c3116102b05780633ae6d7c3146106685780633f4ba83a1461067b5780634cbd882c1461068f5780634f1ef286146106ae575f80fd5b80632f2ff15d1461060457806336568abe146106235780633746f858146106425780633962a68614610655575f80fd5b80631970e5ea11610356578063248a9ca311610326578063248a9ca3146105a05780632b4c9a20146105bf5780632b59bd99146105d25780632e106f21146105f1575f80fd5b80631970e5ea146104d55780631ca3b0cb146104f45780631e5eb1d01461051d5780631ff75b0b14610581575f80fd5b806304c842221161039157806304c84222146104565780630cf8542f146104825780630d37ab0014610495578063134f3f96146104c2575f80fd5b806301ffc9a7146103c257806302088c51146103f657806302f2855a146104225780630317b9df14610437575b5f80fd5b3480156103cd575f80fd5b506103e16103dc3660046142c8565b610c93565b60405190151581526020015b60405180910390f35b348015610401575f80fd5b506104156104103660046144c8565b610cc9565b6040516103ed9190614511565b610435610430366004614586565b610d4a565b005b348015610442575f80fd5b506104356104513660046145b0565b610e3d565b348015610461575f80fd5b506104756104703660046145e1565b610f41565b6040516103ed91906145fc565b610435610490366004614586565b610fc8565b3480156104a0575f80fd5b506104b46104af366004614635565b610ff5565b6040519081526020016103ed565b6104356104d0366004614761565b611008565b3480156104e0575f80fd5b506104b46104ef3660046147df565b6110b6565b3480156104ff575f80fd5b506105086110c1565b604080519283526020830191909152016103ed565b348015610528575f80fd5b506105316110f4565b6040516103ed9190815181526020808301519082015260408083015190820152606080830151908201526080808301519082015260a0918201516001600160a01b03169181019190915260c00190565b34801561058c575f80fd5b506104b461059b3660046147f6565b6111a6565b3480156105ab575f80fd5b506104b46105ba3660046147df565b611249565b6104356105cd366004614586565b611269565b3480156105dd575f80fd5b506104b46105ec366004614635565b611296565b6104356105ff36600461483b565b6112a2565b34801561060f575f80fd5b5061043561061e366004614871565b6112c8565b34801561062e575f80fd5b5061043561063d366004614871565b6112ea565b6104356106503660046145b0565b611322565b6104356106633660046148f4565b611348565b610435610676366004614947565b611493565b348015610686575f80fd5b506104356116cf565b34801561069a575f80fd5b506104356106a9366004614985565b611728565b6104356106bc3660046149ab565b611809565b6104356106cf366004614bb6565b611828565b6104356106e2366004614be7565b6118d6565b3480156106f2575f80fd5b506104b4611903565b610435610709366004614c40565b61191e565b61043561071c366004614bb6565b611a17565b34801561072c575f80fd5b506040805180820190915260048152630ec625c760e31b60208201525b6040516103ed9190614cde565b348015610761575f80fd5b505f80516020615eeb8339815191525460ff166103e1565b348015610784575f80fd5b506107986107933660046145e1565b611ac5565b6040516103ed9190614dbe565b3480156107b0575f80fd5b50610435611f08565b3480156107c4575f80fd5b506104b46107d33660046147f6565b611fd8565b3480156107e3575f80fd5b5061088b60408051610100810182525f80825260208201819052918101829052606081018290526080810182905260a0810182905260c0810182905260e0810191909152506040805161010081018252601154815260125460208201526014546001600160a01b03908116928201929092526015548216606082015260165482166080820152601a54821660a0820152601854821660c082015260195490911660e082015290565b604080518251815260208084015190820152828201516001600160a01b039081169282019290925260608084015183169082015260808084015183169082015260a08084015183169082015260c08084015183169082015260e09283015190911691810191909152610100016103ed565b61043561090a366004614e95565b612037565b34801561091a575f80fd5b5061092e6109293660046147df565b612130565b6040516103ed9190614ec7565b610435610949366004614f55565b6121f6565b348015610959575f80fd5b506109626122a4565b6040516103ed91905f60a082019050825182526020830151602083015260408301516040830152606083015160608301526080830151608083015292915050565b3480156109ae575f80fd5b506109b7612342565b6040805182516001600160a01b031681526020928301516001600160401b031692810192909252016103ed565b6104356109f2366004614be7565b6123c5565b610435610a053660046148f4565b612471565b348015610a15575f80fd5b506104356125a4565b610435610a2c366004614586565b6125fd565b610435610a3f3660046144c8565b61262a565b348015610a4f575f80fd5b506103e1610a5e366004614871565b61265f565b348015610a6e575f80fd5b50610a82610a7d3660046144c8565b612695565b6040516103ed9190614f89565b348015610a9a575f80fd5b506104b45f81565b610ab5610ab0366004614fd5565b612716565b6040516103ed9190615043565b348015610acd575f80fd5b50610749604051806040016040528060058152602001640352e302e360dc1b81525081565b348015610afd575f80fd5b50610b11610b0c3660046147df565b61272b565b6040516103ed919081516001600160a01b0316815260208083015190820152604080830151908201526060918201519181019190915260800190565b348015610b58575f80fd5b50610475610b673660046145e1565b612811565b348015610b77575f80fd5b506104b4610b863660046145e1565b612898565b610435610b993660046150a5565b61291b565b610435610bac3660046145b0565b612948565b348015610bbc575f80fd5b50610435610bcb366004614871565b61296e565b610508610bde3660046150b6565b61298a565b6104b4610bf1366004614586565b612bd5565b610435610c043660046150c6565b612d43565b348015610c14575f80fd5b506103e1610c233660046147df565b612d77565b348015610c33575f80fd5b50610435610c423660046150e7565b612df2565b610435610c5536600461516b565b61306a565b610435610c683660046151f8565b61311d565b610435610c7b3660046151f8565b6131cb565b610435610c8e36600461516b565b613279565b5f6001600160e01b03198216637965db0b60e01b1480610cc357506301ffc9a760e01b6001600160e01b03198316145b92915050565b610cd1614175565b604051631c81982560e11b815273__$909b104b05b98ab9b02bd00c4a2f54926d$__90633903304a90610d0a905f908690600401615281565b61014060405180830381865af4158015610d26573d5f803e3d5ffd5b505050506040513d601f19601f82011682018060405250810190610cc391906152ec565b610d526132ad565b610d5a6132e4565b604051635fed4de960e01b815273__$1ffb1d284a100711dc8ce94ffbdfd13eea$__90635fed4de990610d93905f908590600401615381565b5f6040518083038186803b158015610da9575f80fd5b505af4158015610dbb573d5f803e3d5ffd5b505060405163d96aec4360e01b815273__$1ffb1d284a100711dc8ce94ffbdfd13eea$__925063d96aec439150610df8905f908590600401615381565b5f6040518083038186803b158015610e0e575f80fd5b505af4158015610e20573d5f803e3d5ffd5b50505050610e3a60015f80516020615f0b83398151915255565b50565b5f610e488133613329565b610e735760405163e2517d3f60e01b8152336004820152602481018290526044015b60405180910390fd5b60405163e57980dd60e01b815273__$72c16261390208f563094e6a4fc9f74031$__9063e57980dd90610eac905f9086906004016153c3565b5f6040518083038186803b158015610ec2575f80fd5b505af4158015610ed4573d5f803e3d5ffd5b5050604051634752b3b360e01b815273__$72c16261390208f563094e6a4fc9f74031$__9250634752b3b39150610f11905f9086906004016153c3565b5f6040518083038186803b158015610f27575f80fd5b505af4158015610f39573d5f803e3d5ffd5b505050505050565b610f6e6040518060a001604052805f81526020015f81526020015f81526020015f81526020015f81525090565b506001600160a01b03165f908152601b6020908152604091829020825160a0810184526001820154815260028201549281019290925260038101549282019290925260048201546060820152600590910154608082015290565b610e3a604051806040016040528083803603810190610fe79190615447565b8152336020909101526131cb565b5f6110018184846133d2565b9392505050565b6110106132ad565b6110186132e4565b6040516333d4ade560e01b815273__$f56cb86c34e0dd0dca51f5a3538433e18c$__906333d4ade590611051905f908590600401615461565b5f6040518083038186803b158015611067575f80fd5b505af4158015611079573d5f803e3d5ffd5b505060405163178bcac760e11b815273__$f56cb86c34e0dd0dca51f5a3538433e18c$__9250632f17958e9150610df8905f908590600401615461565b5f610cc38183613520565b6011545f9081906110d39082906154e5565b6110df60025f196154f8565b6012546110ec91906154e5565b915091509091565b6111306040518060c001604052805f81526020015f81526020015f81526020015f81526020015f81526020015f6001600160a01b031681525090565b6040516386617e7760e01b81525f600482015273__$72c16261390208f563094e6a4fc9f74031$__906386617e779060240160c060405180830381865af415801561117d573d5f803e3d5ffd5b505050506040513d601f19601f820116820180604052508101906111a19190615517565b905090565b60405163897bce1f60e01b81525f600482018190526001600160a01b0380871660248401526044830186905284166064830152608482018390529073__$fad1da84a532053b53119316a58e977f10$__9063897bce1f9060a4015b602060405180830381865af415801561121c573d5f803e3d5ffd5b505050506040513d601f19601f820116820180604052508101906112409190615575565b95945050505050565b5f9081525f80516020615ecb833981519152602052604090206001015490565b610e3a6040518060400160405280838036038101906112889190615447565b81523360209091015261311d565b5f611001818484613720565b610e3a6040518060400160405280836112ba9061558c565b815233602090910152611008565b6112d182611249565b6112da81613864565b6112e4838361386e565b50505050565b6001600160a01b03811633146113135760405163334bd91960e11b815260040160405180910390fd5b61131d828261390f565b505050565b610e3a60405180604001604052808361133a90615597565b815233602090910152611a17565b6113506132ad565b6113586132e4565b60405163160b9e6b60e31b815273__$c58e2605104bb31274ad8c04841b6a7550$__9063b05cf35890611391905f9085906004016155d3565b5f6040518083038186803b1580156113a7575f80fd5b505af41580156113b9573d5f803e3d5ffd5b5050604051639f46aa4160e01b815273__$c58e2605104bb31274ad8c04841b6a7550$__9250639f46aa4191506113f6905f9085906004016155d3565b5f6040518083038186803b15801561140c575f80fd5b505af415801561141e573d5f803e3d5ffd5b505050505f19815f0151602001510361147d5760208101516040516316bbd7db60e11b81525f60048201526001600160a01b03909116602482015273__$b44e0fdf2f6bdeffc1681a5a467d23dde6$__90632d77afb690604401610df8565b610e3a60015f80516020615f0b83398151915255565b61149b6132ad565b6114a36132e4565b602081015160405163046dbd1360e11b81525f600482018190526001600160a01b03831660248301529073__$b44e0fdf2f6bdeffc1681a5a467d23dde6$__906308db7a2690604401602060405180830381865af4158015611507573d5f803e3d5ffd5b505050506040513d601f19601f8201168201806040525081019061152b9190615575565b60405163f9c417bd60e01b815290915073__$7fa168b5d238863382c2bf886894022425$__9063f9c417bd90611567905f9087906004016155e8565b5f6040518083038186803b15801561157d575f80fd5b505af415801561158f573d5f803e3d5ffd5b5050604051634971bf9960e01b815273__$7fa168b5d238863382c2bf886894022425$__9250634971bf9991506115cc905f9087906004016155e8565b5f6040518083038186803b1580156115e2575f80fd5b505af41580156115f4573d5f803e3d5ffd5b505060405163046dbd1360e11b81525f600482018190526001600160a01b0386166024830152925073__$b44e0fdf2f6bdeffc1681a5a467d23dde6$__91506308db7a2690604401602060405180830381865af4158015611657573d5f803e3d5ffd5b505050506040513d601f19601f8201168201806040525081019061167b9190615575565b90508181116116b65760405163625a84dd60e01b81526001600160a01b03841660048201526024810183905260448101829052606401610e6a565b505050610e3a60015f80516020615f0b83398151915255565b7f65d7a28e3265b37a6474929f336521b332c1681b933f6cb9f3376673440d862a6116fa8133613329565b6117205760405163e2517d3f60e01b815233600482015260248101829052604401610e6a565b610e3a613988565b6117306132ad565b7f1eae1854c74a696c6de86fd3c6383d5c1e2c33fbc86e1aa6b6c872d95bd2403861175b8133613329565b6117815760405163e2517d3f60e01b815233600482015260248101829052604401610e6a565b600d80546001600160801b038481166001600160c01b031983168117600160801b426001600160401b031602179093556040805191909216808252602082019390935233917f26b8010a81fad3e15c7545637c99390bdeb250bf0a67e4cf43c3d220ec2acc31910160405180910390a25050610e3a60015f80516020615f0b83398151915255565b6118116139e7565b61181a82613a8b565b6118248282613abc565b5050565b6118306132ad565b6118386132e4565b604051637125eda960e11b815273__$339bef8b42d49ef7fc0392a1b9554f9551$__9063e24bdb5290611871905f9085906004016156e3565b5f6040518083038186803b158015611887575f80fd5b505af4158015611899573d5f803e3d5ffd5b505060405163184d91f360e31b815273__$339bef8b42d49ef7fc0392a1b9554f9551$__925063c26c8f989150610df8905f9085906004016156e3565b610e3a6040518060400160405280838036038101906118f591906156fb565b815233602090910152612037565b5f61190c613b78565b505f80516020615eab83398151915290565b6119266132ad565b61192e6132e4565b604080516325f2df6f60e01b81525f6004820152825151602482015260208301516001600160a01b03908116604483015291830151909116606482015273__$c19cfa413da1baf02a2307c9fe3d8deda6$__906325f2df6f906084015f6040518083038186803b1580156119a0575f80fd5b505af41580156119b2573d5f803e3d5ffd5b5050604080516330e78a9160e11b81525f6004820152845151602482015260208501516001600160a01b03908116604483015291850151909116606482015273__$c19cfa413da1baf02a2307c9fe3d8deda6$__92506361cf15229150608401610df8565b611a1f6132ad565b611a276132e4565b604051632d0c1e8b60e01b815273__$f215670302542f95b8fc754ac02a4bfcb4$__90632d0c1e8b90611a60905f9085906004016156e3565b5f6040518083038186803b158015611a76575f80fd5b505af4158015611a88573d5f803e3d5ffd5b505060405163c0c66ed960e01b815273__$f215670302542f95b8fc754ac02a4bfcb4$__925063c0c66ed99150610df8905f9085906004016156e3565b611acd6141bb565b5f80516020615f0b83398151915254600203611afc57604051633ee5aeb560e01b815260040160405180910390fd5b604080516001600160a01b0384165f908152600e60209081529083902061016083018452805461012084019081528451600183018054608095810283018601909752606082018781529596879660a088019687959487946101408b01949193909284928491840182828015611b8e57602002820191905f5260205f20905b815481526020019060010190808311611b7a575b5050505050815260200160018201805480602002602001604051908101604052809291908181526020018280548015611be457602002820191905f5260205f20905b815481526020019060010190808311611bd0575b5050505050815260200160028201805480602002602001604051908101604052809291908181526020018280548015611c3a57602002820191905f5260205f20905b815481526020019060010190808311611c26575b505050505081525050815250508152602001600482016040518060400160405290815f8201548152602001600182016040518060600160405290815f8201805480602002602001604051908101604052809291908181526020018280548015611cc057602002820191905f5260205f20905b815481526020019060010190808311611cac575b5050505050815260200160018201805480602002602001604051908101604052809291908181526020018280548015611d1657602002820191905f5260205f20905b815481526020019060010190808311611d02575b5050505050815260200160028201805480602002602001604051908101604052809291908181526020018280548015611d6c57602002820191905f5260205f20905b815481526020019060010190808311611d58575b505050919092525050509052508152600882015460208083019190915260099092015460ff1615156040918201529183526001600160a01b0386811691840182905260165483516370a0823160e01b815260048101939093529390920192909116906370a0823190602401602060405180830381865afa158015611df2573d5f803e3d5ffd5b505050506040513d601f19601f82011682018060405250810190611e169190615575565b8152601a546040516370a0823160e01b81526001600160a01b038681166004830152602090930192909116906370a0823190602401602060405180830381865afa158015611e66573d5f803e3d5ffd5b505050506040513d601f19601f82011682018060405250810190611e8a9190615575565b81526018546040516370a0823160e01b81526001600160a01b038681166004830152602090930192909116906370a0823190602401602060405180830381865afa158015611eda573d5f803e3d5ffd5b505050506040513d601f19601f82011682018060405250810190611efe9190615575565b905290505b919050565b5f611f1281613864565b612a305f611f1e613bc1565b8054909150600160401b900460ff1680611f45575080546001600160401b03808416911610155b15611f635760405163f92ee8a960e01b815260040160405180910390fd5b805468ffffffffffffffffff19166001600160401b03831617600160401b178155611f8c613be9565b805460ff60401b191681556040516001600160401b03831681527fc7f505b2f371ae2175ee4913f4499e1f2633a7b5936321eed1cdaeb6115181d29060200160405180910390a1505050565b604051637574b6e360e01b81525f600482018190526001600160a01b0380871660248401526044830186905284166064830152608482018390529073__$fad1da84a532053b53119316a58e977f10$__90637574b6e39060a401611201565b61203f6132ad565b6120476132e4565b604051623fe27360e01b81525f6004820152815180516001600160a01b039081166024840152602091820151151560448401529083015116606482015273__$c6aecf0de9c97d330c260596cb45f01743$__90623fe273906084015f6040518083038186803b1580156120b8575f80fd5b505af41580156120ca573d5f803e3d5ffd5b505060405163724e2b6f60e01b81525f6004820152835180516001600160a01b039081166024840152602091820151151560448401529085015116606482015273__$c6aecf0de9c97d330c260596cb45f01743$__925063724e2b6f9150608401610df8565b6121386141f5565b604051633978289f60e01b81525f60048201526024810183905273__$674c94602fbdb88ca53d9ba4295c8813fa$__90633978289f90604401602060405180830381865af415801561218c573d5f803e3d5ffd5b505050506040513d601f19601f820116820180604052508101906121b09190615575565b6040805160808101825282546001600160a01b0381168252600160a01b900460ff1615156020820152600183015491810191909152600290910154606082015292915050565b6121fe6132ad565b6122066132e4565b60405163da25f11760e01b815273__$e9ef7182266124a833dac7dfa55fc79e51$__9063da25f1179061223f905f908590600401615715565b5f6040518083038186803b158015612255575f80fd5b505af4158015612267573d5f803e3d5ffd5b50506040516388fb1b6760e01b815273__$e9ef7182266124a833dac7dfa55fc79e51$__92506388fb1b679150610df8905f908590600401615715565b6122d16040518060a001604052805f81526020015f81526020015f81526020015f81526020015f81525090565b604051636e9bc7eb60e11b81525f600482015273__$72c16261390208f563094e6a4fc9f74031$__9063dd378fd69060240160a060405180830381865af415801561231e573d5f803e3d5ffd5b505050506040513d601f19601f820116820180604052508101906111a191906157ab565b604080518082019091525f8082526020820152604051631ae5e80160e31b81525f600482015273__$72c16261390208f563094e6a4fc9f74031$__9063d72f4008906024016040805180830381865af41580156123a1573d5f803e3d5ffd5b505050506040513d601f19601f820116820180604052508101906111a1919061580d565b6123cd6132ad565b6123d56132e4565b6040516210aa0b60e31b815273__$45d7492db284be01938913cb41b9cac2a6$__90628550589061240c905f908590600401615840565b5f6040518083038186803b158015612422575f80fd5b505af4158015612434573d5f803e3d5ffd5b50506040516364140a8360e01b815273__$45d7492db284be01938913cb41b9cac2a6$__92506364140a839150610df8905f908590600401615840565b6124796132ad565b6124816132e4565b604051631e55c20b60e31b815273__$909b104b05b98ab9b02bd00c4a2f54926d$__9063f2ae1058906124ba905f9085906004016155d3565b5f6040518083038186803b1580156124d0575f80fd5b505af41580156124e2573d5f803e3d5ffd5b5050604051630f6470bd60e01b815273__$909b104b05b98ab9b02bd00c4a2f54926d$__9250630f6470bd915061251f905f9085906004016155d3565b5f6040518083038186803b158015612535575f80fd5b505af4158015612547573d5f803e3d5ffd5b505050505f19815f0151602001510361147d578051516040516316bbd7db60e11b81525f60048201526001600160a01b03909116602482015273__$b44e0fdf2f6bdeffc1681a5a467d23dde6$__90632d77afb690604401610df8565b7f65d7a28e3265b37a6474929f336521b332c1681b933f6cb9f3376673440d862a6125cf8133613329565b6125f55760405163e2517d3f60e01b815233600482015260248101829052604401610e6a565b610e3a613bf9565b610e3a60405180604001604052808380360381019061261c9190615878565b815233602090910152611493565b610e3a6040518060600160405280838152602001336001600160a01b03168152602001336001600160a01b0316815250611348565b5f9182525f80516020615ecb833981519152602090815260408084206001600160a01b0393909316845291905290205460ff1690565b61269d614224565b60405163301d1d1560e21b815273__$c58e2605104bb31274ad8c04841b6a7550$__9063c0747454906126d6905f908690600401615281565b61012060405180830381865af41580156126f2573d5f803e3d5ffd5b505050506040513d601f19601f82011682018060405250810190610cc39190615892565b60606127206132e4565b6110015f8484613c41565b61275b60405180608001604052805f6001600160a01b031681526020015f81526020015f81526020015f81525090565b604051634c9829bf60e11b81525f60048201526024810183905273__$674c94602fbdb88ca53d9ba4295c8813fa$__90639930537e90604401602060405180830381865af41580156127af573d5f803e3d5ffd5b505050506040513d601f19601f820116820180604052508101906127d39190615575565b6040805160808101825282546001600160a01b0316815260018301546020820152600283015491810191909152600390910154606082015292915050565b61283e6040518060a001604052805f81526020015f81526020015f81526020015f81526020015f81525090565b506001600160a01b03165f908152601b6020908152604091829020825160a0810184526006820154815260078201549281019290925260088101549282019290925260098201546060820152600a90910154608082015290565b60405163046dbd1360e11b81525f600482018190526001600160a01b03831660248301529073__$b44e0fdf2f6bdeffc1681a5a467d23dde6$__906308db7a2690604401602060405180830381865af41580156128f7573d5f803e3d5ffd5b505050506040513d601f19601f82011682018060405250810190610cc39190615575565b610e3a60405180604001604052808380360381019061293a91906158f4565b8152336020909101526121f6565b610e3a60405180604001604052808361296090615597565b815233602090910152611828565b61297782611249565b61298081613864565b6112e4838361390f565b5f806129946132ad565b61299c6132e4565b7ffc8737ab85eb45125971625a9ebdb75cc78e01d5c1fa80c4c6e5203f47bc4fab6129c78133613329565b6129ed5760405163e2517d3f60e01b815233600482015260248101829052604401610e6a565b604051639f53ee0f60e01b815273__$d00168f5747027b5a56099c751031d7e40$__90639f53ee0f90612a26905f908890600401615976565b5f6040518083038186803b158015612a3c575f80fd5b505af4158015612a4e573d5f803e3d5ffd5b505060405163647a4b7560e11b815273__$d00168f5747027b5a56099c751031d7e40$__925063c8f496ea9150612a8b905f908890600401615976565b6040805180830381865af4158015612aa5573d5f803e3d5ffd5b505050506040513d601f19601f82011682018060405250810190612ac9919061598b565b909350915073__$b44e0fdf2f6bdeffc1681a5a467d23dde6$__632d77afb65f612af960408801602089016145e1565b6040516001600160e01b031960e085901b16815260048101929092526001600160a01b031660248201526044015f6040518083038186803b158015612b3c575f80fd5b505af4158015612b4e573d5f803e3d5ffd5b5050604051636e6595c160e01b815273__$d00168f5747027b5a56099c751031d7e40$__9250636e6595c19150612b8d905f90889088906004016159ad565b5f6040518083038186803b158015612ba3575f80fd5b505af4158015612bb5573d5f803e3d5ffd5b5050505050612bd060015f80516020615f0b83398151915255565b915091565b5f612bde6132ad565b612be66132e4565b6040516320b5435f60e11b815273__$04d32033081e1e9356971d8f4b5098bcad$__9063416a86be90612c1f905f9086906004016159d1565b5f6040518083038186803b158015612c35575f80fd5b505af4158015612c47573d5f803e3d5ffd5b5050604051630d0699cb60e21b815273__$04d32033081e1e9356971d8f4b5098bcad$__925063341a672c9150612c84905f9086906004016159d1565b602060405180830381865af4158015612c9f573d5f803e3d5ffd5b505050506040513d601f19601f82011682018060405250810190612cc39190615575565b60405163489d188160e01b815290915073__$04d32033081e1e9356971d8f4b5098bcad$__9063489d188190612d01905f90869086906004016159f9565b5f6040518083038186803b158015612d17575f80fd5b505af4158015612d29573d5f803e3d5ffd5b50505050611f0360015f80516020615f0b83398151915255565b610e3a604051806060016040528083803603810190612d6291906144c8565b81523360208201819052604090910152612471565b604051631928c8e960e11b81525f60048201819052602482018390529073__$b44e0fdf2f6bdeffc1681a5a467d23dde6$__9063325191d290604401602060405180830381865af4158015612dce573d5f803e3d5ffd5b505050506040513d601f19601f82011682018060405250810190610cc39190615a2f565b5f612dfb613bc1565b805490915060ff600160401b82041615906001600160401b03165f81158015612e215750825b90505f826001600160401b03166001148015612e3c5750303b155b905081158015612e4a575080155b15612e685760405163f92ee8a960e01b815260040160405180910390fd5b845467ffffffffffffffff191660011785558315612e9257845460ff60401b1916600160401b1785555b6040516369777eb960e01b815273__$d02cb2608d6f3ad3f53f4dd3f26f81b8ea$__906369777eb990612ed3905f908e908e908e908e908e90600401615b63565b5f6040518083038186803b158015612ee9575f80fd5b505af4158015612efb573d5f803e3d5ffd5b50505050612f07613d29565b612f0f613d29565b612f17613be9565b612f1f613d29565b604051632ffdac7160e21b815273__$d02cb2608d6f3ad3f53f4dd3f26f81b8ea$__9063bff6b1c490612f5e905f908d908d908d908d90600401615bd7565b5f6040518083038186803b158015612f74575f80fd5b505af4158015612f86573d5f803e3d5ffd5b50505050612f965f801b8b61386e565b50612fc17f65d7a28e3265b37a6474929f336521b332c1681b933f6cb9f3376673440d862a8b61386e565b50612fec7ffc8737ab85eb45125971625a9ebdb75cc78e01d5c1fa80c4c6e5203f47bc4fab8b61386e565b506130177f1eae1854c74a696c6de86fd3c6383d5c1e2c33fbc86e1aa6b6c872d95bd240388b61386e565b50831561305e57845460ff60401b19168555604051600181527fc7f505b2f371ae2175ee4913f4499e1f2633a7b5936321eed1cdaeb6115181d29060200160405180910390a15b50505050505050505050565b6130726132ad565b61307a6132e4565b604051635792057f60e11b81525f60048201528135602482015273__$ebce6ba8505acc62d937fb713060c40a3c$__9063af240afe906044015f6040518083038186803b1580156130c9575f80fd5b505af41580156130db573d5f803e3d5ffd5b50506040516320e9b9f960e11b81525f60048201528335602482015273__$ebce6ba8505acc62d937fb713060c40a3c$__92506341d373f29150604401610df8565b6131256132ad565b61312d6132e4565b604051631005beb160e31b815273__$7947dedfaba9c59621bd8bcc87e3fb80f1$__9063802df58890613166905f908590600401615c3b565b5f6040518083038186803b15801561317c575f80fd5b505af415801561318e573d5f803e3d5ffd5b5050604051631cc17ae560e31b815273__$7947dedfaba9c59621bd8bcc87e3fb80f1$__925063e60bd7289150610df8905f908590600401615c3b565b6131d36132ad565b6131db6132e4565b60405163024889b160e51b815273__$d49e499a4608ab3aca09b91fe5950492b6$__90634911362090613214905f908590600401615c3b565b5f6040518083038186803b15801561322a575f80fd5b505af415801561323c573d5f803e3d5ffd5b505060405163a083c0ab60e01b815273__$d49e499a4608ab3aca09b91fe5950492b6$__925063a083c0ab9150610df8905f908590600401615c3b565b610e3a6040518060600160405280838036038101906132989190615c80565b8152336020820181905260409091015261191e565b5f80516020615f0b8339815191528054600119016132de57604051633ee5aeb560e01b815260040160405180910390fd5b60029055565b5f80516020615eeb8339815191525460ff16156133145760405163d93c066560e01b815260040160405180910390fd5b565b60015f80516020615f0b83398151915255565b5f613334838361265f565b1561334157506001610cc3565b601c546001600160a01b031661335857505f610cc3565b601c54604051632474521560e21b8152600481018590526001600160a01b038481166024830152909116906391d1485490604401602060405180830381865afa1580156133a7573d5f803e3d5ffd5b505050506040513d601f19601f820116820180604052508101906133cb9190615a2f565b9050610cc3565b6001600160a01b0382165f908152600e8401602090815260408083208151808301835281548152825160018301805460808188028401810190965260608301818152613518978c978c979591870194919391928492909184919084018282801561345957602002820191905f5260205f20905b815481526020019060010190808311613445575b50505050508152602001600182018054806020026020016040519081016040528092919081815260200182805480156134af57602002820191905f5260205f20905b81548152602001906001019080831161349b575b505050505081526020016002820180548060200260200160405190810160405280929190818152602001828054801561350557602002820191905f5260205f20905b8154815260200190600101908083116134f1575b5050505050815250508152505085613d31565b949350505050565b5f61100183600c015f015f9054906101000a90046001600160a01b03166001600160a01b031663313ce5676040518163ffffffff1660e01b8152600401602060405180830381865afa158015613578573d5f803e3d5ffd5b505050506040513d601f19601f8201168201806040525081019061359c9190615575565b6135a790600a615d7a565b6135b19084615d85565b60148501546040805163313ce56760e01b815290516001600160a01b039092169163313ce567916004808201926020929091908290030181865afa1580156135fb573d5f803e3d5ffd5b505050506040513d601f19601f8201168201806040525081019061361f9190615d9c565b61362a90600a615dbc565b60158601546040805163313ce56760e01b815290516001600160a01b039092169163313ce567916004808201926020929091908290030181865afa158015613674573d5f803e3d5ffd5b505050506040513d601f19601f820116820180604052508101906136989190615d9c565b6136a390600a615dbc565b600c87015460408051634c6afee560e11b815290516001600160a01b03909216916398d5fdca916004808201926020929091908290030181865afa1580156136ed573d5f803e3d5ffd5b505050506040513d601f19601f820116820180604052508101906137119190615575565b61371b9190615d85565b613e8b565b6001600160a01b0382165f908152600e84016020908152604080832081518083018352600482018054825283516005909301805460808188028601810190965260608501818152613518978c978c9791870194919391928492909184919084018282801561345957602002820191905f5260205f20908154815260200190600101908083116134455750505050508152602001600182018054806020026020016040519081016040528092919081815260200182805480156134af57602002820191905f5260205f209081548152602001906001019080831161349b57505050505081526020016002820180548060200260200160405190810160405280929190818152602001828054801561350557602002820191905f5260205f20908154815260200190600101908083116134f1575050505050815250508152505085613d31565b610e3a8133613e97565b5f5f80516020615ecb833981519152613887848461265f565b613906575f848152602082815260408083206001600160a01b03871684529091529020805460ff191660011790556138bc3390565b6001600160a01b0316836001600160a01b0316857f2f8788117e7eff1d82e926ec794901d17c78024a50270940304540a733656f0d60405160405180910390a46001915050610cc3565b5f915050610cc3565b5f5f80516020615ecb833981519152613928848461265f565b15613906575f848152602082815260408083206001600160a01b0387168085529252808320805460ff1916905551339287917ff6391f5c32d9c69d2a47ea670b442974b53935d1edc7fd64eb21e047a839171b9190a46001915050610cc3565b613990613ed0565b5f80516020615eeb833981519152805460ff191681557f5db9ee0a495bf2e6ff9c91a7834c1ba4fdd244a5e8aa4e537bd38aeae4b073aa335b6040516001600160a01b03909116815260200160405180910390a150565b306001600160a01b037f0000000000000000000000000000000000000000000000000000000000000000161480613a6d57507f00000000000000000000000000000000000000000000000000000000000000006001600160a01b0316613a615f80516020615eab833981519152546001600160a01b031690565b6001600160a01b031614155b156133145760405163703e46dd60e11b815260040160405180910390fd5b5f613a968133613329565b6118245760405163e2517d3f60e01b815233600482015260248101829052604401610e6a565b816001600160a01b03166352d1902d6040518163ffffffff1660e01b8152600401602060405180830381865afa925050508015613b16575060408051601f3d908101601f19168201909252613b1391810190615575565b60015b613b3e57604051634c9c8ce360e01b81526001600160a01b0383166004820152602401610e6a565b5f80516020615eab8339815191528114613b6e57604051632a87526960e21b815260048101829052602401610e6a565b61131d8383613eff565b306001600160a01b037f000000000000000000000000000000000000000000000000000000000000000016146133145760405163703e46dd60e11b815260040160405180910390fd5b5f807ff0c57e16840df040f15088dc2f81fe391c3923bec73e23a9662efc9c229c6a00610cc3565b613bf1613f54565b613314613f79565b613c016132e4565b5f80516020615eeb833981519152805460ff191660011781557f62e78cea01bee320cd4e420270b5ea74000d11b0c9f74754ebdbfc544b05a258336139c9565b6060816001600160401b03811115613c5b57613c5b6142ef565b604051908082528060200260200182016040528015613c8e57816020015b6060815260200190600190039081613c795790505b5090505f5b82811015613d2157613cfc30858584818110613cb157613cb1615dca565b9050602002810190613cc39190615dde565b8080601f0160208091040260200160405190810160405280939291908181526020018383808284375f92019190915250613f8192505050565b828281518110613d0e57613d0e615dca565b6020908102919091010152600101613c93565b509392505050565b613314613f54565b5f815f03613d52576040516301c85f6760e71b815260040160405180910390fd5b613d5b83613fea565b15613d835760405162b04ee160e61b81526001600160a01b0385166004820152602401610e6a565b8251613d8f8342615e27565b1115613dc357613d9f8242615e27565b8351604051636f2f16a760e01b815260048101929092526024820152604401610e6a565b60408051606081018252600d8701546001600160801b03811682526001600160401b03600160801b82048116602080850191909152600160c01b909204168284015285015191516315c6891560e11b8152909173__$99c8b6d537f6911e4d5e2b5618b4ddcec4$__91632b8d122a91613e429185908890600401615e3a565b602060405180830381865af4158015613e5d573d5f803e3d5ffd5b505050506040513d601f19601f82011682018060405250810190613e819190615575565b9695505050505050565b5f613518848484614003565b613ea1828261265f565b6118245760405163e2517d3f60e01b81526001600160a01b038216600482015260248101839052604401610e6a565b5f80516020615eeb8339815191525460ff1661331457604051638dfc202b60e01b815260040160405180910390fd5b613f088261402f565b6040516001600160a01b038316907fbc7cd75a20ee27fd9adebab32041f755214dbc6bffa90cc0225b39da2e5c2d3b905f90a2805115613f4c5761131d8282613f81565b611824614092565b613f5c6140b1565b61331457604051631afcd79f60e31b815260040160405180910390fd5b613316613f54565b60605f80846001600160a01b031684604051613f9d9190615e8f565b5f60405180830381855af49150503d805f8114613fd5576040519150601f19603f3d011682016040523d82523d5f602084013e613fda565b606091505b50915091506112408583836140ca565b80515f90158015610cc35750610cc38260200151614126565b5f825f1904841183021582026140205763ad251c275f526004601cfd5b50910281810615159190040190565b806001600160a01b03163b5f0361406457604051634c9c8ce360e01b81526001600160a01b0382166004820152602401610e6a565b5f80516020615eab83398151915280546001600160a01b0319166001600160a01b0392909216919091179055565b34156133145760405163b398979f60e01b815260040160405180910390fd5b5f6140ba613bc1565b54600160401b900460ff16919050565b6060826140df576140da8261414c565b611001565b81511580156140f657506001600160a01b0384163b155b1561411f57604051639996b31560e01b81526001600160a01b0385166004820152602401610e6a565b5080611001565b8051515f9015801561413b5750602082015151155b8015610cc357505060400151511590565b80511561415c5780518082602001fd5b60405163d6bda27560e01b815260040160405180910390fd5b6040518060e001604052806141886141f5565b81526020015f6001600160a01b031681526020015f81526020015f81526020015f81526020015f81526020015f81525090565b6040518060a001604052806141ce61425b565b81526020015f6001600160a01b031681526020015f81526020015f81526020015f81525090565b60405180608001604052805f6001600160a01b031681526020015f151581526020015f81526020015f81525090565b6040518060c001604052806142376141f5565b81526020015f81526020015f81526020015f81526020015f81526020015f81525090565b604051806080016040528061426e61428e565b815260200161427b61428e565b81525f6020820181905260409091015290565b60405180604001604052805f81526020016142c360405180606001604052806060815260200160608152602001606081525090565b905290565b5f602082840312156142d8575f80fd5b81356001600160e01b031981168114611001575f80fd5b634e487b7160e01b5f52604160045260245ffd5b60405161012081016001600160401b0381118282101715614326576143266142ef565b60405290565b604051608081016001600160401b0381118282101715614326576143266142ef565b604080519081016001600160401b0381118282101715614326576143266142ef565b604051606081016001600160401b0381118282101715614326576143266142ef565b60405160a081016001600160401b0381118282101715614326576143266142ef565b60405160c081016001600160401b0381118282101715614326576143266142ef565b604051601f8201601f191681016001600160401b03811182821017156143fe576143fe6142ef565b604052919050565b6001600160a01b0381168114610e3a575f80fd5b8035611f0381614406565b8015158114610e3a575f80fd5b8035611f0381614425565b5f610120828403121561444e575f80fd5b614456614303565b90506144618261441a565b81526020820135602082015260408201356040820152606082013560608201526080820135608082015260a082013560a08201526144a160c08301614432565b60c082015260e082013560e08201526101006144be81840161441a565b9082015292915050565b5f61012082840312156144d9575f80fd5b611001838361443d565b80516001600160a01b0316825260208082015115159083015260408082015190830152606090810151910152565b5f610140820190506145248284516144e3565b60018060a01b036020840151166080830152604083015160a0830152606083015160c0830152608083015160e083015260a083015161010083015260c083015161012083015292915050565b5f60608284031215614580575f80fd5b50919050565b5f60608284031215614596575f80fd5b6110018383614570565b5f60408284031215614580575f80fd5b5f602082840312156145c0575f80fd5b81356001600160401b038111156145d5575f80fd5b613518848285016145a0565b5f602082840312156145f1575f80fd5b813561100181614406565b60a08101610cc3828480518252602081015160208301526040810151604083015260608101516060830152608081015160808301525050565b5f8060408385031215614646575f80fd5b823561465181614406565b946020939093013593505050565b5f6001600160401b03821115614677576146776142ef565b5060051b60200190565b5f82601f830112614690575f80fd5b813560206146a56146a08361465f565b6143d6565b8083825260208201915060208460051b8701019350868411156146c6575f80fd5b602086015b848110156146e257803583529183019183016146cb565b509695505050505050565b5f608082840312156146fd575f80fd5b61470561432c565b905081358152602082013561471981614425565b6020820152604082013561472c81614425565b604082015260608201356001600160401b03811115614749575f80fd5b61475584828501614681565b60608301525092915050565b5f60208284031215614771575f80fd5b81356001600160401b0380821115614787575f80fd5b908301906040828603121561479a575f80fd5b6147a261434e565b8235828111156147b0575f80fd5b6147bc878286016146ed565b825250602083013592506147cf83614406565b6020810192909252509392505050565b5f602082840312156147ef575f80fd5b5035919050565b5f805f8060808587031215614809575f80fd5b843561481481614406565b935060208501359250604085013561482b81614406565b9396929550929360600135925050565b5f6020828403121561484b575f80fd5b81356001600160401b03811115614860575f80fd5b820160808185031215611001575f80fd5b5f8060408385031215614882575f80fd5b82359150602083013561489481614406565b809150509250929050565b5f61016082840312156148b0575f80fd5b6148b8614370565b90506148c4838361443d565b81526101208201356148d581614406565b60208201526101408201356148e981614406565b604082015292915050565b5f6101608284031215614905575f80fd5b611001838361489f565b5f6060828403121561491f575f80fd5b614927614370565b905081358152602082013560208201526040820135604082015292915050565b5f60808284031215614957575f80fd5b61495f61434e565b614969848461490f565b8152606083013561497981614406565b60208201529392505050565b5f60208284031215614995575f80fd5b81356001600160801b0381168114611001575f80fd5b5f80604083850312156149bc575f80fd5b82356149c781614406565b91506020838101356001600160401b03808211156149e3575f80fd5b818601915086601f8301126149f6575f80fd5b813581811115614a0857614a086142ef565b614a1a601f8201601f191685016143d6565b91508082528784828501011115614a2f575f80fd5b80848401858401375f848284010152508093505050509250929050565b5f60408284031215614a5c575f80fd5b614a6461434e565b9050813581526020808301356001600160401b0380821115614a84575f80fd5b9084019060608287031215614a97575f80fd5b614a9f614370565b823582811115614aad575f80fd5b614ab988828601614681565b8252508383013582811115614acc575f80fd5b8301601f81018813614adc575f80fd5b8035614aea6146a08261465f565b81815260059190911b8201860190868101908a831115614b08575f80fd5b928701925b82841015614b2657833582529287019290870190614b0d565b84880152505050604083013582811115614b3e575f80fd5b614b4a88828601614681565b60408301525080848601525050505092915050565b5f60408284031215614b6f575f80fd5b614b7761434e565b905081356001600160401b03811115614b8e575f80fd5b614b9a84828501614a4c565b8252506020820135614bab81614406565b602082015292915050565b5f60208284031215614bc6575f80fd5b81356001600160401b03811115614bdb575f80fd5b61351884828501614b5f565b5f60408284031215614bf7575f80fd5b61100183836145a0565b5f60208284031215614c11575f80fd5b604051602081018181106001600160401b0382111715614c3357614c336142ef565b6040529135825250919050565b5f60608284031215614c50575f80fd5b614c58614370565b614c628484614c01565b81526020830135614c7281614406565b60208201526040830135614c8581614406565b60408201529392505050565b5f5b83811015614cab578181015183820152602001614c93565b50505f910152565b5f8151808452614cca816020860160208601614c91565b601f01601f19169290920160200192915050565b602081525f6110016020830184614cb3565b5f815180845260208085019450602084015f5b83811015614d1f57815187529582019590820190600101614d03565b509495945050505050565b805182525f602080830151604082860152805160606040870152614d5160a0870182614cf0565b83830151603f19888303810160608a0152815180845291860193505f929091908601905b80841015614d955784518252938601936001939093019290860190614d75565b5060408501519550818982030160808a0152614db18187614cf0565b9998505050505050505050565b602081525f825160a060208401528051608060c0850152614de3610140850182614d2a565b9050602082015160bf198583030160e0860152614e008282614d2a565b91505060408201516101008501526060820151151561012085015260208501519150614e3760408501836001600160a01b03169052565b6040850151606085015260608501516080850152608085015160a0850152809250505092915050565b5f60408284031215614e70575f80fd5b614e7861434e565b90508135614e8581614406565b81526020820135614bab81614425565b5f60608284031215614ea5575f80fd5b614ead61434e565b614eb78484614e60565b8152604083013561497981614406565b60808101610cc382846144e3565b5f60a08284031215614ee5575f80fd5b614eed614392565b9050813581526020820135602082015260408201356040820152606082013560608201526080820135608082015292915050565b5f6101408284031215614f32575f80fd5b614f3a61434e565b9050614f468383614ed5565b8152614bab8360a08401614ed5565b5f6101608284031215614f66575f80fd5b614f6e61434e565b614f788484614f21565b815261014083013561497981614406565b5f61012082019050614f9c8284516144e3565b60208301516080830152604083015160a0830152606083015160c0830152608083015160e083015260a083015161010083015292915050565b5f8060208385031215614fe6575f80fd5b82356001600160401b0380821115614ffc575f80fd5b818501915085601f83011261500f575f80fd5b81358181111561501d575f80fd5b8660208260051b8501011115615031575f80fd5b60209290920196919550909350505050565b5f60208083016020845280855180835260408601915060408160051b8701019250602087015f5b8281101561509857603f19888603018452615086858351614cb3565b9450928501929085019060010161506a565b5092979650505050505050565b5f6101408284031215614580575f80fd5b5f60e08284031215614580575f80fd5b5f6101208284031215614580575f80fd5b5f60c08284031215614580575f80fd5b5f805f805f8587036102808112156150fd575f80fd5b863561510881614406565b955061511788602089016150d7565b945060a060df198201121561512a575f80fd5b5060e08601925061513f8761018088016145a0565b915061514f876101c088016150d7565b90509295509295909350565b5f60208284031215614580575f80fd5b5f6020828403121561517b575f80fd5b611001838361515b565b5f60608284031215615195575f80fd5b61519d614370565b905081356151aa81614406565b81526020828101359082015260408201356148e981614406565b5f608082840312156151d4575f80fd5b6151dc61434e565b90506151e88383615185565b81526060820135614bab81614406565b5f60808284031215615208575f80fd5b61100183836151c4565b60018060a01b0381511682526020810151602083015260408101516040830152606081015160608301526080810151608083015260a081015160a083015260c0810151151560c083015260e081015160e0830152610100808201516112e4828501826001600160a01b03169052565b82815261014081016110016020830184615212565b5f608082840312156152a6575f80fd5b6152ae61432c565b905081516152bb81614406565b815260208201516152cb81614425565b80602083015250604082015160408201526060820151606082015292915050565b5f61014082840312156152fd575f80fd5b60405160e081018181106001600160401b038211171561531f5761531f6142ef565b60405261532c8484615296565b8152608083015161533c81614406565b8060208301525060a0830151604082015260c0830151606082015260e0830151608082015261010083015160a082015261012083015160c08201528091505092915050565b5f608082019050838252823560208301526020830135604083015260408301356153aa81614406565b6001600160a01b03166060929092019190915292915050565b828152604060208201525f8235601e198436030181126153e1575f80fd5b83016020810190356001600160401b038111156153fc575f80fd5b80360382131561540a575f80fd5b604080850152806080850152808260a08601375f60a082860101526020850135606085015260a0601f19601f830116850101925050509392505050565b5f60608284031215615457575f80fd5b6110018383615185565b828152604060208201525f8251604080840152805160808401526020810151151560a08401526040810151151560c084015260608101519050608060e08401526154af610100840182614cf0565b602094909401516001600160a01b031660609390930192909252509092915050565b634e487b7160e01b5f52601160045260245ffd5b81810381811115610cc357610cc36154d1565b5f8261551257634e487b7160e01b5f52601260045260245ffd5b500490565b5f60c08284031215615527575f80fd5b61552f6143b4565b825181526020830151602082015260408301516040820152606083015160608201526080830151608082015260a083015161556981614406565b60a08201529392505050565b5f60208284031215615585575f80fd5b5051919050565b5f610cc336836146ed565b5f610cc33683614a4c565b6155ad828251615212565b60208101516001600160a01b039081166101208401526040909101511661014090910152565b828152610180810161100160208301846155a2565b918252805180516020808501919091528082015160408086019190915290910151606084015201516001600160a01b0316608082015260a00190565b5f8151606084526156386060850182614cf0565b602084810151868303878301528051808452908201935090915f91908301905b808310156156785784518252938301936001929092019190830190615658565b506040860151935086810360408801526156928185614cf0565b979650505050505050565b5f8151604084528051604085015260208101519050604060608501526156c66080850182615624565b6020938401516001600160a01b0316949093019390935250919050565b828152604060208201525f613518604083018461569d565b5f6040828403121561570b575f80fd5b6110018383614e60565b5f61018082019050838252825161575b60208401825180518252602081015160208301526040810151604083015260608101516060830152608081015160808301525050565b602090810151805160c08501528082015160e0850152604081015161010085015260608101516101208501526080015161014084015292909201516001600160a01b031661016090910152919050565b5f60a082840312156157bb575f80fd5b6157c3614392565b82518152602083015160208201526040830151604082015260608301516060820152608083015160808201528091505092915050565b6001600160401b0381168114610e3a575f80fd5b5f6040828403121561581d575f80fd5b61582561434e565b825161583081614406565b81526020830151614979816157f9565b5f60608201905083825282356020830152602083013561585f81614406565b6001600160a01b03166040929092019190915292915050565b5f60608284031215615888575f80fd5b611001838361490f565b5f61012082840312156158a3575f80fd5b6158ab6143b4565b6158b58484615296565b81526080830151602082015260a0830151604082015260c0830151606082015260e0830151608082015261010083015160a08201528091505092915050565b5f6101408284031215615905575f80fd5b6110018383614f21565b80358252602081013561592181614406565b6001600160a01b03908116602084015260408281013590840152606080830135908401526080808301359084015260a0828101359084015260c08201359061596882614406565b80821660c085015250505050565b8281526101008101611001602083018461590f565b5f806040838503121561599c575f80fd5b505080516020909101519092909150565b83815261012081016159c2602083018561590f565b82610100830152949350505050565b8281526080810161100160208301848035825260208082013590830152604090810135910152565b83815260a08101615a2160208301858035825260208082013590830152604090810135910152565b826080830152949350505050565b5f60208284031215615a3f575f80fd5b815161100181614425565b803582526020810135602083015260408101356040830152606081013560608301526080810135608083015260a0810135615a8481614406565b6001600160a01b031660a0929092019190915250565b8035615aa581614406565b6001600160a01b031682526020810135615abe816157f9565b6001600160401b0381166020840152505050565b8035615add81614406565b6001600160a01b039081168352602082013590615af982614406565b9081166020840152604082013590615b1082614406565b9081166040840152606082013590615b2782614406565b9081166060840152608082013590615b3e82614406565b908116608084015260a082013590615b5582614406565b80821660a085015250505050565b8681526001600160a01b03861660208201526102a08101615b876040830187615a4a565b84356101008301526020850135610120830152604085013561014083015260608501356101608301526080850135610180830152615bc96101a0830185615a9a565b6156926101e0830184615ad2565b8581526102808101615bec6020830187615a4a565b843560e08301526020850135610100830152604085013561012083015260608501356101408301526080850135610160830152615c2d610180830185615a9a565b613e816101c0830184615ad2565b82815260a081016110016020830184805180516001600160a01b0390811684526020808301518186015260409283015182169285019290925291015116606090910152565b5f60208284031215615c90575f80fd5b6110018383614c01565b600181815b80851115615cd457815f1904821115615cba57615cba6154d1565b80851615615cc757918102915b93841c9390800290615c9f565b509250929050565b5f82615cea57506001610cc3565b81615cf657505f610cc3565b8160018114615d0c5760028114615d1657615d32565b6001915050610cc3565b60ff841115615d2757615d276154d1565b50506001821b610cc3565b5060208310610133831016604e8410600b8410161715615d55575081810a610cc3565b615d5f8383615c9a565b805f1904821115615d7257615d726154d1565b029392505050565b5f6110018383615cdc565b8082028115828204841417610cc357610cc36154d1565b5f60208284031215615dac575f80fd5b815160ff81168114611001575f80fd5b5f61100160ff841683615cdc565b634e487b7160e01b5f52603260045260245ffd5b5f808335601e19843603018112615df3575f80fd5b8301803591506001600160401b03821115615e0c575f80fd5b602001915036819003821315615e20575f80fd5b9250929050565b80820180821115610cc357610cc36154d1565b60a081525f615e4c60a0830186615624565b90506001600160801b03845116602083015260208401516001600160401b0380821660408501528060408701511660608501525050826080830152949350505050565b5f8251615ea0818460208701614c91565b919091019291505056fe360894a13ba1a3210667c828492db98dca3e2076cc3735a920a3ca505d382bbc02dd7bc7dec4dceedda775e58dd541e08a116c6c53815c0bd028192f7b626800cd5ed15c6e187e77e9aee88184c21f4f2182ab5827cb3b7e07fbedcd63f033009b779b17422d0df92223018b32b4d1fa46e071723d6817e2486d003becc55f00a2646970667358221220db53e39fafeb6758e3bee5bcf6394daa189c06a50577b2f4276ae064a15c23fd64736f6c63430008170033",
    "linkReferences": {
      "src/market/libraries/LoanLibrary.sol": {
        "LoanLibrary": [
          {
            "start": 8788,
            "length": 20
          },
          {
            "start": 10359,
            "length": 20
          }
        ]
      },
      "src/market/libraries/OfferLibrary.sol": {
        "OfferLibrary": [
          {
            "start": 4835,
            "length": 20
          },
          {
            "start": 8469,
            "length": 20
          }
        ]
      },
      "src/market/libraries/RiskLibrary.sol": {
        "RiskLibrary": [
          {
            "start": 5467,
            "length": 20
          },
          {
            "start": 5583,
            "length": 20
          },
          {
            "start": 5918,
            "length": 20
          },
          {
            "start": 9858,
            "length": 20
          },
          {
            "start": 10687,
            "length": 20
          },
          {
            "start": 11216,
            "length": 20
          },
          {
            "start": 11926,
            "length": 20
          }
        ]
      },
      "src/market/libraries/YieldCurveLibrary.sol": {
        "YieldCurveLibrary": [
          {
            "start": 16152,
            "length": 20
          }
        ]
      },
      "src/market/libraries/actions/BuyCreditLimit.sol": {
        "BuyCreditLimit": [
          {
            "start": 6966,
            "length": 20
          },
          {
            "start": 7065,
            "length": 20
          }
        ]
      },
      "src/market/libraries/actions/BuyCreditMarket.sol": {
        "BuyCreditMarket": [
          {
            "start": 3552,
            "length": 20
          },
          {
            "start": 9616,
            "length": 20
          },
          {
            "start": 9715,
            "length": 20
          }
        ]
      },
      "src/market/libraries/actions/Claim.sol": {
        "Claim": [
          {
            "start": 12694,
            "length": 20
          },
          {
            "start": 12793,
            "length": 20
          }
        ]
      },
      "src/market/libraries/actions/Compensate.sol": {
        "Compensate": [
          {
            "start": 5693,
            "length": 20
          },
          {
            "start": 5792,
            "length": 20
          }
        ]
      },
      "src/market/libraries/actions/Deposit.sol": {
        "Deposit": [
          {
            "start": 13034,
            "length": 20
          },
          {
            "start": 13133,
            "length": 20
          }
        ]
      },
      "src/market/libraries/actions/Initialize.sol": {
        "Initialize": [
          {
            "start": 12193,
            "length": 20
          },
          {
            "start": 12334,
            "length": 20
          }
        ]
      },
      "src/market/libraries/actions/Liquidate.sol": {
        "Liquidate": [
          {
            "start": 11509,
            "length": 20
          },
          {
            "start": 11608,
            "length": 20
          },
          {
            "start": 11733,
            "length": 20
          }
        ]
      },
      "src/market/libraries/actions/LiquidateWithReplacement.sol": {
        "LiquidateWithReplacement": [
          {
            "start": 11004,
            "length": 20
          },
          {
            "start": 11103,
            "length": 20
          },
          {
            "start": 11359,
            "length": 20
          }
        ]
      },
      "src/market/libraries/actions/PartialRepay.sol": {
        "PartialRepay": [
          {
            "start": 3689,
            "length": 20
          },
          {
            "start": 3788,
            "length": 20
          }
        ]
      },
      "src/market/libraries/actions/Repay.sol": {
        "Repay": [
          {
            "start": 9443,
            "length": 20
          },
          {
            "start": 9541,
            "length": 20
          }
        ]
      },
      "src/market/libraries/actions/SelfLiquidate.sol": {
        "SelfLiquidate": [
          {
            "start": 6765,
            "length": 20
          },
          {
            "start": 6899,
            "length": 20
          }
        ]
      },
      "src/market/libraries/actions/SellCreditLimit.sol": {
        "SellCreditLimit": [
          {
            "start": 6471,
            "length": 20
          },
          {
            "start": 6570,
            "length": 20
          }
        ]
      },
      "src/market/libraries/actions/SellCreditMarket.sol": {
        "SellCreditMarket": [
          {
            "start": 5223,
            "length": 20
          },
          {
            "start": 5322,
            "length": 20
          },
          {
            "start": 10156,
            "length": 20
          }
        ]
      },
      "src/market/libraries/actions/SetCopyLimitOrderConfigs.sol": {
        "SetCopyLimitOrderConfigs": [
          {
            "start": 8981,
            "length": 20
          },
          {
            "start": 9080,
            "length": 20
          }
        ]
      },
      "src/market/libraries/actions/SetUserConfiguration.sol": {
        "SetUserConfiguration": [
          {
            "start": 4391,
            "length": 20
          },
          {
            "start": 4490,
            "length": 20
          }
        ]
      },
      "src/market/libraries/actions/SetVault.sol": {
        "SetVault": [
          {
            "start": 8582,
            "length": 20
          },
          {
            "start": 8716,
            "length": 20
          }
        ]
      },
      "src/market/libraries/actions/UpdateConfig.sol": {
        "UpdateConfig": [
          {
            "start": 3970,
            "length": 20
          },
          {
            "start": 4069,
            "length": 20
          },
          {
            "start": 4677,
            "length": 20
          },
          {
            "start": 9190,
            "length": 20
          },
          {
            "start": 9322,
            "length": 20
          }
        ]
      },
      "src/market/libraries/actions/Withdraw.sol": {
        "Withdraw": [
          {
            "start": 12860,
            "length": 20
          },
          {
            "start": 12959,
            "length": 20
          }
        ]
      }
    }
  },
  "methodIdentifiers": {
    "DEFAULT_ADMIN_ROLE()": "a217fddf",
    "UPGRADE_INTERFACE_VERSION()": "ad3cb1cc",
    "buyCreditLimit((uint256,(uint256[],int256[],uint256[])))": "3746f858",
    "buyCreditLimitOnBehalfOf(((uint256,(uint256[],int256[],uint256[])),address))": "53e043d4",
    "buyCreditMarket((address,uint256,uint256,uint256,uint256,uint256,bool,uint256,address))": "e236052b",
    "buyCreditMarketOnBehalfOf(((address,uint256,uint256,uint256,uint256,uint256,bool,uint256,address),address,address))": "834dafb5",
    "claim((uint256))": "f45bf01c",
    "collateralRatio(address)": "ca40742c",
    "compensate((uint256,uint256,uint256))": "8e572776",
    "compensateOnBehalfOf(((uint256,uint256,uint256),address))": "3ae6d7c3",
    "data()": "73d4a13a",
    "debtTokenAmountToCollateralTokenAmount(uint256)": "1970e5ea",
    "deposit((address,uint256,address))": "0cf8542f",
    "depositOnBehalfOf(((address,uint256,address),address))": "fa823af5",
    "feeConfig()": "1e5eb1d0",
    "getBorrowOfferAPR(address,uint256,address,uint256)": "1ff75b0b",
    "getBuyCreditMarketSwapData((address,uint256,uint256,uint256,uint256,uint256,bool,uint256,address))": "02088c51",
    "getCreditPosition(uint256)": "76c1b82f",
    "getDebtPosition(uint256)": "b5ec7487",
    "getLoanOfferAPR(address,uint256,address,uint256)": "73b683be",
    "getPositionsCount()": "1ca3b0cb",
    "getRoleAdmin(bytes32)": "248a9ca3",
    "getSellCreditMarketSwapData((address,uint256,uint256,uint256,uint256,uint256,bool,uint256,address))": "9ab80115",
    "getUserDefinedBorrowOfferAPR(address,uint256)": "2b59bd99",
    "getUserDefinedCopyBorrowOfferConfig(address)": "c421a759",
    "getUserDefinedCopyLoanOfferConfig(address)": "04c84222",
    "getUserDefinedLoanOfferAPR(address,uint256)": "0d37ab00",
    "getUserView(address)": "5cbc51eb",
    "grantRole(bytes32,address)": "2f2ff15d",
    "hasRole(bytes32,address)": "91d14854",
    "initialize(address,(uint256,uint256,uint256,uint256,uint256,address),(uint256,uint256,uint256,uint256,uint256),(address,uint64),(address,address,address,address,address,address))": "f1bf35c3",
    "isDebtPositionLiquidatable(uint256)": "e5af06ce",
    "liquidate((uint256,uint256,uint256))": "e05001f5",
    "liquidateWithReplacement((uint256,address,uint256,uint256,uint256,uint256,address))": "d927acef",
    "multicall(bytes[])": "ac9650d8",
    "oracle()": "7dc0d1d0",
    "partialRepay((uint256,uint256,address))": "02f2855a",
    "pause()": "8456cb59",
    "paused()": "5c975abb",
    "proxiableUUID()": "52d1902d",
    "reinitialize()": "6c2eb350",
    "renounceRole(bytes32,address)": "36568abe",
    "repay((uint256,address))": "7f417c06",
    "revokeRole(bytes32,address)": "d547741f",
    "riskConfig()": "7c90a6ca",
    "selfLiquidate((uint256))": "fd17174a",
    "selfLiquidateOnBehalfOf(((uint256),address,address))": "536b9c79",
    "sellCreditLimit((uint256,(uint256[],int256[],uint256[])))": "ccd8d4d1",
    "sellCreditLimitOnBehalfOf(((uint256,(uint256[],int256[],uint256[])),address))": "4fd9a8a5",
    "sellCreditMarket((address,uint256,uint256,uint256,uint256,uint256,bool,uint256,address))": "8ea68d7e",
    "sellCreditMarketOnBehalfOf(((address,uint256,uint256,uint256,uint256,uint256,bool,uint256,address),address,address))": "3962a686",
    "setCopyLimitOrderConfigs(((uint256,uint256,uint256,uint256,int256),(uint256,uint256,uint256,uint256,int256)))": "cb2e9bdc",
    "setCopyLimitOrderConfigsOnBehalfOf((((uint256,uint256,uint256,uint256,int256),(uint256,uint256,uint256,uint256,int256)),address))": "7a32376a",
    "setUserConfiguration((uint256,bool,bool,uint256[]))": "2e106f21",
    "setUserConfigurationOnBehalfOf(((uint256,bool,bool,uint256[]),address))": "134f3f96",
    "setVariablePoolBorrowRate(uint128)": "4cbd882c",
    "setVault((address,bool))": "510aeb39",
    "setVaultOnBehalfOf(((address,bool),address))": "75829a36",
    "supportsInterface(bytes4)": "01ffc9a7",
    "unpause()": "3f4ba83a",
    "updateConfig((string,uint256))": "0317b9df",
    "upgradeToAndCall(address,bytes)": "4f1ef286",
    "version()": "54fd4d50",
    "withdraw((address,uint256,address))": "2b4c9a20",
    "withdrawOnBehalfOf(((address,uint256,address),address))": "f54ae18b"
  },
  "storageLayout": {
    "storage": [
      {
        "astId": 111217,
        "contract": "src/market/Size.sol:Size",
        "label": "state",
        "offset": 0,
        "slot": "0",
        "type": "t_struct(State)111213_storage"
      }
    ],
    "types": {
      "t_address": {
        "encoding": "inplace",
        "label": "address",
        "numberOfBytes": "20"
      },
      "t_array(t_int256)dyn_storage": {
        "encoding": "dynamic_array",
        "label": "int256[]",
        "numberOfBytes": "32",
        "base": "t_int256"
      },
      "t_array(t_uint256)dyn_storage": {
        "encoding": "dynamic_array",
        "label": "uint256[]",
        "numberOfBytes": "32",
        "base": "t_uint256"
      },
      "t_bool": {
        "encoding": "inplace",
        "label": "bool",
        "numberOfBytes": "1"
      },
      "t_contract(IERC20Metadata)58402": {
        "encoding": "inplace",
        "label": "contract IERC20Metadata",
        "numberOfBytes": "20"
      },
      "t_contract(IPool)6319": {
        "encoding": "inplace",
        "label": "contract IPool",
        "numberOfBytes": "20"
      },
      "t_contract(IPriceFeed)125283": {
        "encoding": "inplace",
        "label": "contract IPriceFeed",
        "numberOfBytes": "20"
      },
      "t_contract(ISizeFactory)109242": {
        "encoding": "inplace",
        "label": "contract ISizeFactory",
        "numberOfBytes": "20"
      },
      "t_contract(IWETH)112087": {
        "encoding": "inplace",
        "label": "contract IWETH",
        "numberOfBytes": "20"
      },
      "t_contract(NonTransferrableRebasingTokenVault)123743": {
        "encoding": "inplace",
        "label": "contract NonTransferrableRebasingTokenVault",
        "numberOfBytes": "20"
      },
      "t_contract(NonTransferrableToken)123913": {
        "encoding": "inplace",
        "label": "contract NonTransferrableToken",
        "numberOfBytes": "20"
      },
      "t_int256": {
        "encoding": "inplace",
        "label": "int256",
        "numberOfBytes": "32"
      },
      "t_mapping(t_address,t_struct(User)111102_storage)": {
        "encoding": "mapping",
        "key": "t_address",
        "label": "mapping(address => struct User)",
        "numberOfBytes": "32",
        "value": "t_struct(User)111102_storage"
      },
      "t_mapping(t_address,t_struct(UserCopyLimitOrderConfigs)111111_storage)": {
        "encoding": "mapping",
        "key": "t_address",
        "label": "mapping(address => struct UserCopyLimitOrderConfigs)",
        "numberOfBytes": "32",
        "value": "t_struct(UserCopyLimitOrderConfigs)111111_storage"
      },
      "t_mapping(t_uint256,t_struct(CreditPosition)113979_storage)": {
        "encoding": "mapping",
        "key": "t_uint256",
        "label": "mapping(uint256 => struct CreditPosition)",
        "numberOfBytes": "32",
        "value": "t_struct(CreditPosition)113979_storage"
      },
      "t_mapping(t_uint256,t_struct(DebtPosition)113970_storage)": {
        "encoding": "mapping",
        "key": "t_uint256",
        "label": "mapping(uint256 => struct DebtPosition)",
        "numberOfBytes": "32",
        "value": "t_struct(DebtPosition)113970_storage"
      },
      "t_struct(CopyLimitOrderConfig)114594_storage": {
        "encoding": "inplace",
        "label": "struct CopyLimitOrderConfig",
        "numberOfBytes": "160",
        "members": [
          {
            "astId": 114585,
            "contract": "src/market/Size.sol:Size",
            "label": "minTenor",
            "offset": 0,
            "slot": "0",
            "type": "t_uint256"
          },
          {
            "astId": 114587,
            "contract": "src/market/Size.sol:Size",
            "label": "maxTenor",
            "offset": 0,
            "slot": "1",
            "type": "t_uint256"
          },
          {
            "astId": 114589,
            "contract": "src/market/Size.sol:Size",
            "label": "minAPR",
            "offset": 0,
            "slot": "2",
            "type": "t_uint256"
          },
          {
            "astId": 114591,
            "contract": "src/market/Size.sol:Size",
            "label": "maxAPR",
            "offset": 0,
            "slot": "3",
            "type": "t_uint256"
          },
          {
            "astId": 114593,
            "contract": "src/market/Size.sol:Size",
            "label": "offsetAPR",
            "offset": 0,
            "slot": "4",
            "type": "t_int256"
          }
        ]
      },
      "t_struct(CreditPosition)113979_storage": {
        "encoding": "inplace",
        "label": "struct CreditPosition",
        "numberOfBytes": "96",
        "members": [
          {
            "astId": 113972,
            "contract": "src/market/Size.sol:Size",
            "label": "lender",
            "offset": 0,
            "slot": "0",
            "type": "t_address"
          },
          {
            "astId": 113974,
            "contract": "src/market/Size.sol:Size",
            "label": "forSale",
            "offset": 20,
            "slot": "0",
            "type": "t_bool"
          },
          {
            "astId": 113976,
            "contract": "src/market/Size.sol:Size",
            "label": "credit",
            "offset": 0,
            "slot": "1",
            "type": "t_uint256"
          },
          {
            "astId": 113978,
            "contract": "src/market/Size.sol:Size",
            "label": "debtPositionId",
            "offset": 0,
            "slot": "2",
            "type": "t_uint256"
          }
        ]
      },
      "t_struct(Data)111200_storage": {
        "encoding": "inplace",
        "label": "struct Data",
        "numberOfBytes": "480",
        "members": [
          {
            "astId": 111152,
            "contract": "src/market/Size.sol:Size",
            "label": "users",
            "offset": 0,
            "slot": "0",
            "type": "t_mapping(t_address,t_struct(User)111102_storage)"
          },
          {
            "astId": 111157,
            "contract": "src/market/Size.sol:Size",
            "label": "debtPositions",
            "offset": 0,
            "slot": "1",
            "type": "t_mapping(t_uint256,t_struct(DebtPosition)113970_storage)"
          },
          {
            "astId": 111162,
            "contract": "src/market/Size.sol:Size",
            "label": "creditPositions",
            "offset": 0,
            "slot": "2",
            "type": "t_mapping(t_uint256,t_struct(CreditPosition)113979_storage)"
          },
          {
            "astId": 111164,
            "contract": "src/market/Size.sol:Size",
            "label": "nextDebtPositionId",
            "offset": 0,
            "slot": "3",
            "type": "t_uint256"
          },
          {
            "astId": 111166,
            "contract": "src/market/Size.sol:Size",
            "label": "nextCreditPositionId",
            "offset": 0,
            "slot": "4",
            "type": "t_uint256"
          },
          {
            "astId": 111169,
            "contract": "src/market/Size.sol:Size",
            "label": "weth",
            "offset": 0,
            "slot": "5",
            "type": "t_contract(IWETH)112087"
          },
          {
            "astId": 111172,
            "contract": "src/market/Size.sol:Size",
            "label": "underlyingCollateralToken",
            "offset": 0,
            "slot": "6",
            "type": "t_contract(IERC20Metadata)58402"
          },
          {
            "astId": 111175,
            "contract": "src/market/Size.sol:Size",
            "label": "underlyingBorrowToken",
            "offset": 0,
            "slot": "7",
            "type": "t_contract(IERC20Metadata)58402"
          },
          {
            "astId": 111178,
            "contract": "src/market/Size.sol:Size",
            "label": "collateralToken",
            "offset": 0,
            "slot": "8",
            "type": "t_contract(NonTransferrableToken)123913"
          },
          {
            "astId": 111180,
            "contract": "src/market/Size.sol:Size",
            "label": "___deprecated_borrowATokenV1_2",
            "offset": 0,
            "slot": "9",
            "type": "t_address"
          },
          {
            "astId": 111183,
            "contract": "src/market/Size.sol:Size",
            "label": "debtToken",
            "offset": 0,
            "slot": "10",
            "type": "t_contract(NonTransferrableToken)123913"
          },
          {
            "astId": 111186,
            "contract": "src/market/Size.sol:Size",
            "label": "variablePool",
            "offset": 0,
            "slot": "11",
            "type": "t_contract(IPool)6319"
          },
          {
            "astId": 111188,
            "contract": "src/market/Size.sol:Size",
            "label": "___deprecated_isMulticall",
            "offset": 20,
            "slot": "11",
            "type": "t_bool"
          },
          {
            "astId": 111191,
            "contract": "src/market/Size.sol:Size",
            "label": "borrowTokenVault",
            "offset": 0,
            "slot": "12",
            "type": "t_contract(NonTransferrableRebasingTokenVault)123743"
          },
          {
            "astId": 111196,
            "contract": "src/market/Size.sol:Size",
            "label": "usersCopyLimitOrderConfigs",
            "offset": 0,
            "slot": "13",
            "type": "t_mapping(t_address,t_struct(UserCopyLimitOrderConfigs)111111_storage)"
          },
          {
            "astId": 111199,
            "contract": "src/market/Size.sol:Size",
            "label": "sizeFactory",
            "offset": 0,
            "slot": "14",
            "type": "t_contract(ISizeFactory)109242"
          }
        ]
      },
      "t_struct(DebtPosition)113970_storage": {
        "encoding": "inplace",
        "label": "struct DebtPosition",
        "numberOfBytes": "128",
        "members": [
          {
            "astId": 113963,
            "contract": "src/market/Size.sol:Size",
            "label": "borrower",
            "offset": 0,
            "slot": "0",
            "type": "t_address"
          },
          {
            "astId": 113965,
            "contract": "src/market/Size.sol:Size",
            "label": "futureValue",
            "offset": 0,
            "slot": "1",
            "type": "t_uint256"
          },
          {
            "astId": 113967,
            "contract": "src/market/Size.sol:Size",
            "label": "dueDate",
            "offset": 0,
            "slot": "2",
            "type": "t_uint256"
          },
          {
            "astId": 113969,
            "contract": "src/market/Size.sol:Size",
            "label": "liquidityIndexAtRepayment",
            "offset": 0,
            "slot": "3",
            "type": "t_uint256"
          }
        ]
      },
      "t_struct(FeeConfig)111124_storage": {
        "encoding": "inplace",
        "label": "struct FeeConfig",
        "numberOfBytes": "192",
        "members": [
          {
            "astId": 111113,
            "contract": "src/market/Size.sol:Size",
            "label": "swapFeeAPR",
            "offset": 0,
            "slot": "0",
            "type": "t_uint256"
          },
          {
            "astId": 111115,
            "contract": "src/market/Size.sol:Size",
            "label": "fragmentationFee",
            "offset": 0,
            "slot": "1",
            "type": "t_uint256"
          },
          {
            "astId": 111117,
            "contract": "src/market/Size.sol:Size",
            "label": "liquidationRewardPercent",
            "offset": 0,
            "slot": "2",
            "type": "t_uint256"
          },
          {
            "astId": 111119,
            "contract": "src/market/Size.sol:Size",
            "label": "overdueCollateralProtocolPercent",
            "offset": 0,
            "slot": "3",
            "type": "t_uint256"
          },
          {
            "astId": 111121,
            "contract": "src/market/Size.sol:Size",
            "label": "collateralProtocolPercent",
            "offset": 0,
            "slot": "4",
            "type": "t_uint256"
          },
          {
            "astId": 111123,
            "contract": "src/market/Size.sol:Size",
            "label": "feeRecipient",
            "offset": 0,
            "slot": "5",
            "type": "t_address"
          }
        ]
      },
      "t_struct(LimitOrder)114583_storage": {
        "encoding": "inplace",
        "label": "struct LimitOrder",
        "numberOfBytes": "128",
        "members": [
          {
            "astId": 114579,
            "contract": "src/market/Size.sol:Size",
            "label": "maxDueDate",
            "offset": 0,
            "slot": "0",
            "type": "t_uint256"
          },
          {
            "astId": 114582,
            "contract": "src/market/Size.sol:Size",
            "label": "curveRelativeTime",
            "offset": 0,
            "slot": "1",
            "type": "t_struct(YieldCurve)115557_storage"
          }
        ]
      },
      "t_struct(Oracle)111147_storage": {
        "encoding": "inplace",
        "label": "struct Oracle",
        "numberOfBytes": "64",
        "members": [
          {
            "astId": 111140,
            "contract": "src/market/Size.sol:Size",
            "label": "priceFeed",
            "offset": 0,
            "slot": "0",
            "type": "t_contract(IPriceFeed)125283"
          },
          {
            "astId": 111142,
            "contract": "src/market/Size.sol:Size",
            "label": "variablePoolBorrowRate",
            "offset": 0,
            "slot": "1",
            "type": "t_uint128"
          },
          {
            "astId": 111144,
            "contract": "src/market/Size.sol:Size",
            "label": "variablePoolBorrowRateUpdatedAt",
            "offset": 16,
            "slot": "1",
            "type": "t_uint64"
          },
          {
            "astId": 111146,
            "contract": "src/market/Size.sol:Size",
            "label": "variablePoolBorrowRateStaleRateInterval",
            "offset": 24,
            "slot": "1",
            "type": "t_uint64"
          }
        ]
      },
      "t_struct(RiskConfig)111137_storage": {
        "encoding": "inplace",
        "label": "struct RiskConfig",
        "numberOfBytes": "192",
        "members": [
          {
            "astId": 111126,
            "contract": "src/market/Size.sol:Size",
            "label": "crOpening",
            "offset": 0,
            "slot": "0",
            "type": "t_uint256"
          },
          {
            "astId": 111128,
            "contract": "src/market/Size.sol:Size",
            "label": "crLiquidation",
            "offset": 0,
            "slot": "1",
            "type": "t_uint256"
          },
          {
            "astId": 111130,
            "contract": "src/market/Size.sol:Size",
            "label": "minimumCreditBorrowToken",
            "offset": 0,
            "slot": "2",
            "type": "t_uint256"
          },
          {
            "astId": 111132,
            "contract": "src/market/Size.sol:Size",
            "label": "___deprecated_borrowTokenCap",
            "offset": 0,
            "slot": "3",
            "type": "t_uint256"
          },
          {
            "astId": 111134,
            "contract": "src/market/Size.sol:Size",
            "label": "minTenor",
            "offset": 0,
            "slot": "4",
            "type": "t_uint256"
          },
          {
            "astId": 111136,
            "contract": "src/market/Size.sol:Size",
            "label": "maxTenor",
            "offset": 0,
            "slot": "5",
            "type": "t_uint256"
          }
        ]
      },
      "t_struct(State)111213_storage": {
        "encoding": "inplace",
        "label": "struct State",
        "numberOfBytes": "928",
        "members": [
          {
            "astId": 111203,
            "contract": "src/market/Size.sol:Size",
            "label": "feeConfig",
            "offset": 0,
            "slot": "0",
            "type": "t_struct(FeeConfig)111124_storage"
          },
          {
            "astId": 111206,
            "contract": "src/market/Size.sol:Size",
            "label": "riskConfig",
            "offset": 0,
            "slot": "6",
            "type": "t_struct(RiskConfig)111137_storage"
          },
          {
            "astId": 111209,
            "contract": "src/market/Size.sol:Size",
            "label": "oracle",
            "offset": 0,
            "slot": "12",
            "type": "t_struct(Oracle)111147_storage"
          },
          {
            "astId": 111212,
            "contract": "src/market/Size.sol:Size",
            "label": "data",
            "offset": 0,
            "slot": "14",
            "type": "t_struct(Data)111200_storage"
          }
        ]
      },
      "t_struct(User)111102_storage": {
        "encoding": "inplace",
        "label": "struct User",
        "numberOfBytes": "320",
        "members": [
          {
            "astId": 111094,
            "contract": "src/market/Size.sol:Size",
            "label": "loanOffer",
            "offset": 0,
            "slot": "0",
            "type": "t_struct(LimitOrder)114583_storage"
          },
          {
            "astId": 111097,
            "contract": "src/market/Size.sol:Size",
            "label": "borrowOffer",
            "offset": 0,
            "slot": "4",
            "type": "t_struct(LimitOrder)114583_storage"
          },
          {
            "astId": 111099,
            "contract": "src/market/Size.sol:Size",
            "label": "openingLimitBorrowCR",
            "offset": 0,
            "slot": "8",
            "type": "t_uint256"
          },
          {
            "astId": 111101,
            "contract": "src/market/Size.sol:Size",
            "label": "allCreditPositionsForSaleDisabled",
            "offset": 0,
            "slot": "9",
            "type": "t_bool"
          }
        ]
      },
      "t_struct(UserCopyLimitOrderConfigs)111111_storage": {
        "encoding": "inplace",
        "label": "struct UserCopyLimitOrderConfigs",
        "numberOfBytes": "352",
        "members": [
          {
            "astId": 111104,
            "contract": "src/market/Size.sol:Size",
            "label": "___deprecated_copyAddress",
            "offset": 0,
            "slot": "0",
            "type": "t_address"
          },
          {
            "astId": 111107,
            "contract": "src/market/Size.sol:Size",
            "label": "copyLoanOfferConfig",
            "offset": 0,
            "slot": "1",
            "type": "t_struct(CopyLimitOrderConfig)114594_storage"
          },
          {
            "astId": 111110,
            "contract": "src/market/Size.sol:Size",
            "label": "copyBorrowOfferConfig",
            "offset": 0,
            "slot": "6",
            "type": "t_struct(CopyLimitOrderConfig)114594_storage"
          }
        ]
      },
      "t_struct(YieldCurve)115557_storage": {
        "encoding": "inplace",
        "label": "struct YieldCurve",
        "numberOfBytes": "96",
        "members": [
          {
            "astId": 115550,
            "contract": "src/market/Size.sol:Size",
            "label": "tenors",
            "offset": 0,
            "slot": "0",
            "type": "t_array(t_uint256)dyn_storage"
          },
          {
            "astId": 115553,
            "contract": "src/market/Size.sol:Size",
            "label": "aprs",
            "offset": 0,
            "slot": "1",
            "type": "t_array(t_int256)dyn_storage"
          },
          {
            "astId": 115556,
            "contract": "src/market/Size.sol:Size",
            "label": "marketRateMultipliers",
            "offset": 0,
            "slot": "2",
            "type": "t_array(t_uint256)dyn_storage"
          }
        ]
      },
      "t_uint128": {
        "encoding": "inplace",
        "label": "uint128",
        "numberOfBytes": "16"
      },
      "t_uint256": {
        "encoding": "inplace",
        "label": "uint256",
        "numberOfBytes": "32"
      },
      "t_uint64": {
        "encoding": "inplace",
        "label": "uint64",
        "numberOfBytes": "8"
      }
    }
  },
  "id": 279
}